:100000000C94FB010C940D020C940D020C940D0247
:100010000C940D020C940D020C940D020C940D0224
:100020000C940D020C940D020C940D020C940D0214
:100030000C940D020C940D020C940D020C940D0204
:100040000C9415020C940D020C94BB050C940D023B
:100050000C940D020C940D020C940D020C940D02E4
:100060000C940D020C940D02FFFFFFFFFFFF081C14
:100070003E0808000C063F060C000C0239020C007A
:1000800010201008040018243C2418000000000070
:10009000000000005F000000000700070000147F60
:1000A000147F1400242A7F2A12002313086462009C
:1000B000364955225000000003000000001C224178
:1000C00000000041221C000014083E08140008082B
:1000D0003E0808000050300000000808080808002A
:1000E0000060600000002010080402003E514945F5
:1000F0003E0000427F4000004261514946002141DC
:10010000454B31001814127F100027454545390032
:100110003C4A494930000371090503003649494901
:100120003600064949291E000036360000000056F8
:1001300036000000081422410000141414141400A6
:100140000041221408000201510906003249794198
:100150003E007E1111117E007F49494936003E4123
:10016000414122007F4141413E007F4949494100D0
:100170007F09090901003E4141497A007F080808CA
:100180007F0000417F4100002040413F01007F0887
:10019000142241007F40404040007F020C027F005B
:1001A0007F0408107F003E4141413E007F0909095C
:1001B00006003E4151215E007F091929460046494B
:1001C0004949310001017F0101003F4040403F00AB
:1001D0001F2040201F003F4038403F006314081498
:1001E0006300070870080700615149454300007F1C
:1001F000414100000204081020000041417F00003E
:10020000040201020400404040404000000102049A
:1002100000002054545478007F4844443800384447
:1002200044442000384444487F0038545454180053
:10023000087E0901020018A4A4A47C007F0804041D
:10024000780000487D4000000000847D00007F10A1
:100250002844000000417F4000007C0478047800BE
:100260007C0804047800384444443800FC242424E6
:10027000180018242428FC007C08040408004854B2
:1002800054542000043F444020003C4040207C0067
:100290001C2040201C003C4030403C0044281028DA
:1002A00044001CA0A0A07C004464544C44000008FE
:1002B0003641000000007F000000004136080000C9
:1002C000100808100800000000000000205454D45A
:1002D0007800384446452000385454D4180000496A
:1002E0007F4400007C080605780038444645380005
:1002F0004854565520004464564D44004464554CBF
:1003000044007E1111917E003C42464324007F4907
:1003100049C941007F50484440007E040B107E00D4
:100320003C4246433C004C52565322004266534ADC
:1003300046004262534A46000000000000000000F0
:1003400000000000000000000000000000000000AD
:10035000000000000000000000000000000000009D
:10036000000000000000000000000000000000008D
:10037000000000000000000000000000000000007D
:100380000000000000000000000000005465726DD5
:100390006F6D6574720005E703DA03CC03BF03B227
:1003A00003000000000000A90353657474696E67C0
:1003B00073000000B803800053746174757300000B
:1003C00000C503800053797374656D000000D2038B
:1003D000800053656E736F7273000000E00380004D
:1003E00042726F6B6572000000ED0380004E657411
:1003F000776F726B000011241FBECFEFD8E0DEBF15
:10040000CDBF23E0A0E0B1E001C01D92A338B20748
:10041000E1F70E949D050C94EF050C9400001092EA
:100420007C0087E880937A0008951F920F920FB6A0
:100430000F9211242F938F939F9383B120910401E6
:1004400023FB222720F98695817091E089272817C0
:1004500039F1809104018F5F982F9770809104018A
:10046000887F892B8093040180910401877090E03C
:100470000497DCF080910401887F809304018091CF
:10048000040180618093040183B18695817091E0BD
:1004900089279091040180FB93F99093040105C092
:1004A00080910401887F8093040183B190910601BB
:1004B00093FB992790F982FB222720F981E082277C
:1004C000981741F1809106018F5F982F9770809166
:1004D0000601887F892B8093060180910601877031
:1004E00090E00497E4F080910601887F80930601F4
:1004F0008091060180618093060183B182FB992778
:1005000090F981E089279091060180FB93F99093FF
:10051000060105C080910601887F8093060183B1A2
:100520009091030193FB992790F98095817098171A
:1005300021F1809103018F5F982F977080910301C3
:10054000887F892B8093030180910301877090E05D
:100550000497C4F080910301887F80930301809108
:10056000030180618093030183B180959091030121
:1005700080FB93F99093030105C080910301887F6C
:100580008093030189B19091080193FB992790F919
:100590008095881F8827881F981739F18091080156
:1005A0008F5F982F977080910801887F892B8093A7
:1005B000080180910801877090E00497DCF0809139
:1005C0000801887F809308018091080180618093F1
:1005D000080189B18095881F8827881F909108019C
:1005E00080FB93F99093080105C080910801887FF2
:1005F0008093080189B19091050193FB992790F9A7
:1006000086FB222720F981E08227981741F180910B
:1006100005018F5F982F977080910501887F892B46
:100620008093050180910501877090E00497E4F0C4
:1006300080910501887F809305018091050180618B
:100640008093050189B186FB992790F981E089277C
:100650009091050180FB93F99093050105C080916D
:100660000501887F8093050189B19091070193FB73
:10067000992790F985FB222720F981E08227981796
:1006800041F1809107018F5F982F9770809107014A
:10069000887F892B8093070180910701877090E004
:1006A0000497E4F080910701887F8093070180918F
:1006B000070180618093070189B185FB992790F933
:1006C00081E089279091070180FB93F990930701BE
:1006D00005C080910701887F809307019F918F91CA
:1006E0002F910F900FBE0F901F90189585B58260C7
:1006F00085BDEEE6F0E08081816080832198299AB3
:1007000022982A9A2098289A57985F9A56985E9A23
:1007100055985D9A80910401887F809304018091AF
:100720000401877F80930401809104018F7E809370
:10073000040180910601887F809306018091060163
:10074000877F80930601809106018F7E809306014A
:1007500080910301887F8093030180910301877F4B
:1007600080930301809103018F7E80930301809128
:100770000801887F8093080180910801877F80931A
:100780000801809108018F7E809308018091050106
:10079000887F8093050180910501877F8093050103
:1007A000809105018F7E8093050180910701887FEC
:1007B0008093070180910701877F809307018091D3
:1007C00007018F7E8093070178940895809104013A
:1007D00084FF0BC0809104018F7E8093040180917F
:1007E000040183FB882780F9089580E008958091B3
:1007F000080184FF0BC0809108018F7E809308015F
:100800008091080183FB882780F9089580E008958E
:100810008091050184FF0BC0809105018F7E80933C
:1008200005018091050183FB882780F9089580E008
:1008300008957C01FC018491A82EB12C853018F418
:10084000982F8B2D02C094E080E0C92FD82F812CE7
:10085000712C6701F1E1CF0ED11C81E0A81AB1081B
:100860000E94AA04F6014591549160E070E080E096
:1008700090E00E94E504912C082D082C000C110B2F
:1008800015C0F801E60FF71FEE0FFF1F3196EE0DB2
:10089000FF1D85919491FC013296459154916E5FB4
:1008A0007F4F80E090E00E94E5049394692D70E012
:1008B0006C177D0734F310E0672C982C02E0070DCD
:1008C0000819592C602F812F0E944A051F5F1E3086
:1008D000C1F70E946A050E940804882329F01714B2
:1008E0001CF477247A94760C0E94F703882341F055
:1008F000872D072C000C990B8A159B050CF473941B
:10090000882D082C000C990B0396272D072C000C22
:10091000330B821793071CF488248394850C781476
:100920000CF48A940E94E6039BCF27E030E090E02D
:10093000AC01022E02C0559547950A94E2F740FF9C
:1009400002C02A9A01C02A98299A2998215031096F
:1009500078F7089529E031E04FE051E00AC01082B5
:100960003696E817F907D9F72F5F3F4F421753071D
:1009700029F0C90188509E4FF901F1CF08952B98B5
:100980002D980E9495042D9A089584B18E6384B9A0
:1009900015B82C9A2FEF81EE94E0215080409040C2
:1009A000E1F700C0000081E20E94BF0484E10E94E0
:1009B000BF048FEB0E94BF0480E20E94BF048CE062
:1009C0000E94BF040E94AA040895FF920F931F93F0
:1009D000CF93DF93FA012491222309F455C0FA0141
:1009E0000491202F30E0E901CC0FDD1FC20FD31F8F
:1009F000CC0FDD1FDE01A859BF4F20523109F9018C
:100A0000EE0FFF1F2E0F3F1F220F331F24573F4FA4
:100A1000C259DF4F1FEF100F8435910524F06F5F2F
:100A20007F4F80E090E06630710574F5153078F402
:100A3000FD01F490FC01EE0FFF1FE80FF91FEE0F10
:100A4000FF1FE75FFE4FE60FF71FF08210C00F3762
:100A500070F4F901F490FC01EE0FFF1FE80FF91F8D
:100A6000EE0FFF1FE75FFE4FE60FF71FF0820196C4
:100A700011962F5F3F4FAC17BD0771F64F5F5F4F69
:100A8000FA0124912111ABCFDF91CF911F910F91EA
:100A9000FF900895082E000C990BFC01EE0FFF1F2C
:100AA0008E0F9F1F880F991FFC01EE0FFF1FE80F8D
:100AB000F91FEE0FFF1FE60FF11D67FDFA95E75FC7
:100AC000FE4F90E08081809580839F5F36969630C0
:100AD000C9F70895CF92DF92EF92FF920F931F9381
:100AE000CF93DF932B9A2D980F2EF9E0EF2EF1E0A4
:100AF000FF2EF02D0F2EFFE0CF2EF1E0DF2EF02D98
:100B00000DC088810E9495042696C017D107C9F7A9
:100B10008FEFE81AF80ACE14DF0429F08701085095
:100B20001E4FE701EECF2D9ADF91CF911F910F91CC
:100B3000FF90EF90DF90CF9008950E9476030E947F
:100B4000C5040E940F024CE853E062E070E080E0D0
:100B500090E00E94E5040E946A052FEF87EA91E683
:100B6000215080409040E1F700C000000E94EA055B
:100B700080E090E008951F920F920FB60F9211241B
:100B80002F938F939F93EF93FF938091020190E0B7
:100B90002091C600FC01EF5FFC4F208301968F7708
:100BA0009078992324F4019780689F6F0196809331
:100BB000020190910101981303C081E0809300012C
:100BC000FF91EF919F918F912F910F900FBE0F90FA
:100BD0001F90189586E993E00E9419040895F894EF
:020BE000FFCF45
:00000001FF
