S00E000073656E736F722E737265637C
S11300000C940C020C9429020C9429020C942902DD
S11300100C9429020C9429020C9429020C942902B0
S11300200C9429020C9429020C9429020C942902A0
S11300300C9429020C9429020C9429020C94290290
S11300400C9431020C9429020C9419070C94290283
S11300500C9429020C9429020C9429020C94290270
S11300600C9429020C942902FFFFFFFFFFFF081CD8
S11300703E0808000C063F060C000C0239020C0076
S113008010201008040018243C241800000000006C
S1130090000000005F000000000700070000147F5C
S11300A0147F1400242A7F2A120023130864620098
S11300B0364955225000000003000000001C224174
S11300C000000041221C000014083E081400080827
S11300D03E08080000503000000008080808080026
S11300E00060600000002010080402003E514945F1
S11300F03E0000427F4000004261514946002141D8
S1130100454B31001814127F10002745454539002E
S11301103C4A4949300003710905030036494949FD
S11301203600064949291E000036360000000056F4
S113013036000000081422410000141414141400A2
S11301400041221408000201510906003249794194
S11301503E007E1111117E007F49494936003E411F
S1130160414122007F4141413E007F4949494100CC
S11301707F09090901003E4141497A007F080808C6
S11301807F0000417F4100002040413F01007F0883
S1130190142241007F40404040007F020C027F0057
S11301A07F0408107F003E4141413E007F09090958
S11301B006003E4151215E007F0919294600464947
S11301C04949310001017F0101003F4040403F00A7
S11301D01F2040201F003F4038403F006314081494
S11301E06300070870080700615149454300007F18
S11301F0414100000204081020000041417F00003A
S11302000402010204004040404040000001020496
S113021000002054545478007F4844443800384443
S113022044442000384444487F003854545418004F
S1130230087E0901020018A4A4A47C007F08040419
S1130240780000487D4000000000847D00007F109D
S11302502844000000417F4000007C0478047800BA
S11302607C0804047800384444443800FC242424E2
S1130270180018242428FC007C08040408004854AE
S113028054542000043F444020003C4040207C0063
S11302901C2040201C003C4030403C0044281028D6
S11302A044001CA0A0A07C004464544C44000008FA
S11302B03641000000007F000000004136080000C5
S11302C0100808100800000000000000205454D456
S11302D07800384446452000385454D41800004966
S11302E07F4400007C080605780038444645380001
S11302F04854565520004464564D44004464554CBB
S113030044007E1111917E003C42464324007F4903
S113031049C941007F50484440007E040B107E00D0
S11303203C4246433C004C52565322004266534AD8
S113033046004262534A46000000000000000000EC
S113034000000000000000000000000000000000A9
S11303500000000000000000000000000000000099
S11303600000000000000000000000000000000089
S11303700000000000000000000000000000000079
S11303800000000000000000000000005465726DD1
S11303906F6D657472004261636B6C6967687400A9
S11303A04272696768746E65737300060B04FF0319
S11303B0F203E403C703D30300000000BE03536544
S11303C07474696E6773000000CC038053746174A5
S11303D0757300D803DA038058074261636B6C6954
S11303E067687400E903EB03804807537973746505
S11303F06D000000F7038053656E736F7273000025
S11304000004048042726F6B657200000010048067
S11304104E6574776F726B0011241FBECFEFD8E066
S1130420DEBFCDBF11E0A0E0B1E0EEE2FFE002C02C
S113043005900D92A230B107D9F723E0A2E0B1E014
S113044001C01D92A638B207E1F70E94F9060C9488
S113045095070C94000010927C0087E880937A0042
S113046008951F920F920FB60F9211242F938F931A
S11304709F9389B19091070193FB992790F98095F7
S1130480881F8827881F981739F1809107018F5F8B
S1130490982F977080910701887F892B809307019B
S11304A080910701877090E00497DCF08091070148
S11304B0887F809307018091070180618093070101
S11304C089B18095881F8827881F9091070180FB38
S11304D093F99093070105C080910701887F809369
S11304E0070183B19091090193FB992790F98095B5
S11304F08170981721F1809109018F5F982F97706F
S113050080910901887F892B8093090180910901D9
S1130510877090E00497C4F080910901887F8093EC
S113052009018091090180618093090183B180955B
S11305309091090180FB93F99093090105C0809182
S11305400901887F8093090189B12091060123FB69
S1130550222720F98295817091E08927281739F1A3
S1130560809106018F5F982F977080910601887F94
S1130570892B8093060180910601877090E004978F
S1130580DCF080910601887F80930601809106014A
S113059080618093060189B18295817091E08927F9
S11305A09091060180FB93F99093060105C0809118
S11305B00601887F8093060189B190910B0193FB1A
S11305C0992790F986FB222720F981E08227981742
S11305D041F180910B018F5F982F977080910B01EF
S11305E0887F892B80930B0180910B01877090E0A9
S11305F00497E4F080910B01887F80930B01809134
S11306000B01806180930B0189B186FB992790F9D6
S113061081E0892790910B0180FB93F990930B0162
S113062005C080910B01887F80930B0189B1909163
S1130630080193FB992790F985FB222720F981E093
S11306408227981741F1809108018F5F982F977046
S113065080910801887F892B80930801809108018B
S1130660877090E00497E4F080910801887F80937C
S113067008018091080180618093080189B185FB9C
S1130680992790F981E089279091080180FB93F9DB
S11306909093080105C080910801887F8093080128
S11306A089B190910A0193FB992790F982FB222743
S11306B020F981E08227981741F180910A018F5F28
S11306C0982F977080910A01887F892B80930A0163
S11306D080910A01877090E00497E4F080910A0108
S11306E0887F80930A0180910A01806180930A01C6
S11306F089B182FB992790F981E0892790910A01B9
S113070080FB93F990930A0105C080910A01887FC8
S113071080930A019F918F912F910F900FBE0F909C
S11307201F90189585B5826085BDEEE6F0E0808166
S11307308160808357985F9A2098289A54985C9A8D
S113074056985E9A55985D9A52985A9A80910701E4
S1130750887F8093070180910701877F8093070139
S1130760809107018F7E8093070180910901887F22
S11307708093090180910901877F80930901809109
S113078009018F7E8093090180910601887F8093FF
S1130790060180910601877F8093060180910601FE
S11307A08F7E8093060180910B01887F80930B01DB
S11307B080910B01877F80930B0180910B018F7EC9
S11307C080930B0180910801887F809308018091B8
S11307D00801877F80930801809108018F7E8093B0
S11307E0080180910A01887F80930A0180910A019F
S11307F0877F80930A0180910A018F7E80930A018A
S1130800789408958091070184FF0BC080910701BB
S11308108F7E809307018091070183FB882780F9ED
S1130820089580E008958091090184FF0BC08091B0
S113083009018F7E809309018091090183FB882738
S113084080F9089580E008958091060184FF0BC02B
S1130850809106018F7E809306018091060183FBBF
S1130860882780F9089580E0089580910B0184FF22
S11308700BC080910B018F7E80930B0180910B0143
S113088083FB882780F9089580E00895809108010A
S113089084FF0BC0809108018F7E809308018091B2
S11308A0080183FB882780F9089580E008958091EA
S11308B00A0184FF0BC080910A018F7E80930A0194
S11308C080910A0183FB882780F9089580E00895C8
S11308D08C01FC018491E82EF12C853018F4982FBA
S11308E08F2D02C094E080E0C92FD82FB12CA12C09
S11308F06801F1E1CF0ED11C81E0E81AF1080E94F1
S1130900BE05F6014591549160E070E080E090E00E
S11309100E94FB05912C15C0EB2DE90DF0E0EE0FC4
S1130920FF1F3196E00FF11F85919491FC013296DF
S1130930459154916E5F7F4F80E090E00E94FB05EB
S11309409394692D70E06C177D0734F3912C4A2C35
S11309505B2C6894882481F88A0C8B18642C752C81
S1130960682D892D0E9479069394EEE09E12F6CFAD
S11309700E9499068A2C0A2C000C99080E944604AD
S1130980882331F01A1424F4AA24AA94A60C31C0A2
S11309900E943504882339F08E149F0424F4AA2479
S11309A0A394A60C26C00E940204882339F3862D42
S11309B090E0880F991F0196800F911FFC012591EB
S11309C03491F90125913491232B99F0FC0125915F
S11309D03491F90134962491203859F4FC0185911D
S11309E09491FC0185919491FC0185919491FC0171
S11309F009958B2D0B2C000C990B03962A2D0A2C90
S1130A00000C330B821793071CF4BB24B394B70C6C
S1130A10AB140CF074CFBA9472CF4F925F926F9272
S1130A207F928F929F92AF92BF92CF92DF92EF927A
S1130A30FF920F931F93CF93DF933C016B01142F0D
S1130A40D22FFB014080842E440F99080F2EF6E428
S1130A505F2EF02DA22E220FBB08A818B908F601AC
S1130A608081D8170CF4D083F601808181170CF4AF
S1130A7010830E94BE05A30161E070E086E090E06F
S1130A800E94FB054FEF64E086E00E946706F601D2
S1130A902081022E000C330B28193909529EC00103
S1130AA0539E900D1124B5010E946D077B016230A5
S1130AB0710580F0C1E04FEF64E086E08C0F0E9486
S1130AC06706CF5F8C2F90E08E159F05A0F3C63488
S1130AD010F00AC0C1E041E864E086E08C0F0E9497
S1130AE06706CF5FC634B8F34FEF64E08CE40E942E
S1130AF067060E9499060E941304882319F0F601E0
S1130B00408216C00E940204811112C00E94570440
S1130B10882329F0F6018081801B8083A0CF0E9466
S1130B202404882341F3F6018081800F808397CFCA
S1130B30DF91CF911F910F91FF90EF90DF90CF90B5
S1130B40BF90AF909F908F907F906F905F904F90E9
S1130B50089527E030E090E0AC01022E02C05595E4
S1130B6047950A94E2F740FF02C02A9A01C02A98E6
S1130B70299A29982150310978F708952CE031E019
S1130B8042E151E00AC010823696E817F907D9F716
S1130B902F5F3F4F4217530729F0C90188509E4FDA
S1130BA0F901F1CF08952B982D980E94A9052D9A4B
S1130BB0089584B18E6384B985B1817C85B92C9AFA
S1130BC02FEF81EE94E0215080409040E1F700C087
S1130BD0000081E20E94D30584E10E94D3058FEBDB
S1130BE00E94D30580E20E94D3058CE00E94D305C5
S1130BF00E94BE050895FF920F931F93CF93DF9336
S1130C00FA012491222309F45CC014911D3031F4BB
S1130C1058C0FA0114911D3009F453C0212F30E05B
S1130C20E901CC0FDD1FC20FD31FCC0FDD1FDE0186
S1130C30A859BF4F20523109F901EE0FFF1F2E0FA3
S1130C403F1F220F331F24573F4FC259DF4F0FEF6F
S1130C50010F8435910524F06F5F7F4F80E090E0B1
S1130C606630710574F5053078F4FD01F490FC01EB
S1130C70EE0FFF1FE80FF91FEE0FFF1FE45FFE4F9B
S1130C80E60FF71FF08210C01F3770F4F901F490DB
S1130C90FC01EE0FFF1FE80FF91FEE0FFF1FE45FCB
S1130CA0FE4FE60FF71FF082019611962F5F3F4F1C
S1130CB0CA17DB0771F64F5F5F4FFA0124912111C8
S1130CC0A8CFDF91CF911F910F91FF900895082E27
S1130CD0000C990BFC01EE0FFF1FE80FF91FEE0F3C
S1130CE0FF1FE45FFE4FE60FF11D67FDFA95408399
S1130CF00895082E000C990BFC01EE0FFF1F8E0FB8
S1130D009F1F880F991FFC01EE0FFF1FE80FF91FAB
S1130D10EE0FFF1FE60FF11D67FDFA95E45FFE4F2E
S1130D2090E08081809580839F5F36969630C9F7E6
S1130D300895CF92DF92EF92FF920F931F93CF9378
S1130D40DF932B9A2D980F2EFCE0EF2EF1E0FF2E6F
S1130D50F02D0F2EF2E1CF2EF1E0DF2EF02D0DC09D
S1130D6088810E94A9052696C017D107C9F78FEF7D
S1130D70E81AF80ACE14DF0429F0870108501E4F40
S1130D80E701EECF2D9ADF91CF911F910F91FF9044
S1130D90EF90DF90CF900895CF93C82F823408F05E
S1130DA0C1E4C23308F4C2E381E20E94D3058C2F6C
S1130DB080680E94D30580E20E94D305CF910895F4
S1130DC0539AE0EBF0E0808183628083E1EBF0E012
S1130DD080818D61808384E68093B3008093B40026
S1130DE00895853608F084E694E6981B9093B40041
S1130DF008950E9492030E94D9050E94E0060E9471
S1130E002B024CE853E062E070E080E090E00E9446
S1130E10FB050E9499062FEF87EA91E62150804056
S1130E209040E1F700C000000E94680780E090E075
S1130E3008951F920F920FB60F9211242F938F9340
S1130E409F93EF93FF938091040190E02091C6005B
S1130E50FC01EC5FFC4F208301968F7790789923F7
S1130E6024F4019780689F6F019680930401909108
S1130E700301981303C081E080930201FF91EF9175
S1130E809F918F912F910F900FBE0F901F901895E7
S1130E900F9301E021E442E360E071E080EA93E033
S1130EA00E940D05809100010E94CC060F910895C7
S1130EB00F930AE024E640E065E071E086E993E000
S1130EC00E940D05809105010E94F1060F9108957D
S1130ED08BEA93E00E946804089597FB072E16F4AA
S1130EE0009407D077FD09D00E94810707FC05D044
S1130EF03EF4909581959F4F0895709561957F4F2D
S1130F000895AA1BBB1B51E107C0AA1FBB1FA6174C
S1130F10B70710F0A61BB70B881F991F5A95A9F79E
S1110F2080959095BC01CD010895F894FFCF03
S1050F2E32008B
S9030000FC
