:100000000C94C5040C94E2040C94E2040C94E204F5
:100010000C94E2040C94E2040C94E2040C94E204C8
:100020000C94E2040C94E2040C94E2040C94E204B8
:100030000C94E2040C94E2040C94E2040C94E204A8
:100040000C9485050C94E2040C9496250C94E2041F
:100050000C94E2040C94E2040C94E2040C94E20488
:100060000C94E2040C94E2049F10A510CC10D5105F
:10007000FE10EC101011271139114B116011B51041
:1000800079118E11A311B711C711DB11EC11FD11FC
:10009000141221124B126812711276127D1208008E
:1000A0000000BE922449123EABAAAA2ABECDCCCCF7
:1000B0004C3E00000080BEABAAAAAA3E0000000091
:1000C000BF000000803F0000000000084178D3BB63
:1000D0004387D1133D190E3CC3BD4282AD2B3E6810
:1000E000EC8276BED98FE1A93E4C80EFFFBE01C401
:1000F000FF7F3F000000000007634236B79BD8A790
:100100001A39685618AEBAAB558C1D3CB7CC57633C
:10011000BD6DEDFD753EF6177231BF000000803FEA
:1001200000407A10F35A00A0724E18090010A5D4AE
:10013000E80000E87648170000E40B54020000CA0B
:100140009A3B000000E1F505000080969800000051
:1001500040420F000000A0860100000010270000B0
:100160000000E803000000006400000000000A0036
:10017000000000000100000000002C76D888DC6739
:100180004F0823DFC1DFAE59E1B1B796E5E3E45391
:10019000C63AE651997696E8E6C28426EB898C9BAE
:1001A00062ED407C6FFCEFBC9C9F40F2BAA56FA54E
:1001B000F490055A2AF75C936B6CF9676DC11BFCD0
:1001C000E0E40D47FEF520E6B500D0ED902E0300EB
:1001D000943577050080841E080000204E0A000038
:1001E00000C80C333333330F986E12831141EF8DF7
:1001F0002114893BE65516CFFEE6DB18D1844B3837
:100200001BF77C1D901DA4BBE424203284725E2267
:100210008100C9F124ECA1E53D277E21402324255E
:100220005E262A28295F2B012051574552545955E3
:10023000494F507B7D0402204153444647484A4B76
:100240004C3A227C03205A584356424E4D3C3E3F86
:10025000200560313233343536373839302D3D01A1
:100260002071776572747975696F705B5D04022027
:100270006173646667686A6B6C3B275C03207A78FD
:100280006376626E6D2C2E2F2005FFFFFFFFFFFFB0
:10029000081C3E0808000C063F060C000C02390240
:1002A0000C0010201008040018243C241800000042
:1002B0000000000000005F000000000700070000D1
:1002C000147F147F1400242A7F2A12002313086449
:1002D0006200364955225000000003000000001C57
:1002E000224100000041221C000014083E081400B6
:1002F00008083E0808000050300000000808080800
:1003000008000060600000002010080402003E5158
:1003100049453E0000427F4000004261514946008D
:100320002141454B31001814127F100027454545E7
:1003300039003C4A49493000037109050300364938
:1003400049493600064949291E000036360000009A
:100350000056360000000814224100001414141442
:10036000140000412214080002015109060032491C
:1003700079413E007E1111117E007F4949493600C6
:100380003E41414122007F4141413E007F49494970
:1003900041007F09090901003E4141497A007F0877
:1003A00008087F0000417F4100002040413F0100DC
:1003B0007F08142241007F40404040007F020C0231
:1003C0007F007F0408107F003E4141413E007F09CD
:1003D000090906003E4151215E007F0919294600A6
:1003E00046494949310001017F0101003F40404039
:1003F0003F001F2040201F003F4038403F00631453
:10040000081463000708700807006151494543005C
:10041000007F414100000204081020000041417F9C
:10042000000004020102040040404040400000017E
:10043000020400002054545478007F48444438009B
:10044000384444442000384444487F0038545454CD
:100450001800087E0901020018A4A4A47C007F08EB
:100460000404780000487D4000000000847D000006
:100470007F102844000000417F4000007C04780485
:1004800078007C0804047800384444443800FC2494
:100490002424180018242428FC007C0804040800E4
:1004A000485454542000043F444020003C40402025
:1004B0007C001C2040201C003C4030403C00442874
:1004C000102844001CA0A0A07C004464544C4400AC
:1004D00000083641000000007F000000004136089F
:1004E0000000100808100800000000000000205460
:1004F00054D47800384446452000385454D4180069
:1005000000497F4400007C080605780038444645D1
:1005100038004854565520004464564D4400446405
:10052000554C44007E1111917E003C42464324000C
:100530007F4949C941007F50484440007E040B1068
:100540007E003C4246433C004C52565322004266D9
:10055000534A46004262534A460000000000000031
:10056000000000000000000000000000000000008B
:10057000000000000000000000000000000000007B
:10058000000000000000000000000000000000006B
:10059000000000000000000000000000000000005B
:1005A0000000000000000000000000000000506C8F
:1005B0006561736520776169742E2E2E0025732086
:1005C000562065727200444154412068766F6C7405
:1005D0002025730D0A002573205600444154412004
:1005E00074656D702025730D0A0025732073742EB9
:1005F0002043007265737461727420696E202564F3
:1006000073005465726D6F6D6574720041502063A4
:100610006F6E6E2E206661696C0042726F6B657240
:10062000206661696C0042726F6B65722074696D3F
:10063000656F7574004F4B0042726F6B657220637B
:100640006F6E6E2E005245474953544552207465D3
:10065000737400415020636F6E6E6563746564004F
:1006600063686970207265616479006572723A200E
:1006700070726F746F636F6C006572723A206E6F88
:1006800020616E7377657200574C414E2073746120
:1006900072747570005245474953544552204F4B70
:1006A000005155455259004261636B6C696768742B
:1006B000004272696768746E657373004449534100
:1006C000424C45440D454E41424C454400456E74F4
:1006D0006572206164647265737300456E7465723F
:1006E0002070617373776F726400456E7465722059
:1006F0005353494400456E7465722070617373777B
:100700006F726400436F6E6669726D2F72657475E7
:10071000726E0053657475702041502061733A0009
:100720004150204C6973743A005363616E6E696E78
:1007300067204150732E2E000698078A07830771A1
:100740000760075407000000004B07536574746985
:100750006E677300000059078053746174757300ED
:10076000650767078013104261636B6C6967687483
:10077000007607780780EC0F4272696768746E65CF
:100780007373008807E30780E80F00008F07805429
:1007900072696767657273009D07FE0780E40F0248
:1007A000C107B207000000000000000000000000C8
:1007B000E307B707B90780DD0F496E707574203203
:1007C00000C607C80780D70F496E707574203100C6
:1007D0000000000000000000000000000000000019
:1007E00000E30753656E736F727300065608430883
:1007F000330822081008060800000000FE074E65B6
:1008000074776F726B0000000B088054657374007E
:100810001508170880A70F436F6E6E656374696FC4
:100820006E002708290880790F42726F6B6572206D
:1008300049500038083A08804B0F50617373776F46
:1008400072640048084A08801F0F4D616E75616C24
:100850002053534944005B085D0880CF0D5363610A
:100860006E20666F722041507300140AAAAA0A14FF
:100870001008A8A808100000A0A0000000008080B8
:100880000000F88EE9A988F8F88EE9A98EF8434CA3
:100890004F534544005749464920444953434F4E1E
:1008A0004E454354002B4950442C003A0D0A004554
:1008B00052524F52004641494C004F4B0041542B7D
:1008C0004357514150004552524F52004641494C06
:1008D0000053454E44204F4B000D0A000D0A0041C5
:1008E000542B43495053454E443D004552524F52BC
:1008F000004641494C0053454E44204F4B000D0AE1
:10090000000D0A0041542B43495053454E443D00CD
:100910004552524F52004641494C004F4B000D0A80
:1009200000222C0041542B43495053544152543D12
:1009300022544350222C22004552524F520046412D
:10094000494C004F4B00220D0A00222C220041543A
:100950002B43574A41503D220028292C22002829A8
:100960002C22002B43574C41503A004552524F52D3
:10097000004F4B0041542B43574C41500D0A004F40
:100980004B00415445300D0A000011241FBECFEF2B
:10099000D8E0DEBFCDBF12E0A0E0B1E0E6E0F0E7D6
:1009A00002C005900D92AC34B107D9F725E0ACE454
:1009B000B2E001C01D92A836B207E1F70E94EA1723
:1009C0000C9401380C94000010927C0087E880930E
:1009D0007A00089580937C0080917A0080648093EF
:1009E0007A0080917A0086FDFCCF8091780090910A
:1009F00079000895CF92DF92EF92FF920F931F93A9
:100A0000CF93DF93082F162F862FD1E0882321F074
:100A1000DD0FDD0F8150FACFC0E0C12CD12C760163
:100A2000DC1749F0802F0E94EA04C80ED91EE11C91
:100A3000F11CCF5FF5CFD701C60104C0B695A795CD
:100A4000979587951A95D2F7DF91CF911F910F91C6
:100A5000FF90EF90DF90CF9008954F925F926F924A
:100A60007F92AF92BF92CF92DF92EF92FF920F935D
:100A70001F93CF93DF93CDB7DEB72A970FB6F894C5
:100A8000DEBF0FBECDBF7A87698729013A01E982AF
:100A9000FA820B831C83BC0180E090E00E94D02B83
:100AA0006D837E838F83988729853A85B901330FBB
:100AB000880B990B0E94D22B9B01AC016D817E812A
:100AC0008F8198850E94282BA30192010E94392DC5
:100AD000A60195010E94B62AA80197010E94282B21
:100AE0002A960FB6F894DEBF0FBECDBFDF91CF912F
:100AF0001F910F91FF90EF90DF90CF90BF90AF903C
:100B00007F906F905F904F9008951F920F920FB655
:100B10000F9211242F938F939F9389B19091560236
:100B200093FB992790F98095881F8827881F98172D
:100B300039F1809156028F5F982F977080915602FD
:100B4000887F892B8093560280915602877090E0AF
:100B50000497DCF080915602887F80935602809142
:100B6000560280618093560289B18095881F88273C
:100B7000881F9091560280FB93F99093560205C00E
:100B800080915602887F8093560283B190915802DB
:100B900093FB992790F9817021E08227981719F12A
:100BA000809158028F5F982F977080915802887FAC
:100BB000892B8093580280915802877090E00497A7
:100BC000BCF080915802887F80935802809158022F
:100BD00080618093580283B18170282780915802E8
:100BE00020FB83F903C080915802887F80935802CC
:100BF00089B19091550293FB992790F921E0829554
:100C000081708227981721F1809155028F5F982F6C
:100C1000977080915502887F892B8093550280912F
:100C20005502877090E00497C4F080915502887F48
:100C3000809355028091550280618093550289B15D
:100C40008295817028278091550220FB83F903C08B
:100C500080915502887F8093550289B190915A0204
:100C600093FB992790F921E086FB882780F982275A
:100C7000981729F180915A028F5F982F9770809171
:100C80005A02887F892B80935A0280915A0287707A
:100C900090E00497CCF080915A02887F80935A02AA
:100CA00080915A02806180935A0289B186FB88271D
:100CB00080F9282780915A0220FB83F903C0809194
:100CC0005A02887F80935A0289B19091570293FB10
:100CD000992790F921E085FB882780F982279817CA
:100CE00029F1809157028F5F982F9770809157025A
:100CF000887F892B8093570280915702877090E0FC
:100D00000497CCF080915702887F8093570280919E
:100D1000570280618093570289B185FB882780F94B
:100D200028278091570220FB83F903C08091570246
:100D3000887F8093570289B19091590293FB99273C
:100D400090F921E082FB882780F98227981729F102
:100D5000809159028F5F982F977080915902887FF8
:100D6000892B8093590280915902877090E00497F3
:100D7000CCF080915902887F80935902809159026A
:100D800080618093590289B182FB882780F92827E6
:100D90008091590220FB83F903C080915902887F1A
:100DA000809359029F918F912F910F900FBE0F90BA
:100DB0001F90189585B5826085BDEEE6F0E08081D4
:100DC0008160808357985F9A2098289A54985C9AFB
:100DD00056985E9A55985D9A52985A9A8091560202
:100DE000887F8093560280915602877F80935602B7
:100DF000809156028F7E8093560280915802887FA0
:100E00008093580280915802877F80935802809186
:100E100058028F7E8093580280915502887F80937C
:100E2000550280915502877F80935502809155022B
:100E30008F7E8093550280915A02887F80935A0258
:100E400080915A02877F80935A0280915A028F7E46
:100E500080935A0280915702887F80935702809135
:100E60005702877F80935702809157028F7E80932D
:100E7000570280915902887F8093590280915902CC
:100E8000877F80935902809159028F7E8093590207
:100E9000789408958091560284FF0BC08091560289
:100EA0008F7E809356028091560283FB882780F9BB
:100EB000089580E008958091580284FF0BC08091CE
:100EC00058028F7E809358028091580283FB8827B6
:100ED00080F9089580E008958091550284FF0BC049
:100EE000809155028F7E809355028091550283FB3D
:100EF000882780F9089580E0089580915A0284FF40
:100F00000BC080915A028F7E80935A0280915A02C0
:100F100083FB882780F9089580E008958091570227
:100F200084FF0BC0809157028F7E8093570280917F
:100F3000570283FB882780F9089580E00895809107
:100F4000590284FF0BC0809159028F7E8093590211
:100F50008091590283FB882780F9089580E00895E5
:100F60006F927F928F929F92AF92BF92CF92DF92B9
:100F7000EF92FF920F931F93CF93DF937C015A015F
:100F800077247A94760EEC0109900020E9F72197F6
:100F9000C81BD0E001E010E04EE0642E0E945B0729
:100FA0008111D2C00E94B90ACF3028F04C2F50E0F6
:100FB0004E50510902C040E050E04E0D5F1D60E010
:100FC00070E080E090E00E94F40AA50161E070E02A
:100FD00080E090E00E942A0BD12C61E08D2D0E94D0
:100FE000F90CD3948EE0D812F8CFD11126C022E5A7
:100FF000822E22E0922E32E0C32ED12CA401B60123
:1010000080E090E00E942A0BEFEFCE1ADE0AFEE0AD
:101010008F0E911C86E0C816D10481F762E0600F44
:10102000812F0E94F90CED2FE270DE2ED1FF1DC042
:1010300065E080E00E94F90C18C08AE1882E82E009
:10104000982E92E0C92ED12CA401B60180E090E048
:101050000E942A0BFFEFCF1ADF0A8EE0880E911C48
:10106000E6E0CE16D10481F7D9CFD0FF04C064E00A
:1010700080E00E94F90C0E94100D0E947D078823D9
:1010800019F003300CF40F5F0E946C07882319F0ED
:101090001D300CF41F5F0E948E07882319F0101674
:1010A0000CF401500E949F07882311F01111115078
:1010B0000E944A07882309F471CF202F002E000CCC
:1010C000330B812F012E000C990B629EF001639E61
:1010D000F00D1124E80FF91FDD2319F0E65EFD4F36
:1010E00002C0EE5AFD4FE491E03268F0C71558F4A3
:1010F000D701AC0FB11DEC9311961C92CF5FDD2090
:1011000009F44CCF1DC0E230A1F018F4E13041F0F9
:1011100045CFE33099F0E43009F040CF8C2F17C071
:10112000CC2309F43BCFC150F701EC0FF11D108225
:1011300035CF81E0D11180E0D82F30CFDD2311F001
:10114000D0E02CCFD2E02ACFF701108280E0DF91EF
:10115000CF911F910F91FF90EF90DF90CF90BF90B4
:10116000AF909F908F907F906F9008958F929F92F5
:10117000AF92BF92CF92DF92EF92FF920F931F93A5
:10118000CF93DF938C01FC018491E82EF12C853004
:1011900010F4670103C094E0C92ED12CD0E0C0E068
:1011A0005801F1E1AF0EB11C81E0E81AF1080E948C
:1011B000B90AF5014591549160E070E080E090E05B
:1011C0000E942A0B912C692D70E06C157D05B4F4FA
:1011D0008D2F890DF801E80FF11DE80FF11D3196F3
:1011E00085919491FC013296459154916E5F7F4FA9
:1011F00080E090E00E942A0B9394E5CF912C82E04E
:10120000882E8C0E8D1A682D892D0E94F90C9394CE
:10121000EEE09E12F8CF0E94100D8C2E0C2E000CCA
:1012200099080E948E07882321F01C1614F4C150DF
:1012300041C00E947D07882329F08E149F0414F476
:10124000CF5F38C00E944A07882311F1C8018C0F74
:10125000911D8C0F911D0196FC0125913491F9018E
:1012600025913491232B31F1FC0125913491F90121
:101270003496E491E038F1F4FC0185919491FC01FD
:1012800085919491FC0185919491FC01099512C07E
:101290000E945B07882309F4C4CFDF91CF911F918F
:1012A0000F91FF90EF90DF90CF90BF90AF909F9005
:1012B0008F9008958D2F0D2E000C990B03962C2FD7
:1012C0000C2E000C330B821793070CF4DF5FCD1745
:1012D0000CF06DCFD1506BCF2F923F924F925F9217
:1012E0006F927F928F929F92AF92BF92CF92DF9236
:1012F000EF92FF920F931F93CF93DF935C01EB016B
:10130000542E422E3880642E712C86E4282EC22E54
:10131000D12CC618D7088881481608F448828881DD
:10132000851508F458820E94B90AA50161E070E0B1
:1013300086E090E00E942A0B4FEF64E086E00E9476
:10134000EC0B288130E026193709229EC001239E2C
:10135000900D1124B6010E94D22E4B0111E0812F75
:1013600090E08815990540F44FEF64E086E0810F26
:101370000E94EC0B1F5FF3CF163440F441E864E0A9
:1013800086E0810F0E94EC0B1F5FF6CF4FEF64E009
:101390008CE40E94EC0B0E94100D0E945B078823D6
:1013A000B1F03882832DF701DF91CF911F910F911A
:1013B000FF90EF90DF90CF90BF90AF909F908F9075
:1013C0007F906F905F904F903F902F9009940E9474
:1013D0004A07811111C00E949F07882319F0888154
:1013E000801B06C00E946C078823B9F28881800F99
:1013F0008883F70109958FCFDF91CF911F910F91CE
:10140000FF90EF90DF90CF90BF90AF909F908F9024
:101410007F906F905F904F903F902F9008958F92A4
:101420009F92BF92CF92DF92EF92FF920F931F9302
:10143000CF93DF93CDB7DEB7C055D1090FB6F8947F
:10144000DEBF0FBECDBF7B016A01FB01B0808E0104
:101450000F5F1F4F20E4F80111922A95E9F7BC01B4
:10146000C8010E947A316EE571E0C8010E94BF3167
:101470009E012F5B3F4FF901819391934F0101E052
:101480006EE571E080E090E00E94BF31F40181934D
:1014900091934F01892B19F00F5F083089F710E005
:1014A000015011090E94B90AF7018081FE01EF5B2A
:1014B000FF4FE80FF11DE80FF11D4081518163E0FE
:1014C00070E086E090E00E94F40AA60161E070E01E
:1014D00081E090E00E942A0B0E94100D0E945B07A1
:1014E000882319F0F701B0821CC00E944A078111BD
:1014F00018C00E949F07882331F0F701808188235C
:1015000011F0815080830E946C07882359F2F70103
:101510008081282F30E02017310724F68F5F8083E9
:10152000C1CFC05BDF4F0FB6F894DEBF0FBECDBF9B
:10153000DF91CF911F910F91FF90EF90DF90CF90AF
:10154000BF909F908F90089527E030E090E0AC012D
:10155000022E02C0559547950A94E2F740FF02C05B
:101560002A9A01C02A98299A29982150310978F796
:1015700008954BE552E026E080E090E0FA01E80FA4
:10158000F91F10820696883F31E09307B9F7215082
:101590004F5F5F4F2111F0CF08952B982D980E9437
:1015A000A40A2D9A089584B18E6384B985B1817C93
:1015B00085B92C9A2FEF81EE94E021508040904025
:1015C000E1F700C0000081E20E94CD0A84E10E94A0
:1015D000CD0A8FEB0E94CD0A80E20E94CD0A8CE0FA
:1015E0000E94CD0A0C94B90A1F93CF93DF9316E0A3
:1015F000FA012191AF01222349F120522F35C0F782
:10160000E6E02E9F90011124C0E0D0E084359105E2
:1016100024F06F5F7F4F80E090E066307105B4F496
:10162000F901EC0FFD1FE255FD4FE491189FD00129
:10163000199FB00D1124A55ABD4FA60FB71FEC93EB
:1016400001962196C630D10509F7D2CFDF91CF910F
:101650001F910895DF92EF92FF920F931F93CF9304
:10166000DF93EA0146E0FE012491222309F445C0FC
:10167000FE0154915D3009F440C0F6E05F9F900197
:101680001124E52FF0E0B0974E9F80014F9F100D81
:1016900011247901E6E0EE0EF11CDD24DA94D50E7A
:1016A000021B130B8435910524F06F5F7F4F80E0A0
:1016B00090E0663071050CF5F4E0FD1520F0F901BD
:1016C000E657FD4F07C05F3780F4F801E20FF31FC4
:1016D000E255FD4FE491489FD001499FB00D112480
:1016E000A55ABD4FA60FB71FEC9301962F5F3F4F32
:1016F0002E153F05B9F62196B6CFDF91CF911F91F8
:101700000F91FF90EF90DF900895282F880F330BF3
:10171000962F977840FF2FC067FD695F65956595A7
:101720006595062E000C770B86E0829FF001839F63
:10173000F00D1124E55AFD4FE60FF71F97FF03C088
:101740009150986F9F5F41E050E0DA0102C0AA0F0C
:10175000BB1F9A95E2F7CD0196E0929FA001939F5F
:10176000500D11249A01255A3D4FD901A60FB71FDC
:101770009C91892B2FC067FD695F6595659565957F
:10178000062E000C770B86E0829FF001839FF00D00
:101790001124E55AFD4FE60FF71F97FF03C0915044
:1017A000986F9F5F41E050E0DA0102C0AA0FBB1FB3
:1017B0009A95E2F7CD01809596E0929FA001939FC4
:1017C000500D11249A01255A3D4FD901A60FB71F7C
:1017D0009C9189238083089526E08202C001112410
:1017E000FC01E55AFD4FE60FF11D67FDFA954083B8
:1017F00008952F923F924F925F926F927F928F92B5
:101800009F92AF92BF92CF92DF92EF92FF920F938F
:101810001F93CF93DF93CDB7DEB72B970FB6F89416
:10182000DEBF0FBECDBF682E762E7A01222E102F7E
:1018300007FF02C017E0100F159515951595212F7C
:10184000012E000C330B3A832983372C412CC22CF8
:10185000022C000CDD08A62C062C000CBB08872DE2
:10186000072C000C990B99878887842D90E029819B
:101870003A81821793070CF04EC0342D222D23039A
:10188000900111243C832B8323E0880F991F2A9514
:10189000E1F7512C28853985280F391F3F832E8386
:1018A000E52DF0E0EC15FD0594F5C5018E0F9F1FA9
:1018B0008435910564F52B813C81E20FF31FEE0D19
:1018C000FF1DE491812C912C8E2F90E09B878A87BD
:1018D000962D950D9D838E819F81880D991DC097B2
:1018E000A4F44A855B85082C02C0559547950A9457
:1018F000E2F7632D680D8D810E94850B2FEF821A10
:10190000920A38E08316910431F75394C9CF439477
:1019100088E0380EAACF322D310310011124077848
:1019200007FF03C00150086F0F5F802E000F99085A
:1019300088E0189F50011124272D98E0199F200D51
:1019400011242983512C862D062C000C990B9C8385
:101950008B83072D770C110BE52DF0E0EC15FD05C1
:101960007CF58B819C818E0F9F1F8435910544F5FA
:10197000E20DF31DEE0DFF1DE491712C2E2F30E0D2
:101980003F832E83462C450C272D30E02815390542
:10199000ACF4C801820F931F8A0D9B1DC09774F48D
:1019A0004E815F8102C0559547952A95E2F769817E
:1019B000670D842D0E94850B7394E6CF5394CCCF92
:1019C0002B960FB6F894DEBF0FBECDBFDF91CF913F
:1019D0001F910F91FF90EF90DF90CF90BF90AF904D
:1019E0009F908F907F906F905F904F903F902F903F
:1019F0000895062E000C770B94E28902600D711D8C
:101A0000112480E090E0FC01E60FF71FE55AFD4F3E
:101A1000208120952083069684329105A1F70895B0
:101A2000EF92FF921F93CF93DF932B9A2D988BE524
:101A3000E82E82E0F82E16E0C0E0D0E0F701EC0FCF
:101A4000FD1F80810E94A40A2696C83F81E0D80726
:101A5000A9F711508FEFE81AF80A1111EDCF2D9A5E
:101A6000DF91CF911F91FF90EF900895CF93C82FF2
:101A7000823420F48D3218F4CDE201C0C1E481E259
:101A80000E94CD0A8C2F80680E94CD0A80E2CF91FF
:101A90000C94CD0A539AE0EBF0E08081836280835E
:101AA000E1EBF0E080818D61808384E68093B30078
:101AB0008093B4000895853608F084E694E6981B78
:101AC0009093B40008958F929F92AF92BF92CF925D
:101AD000DF92EF92FF92CF936B017C019B01AC01EF
:101AE0000E94F62D811136C046015701E894B7F8DF
:101AF0002FEF3FEF4FE75FE7C501B4010E94F62DDE
:101B0000811123C02FEF3FEF4FE75FE7C501B4011D
:101B10000E94232B1816CCF4C1E02FEF3FEF4FE7C4
:101B20005FE7C501B4010E94232B18160CF4C0E036
:101B300081E08C2790E02FEF3FE7829FB001839FE9
:101B4000700D929F700D112407C0C701B6010E944D
:101B50009A2B02C060E070E0CB01CF91FF90EF9034
:101B6000DF90CF90BF90AF909F908F9008952BE023
:101B7000FC0111922A95E9F729E1FC0120834183B8
:101B800052836383748308952BE0FC0111922A959C
:101B9000E9F72AE1FC0120837283618308952F9283
:101BA0003F924F925F926F927F928F929F92AF92ED
:101BB000BF92CF92DF92EF92FF920F931F93CF933A
:101BC000DF93CDB7DEB7C454D1090FB6F894DEBFAA
:101BD0000FBECDBF0E94B90A49E257E063E070E052
:101BE00080E090E00E942A0B0E94100D2FEF39E652
:101BF00088E1215030408040E1F700C000000E94A1
:101C0000052810E0C82E880FDD08F60131972596CB
:101C1000FFAFEEAF259732E2232E40901601509091
:101C200017019E012D5F3F4F23963FAF2EAF2397A5
:101C30000E945B078111E9C00E94B90A40E257E0A7
:101C400060E070E080E090E00E942A0B83E5E82EDF
:101C500084E0F82E92E0892E912C20E1322EA12CE6
:101C6000B12C612E012E000C7708AC14BD043CF0A1
:101C70000E94100D0E948E07811150C052C090E347
:101C80003916B1F3A701B40180E090E00E94F40A94
:101C9000F70180A1811103C042E858E002C048E882
:101CA00058E008E026E0632D88E40E94F90BF70174
:101CB00081A18B3A24F426E04CE758E013C095E567
:101CC000980F9A3028F408E026E046E758E00AC06A
:101CD000855B08E026E0843118F440E758E002C054
:101CE0004AE658E0632D8EE40E94F90B6A147B04E7
:101CF00061F0FFEFAF1ABF0A28E0320E32E2E30EC6
:101D0000F11C8FEF881A980AB0CF00E0682D802F61
:101D10000E94F90C0F5F0E30C9F7EBCF11160CF4CF
:101D200011500E947D07882361F0812F012E000C45
:101D3000990B2596EEADFFAD25978E179F070CF4F6
:101D40001F5F0E944A07882309F472CF0E94B90AD4
:101D500043E157E061E070E080E090E00E942A0BF0
:101D6000A12E012E000CBB082A9CC0012B9C900DBB
:101D700011249C012D5A3B4F7901A90162E070E0CA
:101D800080E090E00E94F40A44E057E064E070E0F4
:101D900080E090E00E942A0B0E94100D0E945B07D9
:101DA000811146CF0E944A078823C1F35A82498293
:101DB0002396EEADFFAD23972EE311922A95E9F716
:101DC0002A9CF0012B9CF00D1124ED5AFB4F80A1B1
:101DD000811110C040E250E063E971E0C7010E9448
:101DE000A83740E450E063E571E0CE0101960E941F
:101DF000A8370BC045EF56E060E4CE0101960E9483
:101E0000B007882309F414CFE5CFCC5BDF4F0FB6C2
:101E1000F894DEBF0FBECDBFDF91CF911F910F9120
:101E2000FF90EF90DF90CF90BF90AF909F908F90FA
:101E30007F906F905F904F903F902F900895CF9339
:101E4000DF93CDB7DEB7A0970FB6F894DEBF0FBE15
:101E5000CDBF40E250E063E971E0CE0101960E94FF
:101E60008A374AEE56E060E2CE0101960E94B00742
:101E7000882341F040E250E063E971E0CE01019631
:101E80000E94A837A0960FB6F894DEBF0FBECDBF54
:101E9000DF91CF910895CF93DF93CDB7DEB7C054D4
:101EA000D1090FB6F894DEBF0FBECDBF40E450E0BD
:101EB00063E571E0CE0101960E948A374BED56E052
:101EC00060E4CE0101960E94B007882341F040E40F
:101ED00050E063E571E0CE0101960E94A837C05C36
:101EE000DF4F0FB6F894DEBF0FBECDBFDF91CF91AD
:101EF0000895CF93DF93CDB7DEB7C054D1090FB6A5
:101F0000F894DEBF0FBECDBF40E450E063E171E066
:101F1000CE0101960E948A374DEC56E060E4CE0176
:101F200001960E94B007882341F040E450E063E14D
:101F300071E0CE0101960E94A837C05CDF4F0FB65A
:101F4000F894DEBF0FBECDBFDF91CF9108951F93F0
:101F5000CF93DF931F92CDB7DEB780E090E00E9471
:101F60009A3782958170898347E158E0BE016F5F9F
:101F70007F4F8CEB96E00E940F0A198180E090E081
:101F8000112341F00E949A3790E1199F900111248A
:101F9000822B02C00E949A378983698180E090E099
:101FA0000E94B8370F90DF91CF911F910895109242
:101FB000DB0480ED97E00C94B60881E08093DB04AD
:101FC00080ED97E00C94B6088BEE97E00C94B60881
:101FD0008FE997E00C94B608EF92FF920F93CF939E
:101FE000DF931F92CDB7DEB784ED91E00E949A3760
:101FF000898386E3E82E8DE0F82E01E021E44DE2AE
:10200000BE016F5F7F4F81EB96E00E946C09698192
:1020100084ED91E00E94B8370F90DF91CF910F913E
:10202000FF90EF900895EF92FF920F93CF93DF937D
:102030001F92CDB7DEB783ED91E00E949A37898376
:102040008BE5E82E8DE0F82E0AE024E640E0BE01A4
:102050006F5F7F4F87EA96E00E946C09698183ED8C
:1020600091E00E94B8370F90DF91CF910F91FF90D0
:10207000EF900895AF92BF92CF92DF92EF92FF92CE
:102080000F931F93CF93DF936C017B015A0102ECF6
:1020900011E0C0E0D0E0F80180819181FC01019065
:1020A0000020E9F73197E81BF90BEE15FF05F9F46D
:1020B000A701B6010E94DB31892BC9F4FFEFAF16EF
:1020C000BF0649F4CE01880F991FC80FD91FCE5300
:1020D000DE4F8A8113C0F8018281815021E030E017
:1020E000833010F020E030E0A216B30659F32196B9
:1020F0000D5F1F4FCB31D10571F680E0DF91CF919D
:102100001F910F91FF90EF90DF90CF90BF90AF9015
:102110000895CF92DF92EF92FF920F931F93CF9388
:10212000DF93EC01E8818E2F90E0FC013197EB31D9
:10213000F10508F0F7C1EC5CFF4F0C94082F898182
:102140009A810E9489109058FBC189819A810E94CE
:10215000891020E030E0A9010E94232B811118C0D2
:1021600060E070E080E89FE3EBC189819A810E9482
:1021700089106B017C0189819A810B960E948910DC
:102180009B01AC01C701B6010E94232B87FDE8CF5C
:1021900060E070E0CB01D4C189819A810E948910EE
:1021A0000E94630D8095909538C189819A810B9624
:1021B0000E9489106B017C0189819A810E9489109B
:1021C000A7019601DF91CF911F910F91FF90EF90A2
:1021D000DF90CF900C94A62D89819A810E9489105E
:1021E0006B017C0189819A810B960E9489109B0169
:1021F000AC01C701B6010E94392DA2C189819A8123
:102200000E9489106B017C0189819A810B960E9442
:1022100089109B01AC01C701B6010E94282B90C117
:1022200089819A810B960E9489106B017C018981BA
:102230009A810E948910A7019601DF91CF911F9189
:102240000F91FF90EF90DF90CF900C94182C898124
:102250009A810E9489106B017C0189819A810B9679
:102260000E9489109B01AC01C701B6010E94B72AE8
:1022700067C189819A810E9489106B017C018981E3
:102280009A810B960E9489109B01AC01C701B6018F
:102290000E94B62A55C189819A810E9489100E94A4
:1022A000630D8C0189819A810B960E9489100E948E
:1022B000630DB80102C0660F771F8A95E2F714C05C
:1022C00089819A810E9489100E94630D8C01898105
:1022D0009A810B960E9489100E94630DB80102C07A
:1022E000759567958A95E2F7072E000C880B990B78
:1022F00098C089819A810E9489106B017C01898133
:102300009A810B960E9489109B01AC01C701B6010E
:102310000E94232B18160CF023CF3ACF89819A8183
:102320000E9489106B017C0189819A810B960E9421
:1023300089109B01AC01C701B6010E94E42C18165C
:102340000CF40ECF25CF89819A810E9489106B01F0
:102350007C0189819A810B960E9489109B01AC01B6
:10236000C701B6010E94E42C87FFFACE11CF898104
:102370009A810E9489106B017C0189819A810B9658
:102380000E9489109B01AC01C701B601E5CE89818D
:102390009A810E9489106B017C0189819A810B9638
:1023A0000E9489109B01AC01C701B6010E94232B3A
:1023B0008111D6CEEDCE89819A810E9489100E942A
:1023C000630D8C0189819A810B960E9489100E946D
:1023D000630D8023912321C089819A810E948910F5
:1023E0000E94630D8C0189819A810B960E9489104D
:1023F0000E94630D802B912B10C089819A810E94CD
:1024000089100E94630D8C0189819A810B960E942C
:1024100089100E94630D80279127BC01990F880BBA
:10242000990B0E94D22B8CC089819A810E948910BD
:1024300020E030E0A9010E94232B882309F4A8CED4
:1024400016C089819A810E9489107B018C0120E04D
:1024500030E0A9010E94232B882349F09701A801AD
:10246000B701C8010E94F62D882309F460C0898154
:102470009A810B960E9489108B01D82FC92F20E0DA
:1024800030E0A9010E94232B882309F481CEC801E2
:10249000AD2FBC2F53C089819A810B960E94891061
:1024A000F62FE72F382F292FA981BA818C918A31F5
:1024B00009F040C011960D90BC91A02D4F2F5E2FBA
:1024C000632F722F4D935D936D937C93139732C05E
:1024D00089819A810E9489100980DA81C02D2B960A
:1024E00021CE69817A818B819C812AC0E981FA8120
:1024F000608171818281938123C089819A8149851C
:102500005A85BE016D5F7F4FDC011296ED91FC9103
:102510001397DF91CF911F910F91FF90EF90DF9074
:10252000CF90099460E070E080EC9FE709C0C7019C
:10253000D80104C08F2F9E2FA32FB22FBC01CD0135
:10254000DF91CF911F910F91FF90EF90DF90CF908F
:102550000895FB01808191810E9489100C94F12CD7
:102560000F931F93CF93DF938B01C82FD0E0AE0161
:1025700061EA76E0C8010E948A31892B21F48091BA
:10258000500282600BC0AE0165E976E0C8010E948E
:102590008A31892B29F48091500281608093500206
:1025A000DF91CF911F910F910895CF92DF92EF921B
:1025B000FF920F931F93CF93DF93CDB7DEB72B9787
:1025C0000FB6F894DEBF0FBECDBF8C01DC018C913D
:1025D0008B3109F04CC015968D919C911697181669
:1025E00019060CF5E12CF12CC12CD12CF8018581B8
:1025F0009681C816D906BCF40380F481E02DEE0D57
:10260000FF1D8BE0DE01119601900D928A95E1F796
:10261000CE0101960E94D512FFEFCF1ADF0A8BE0A0
:10262000E80EF11CE3CFD80113968D919C9114977D
:102630000E94F62FF80114821382108617821682E8
:102640001582618572856115710509F44AC0818121
:102650009281DC011496ED91FC911597309709F069
:102660000995F801818592850E94F62F3AC089511B
:102670008230B8F1D80113968D919C911497181659
:1026800019060CF5E12CF12CC12CD12CF801838119
:102690009481C816D906BCF40180F281E02DEE0DBC
:1026A000FF1D8BE0DE01119601900D928A95E1F7F6
:1026B000CE0101960E94D512FFEFCF1ADF0A8BE000
:1026C000E80EF11CE3CFD80111968D919C911297E1
:1026D0000E94F62FF801128211821682158214824E
:1026E00013822B960FB6F894DEBF0FBECDBFDF91DD
:1026F000CF911F910F91FF90EF90DF90CF900895B1
:10270000EF92FF920F931F93CF93DF93FA01C08153
:10271000D1816C177D07ECF0209719F0CC0FDD1FED
:1027200002C0C1E0D0E08A017C01C29FB001C39F1A
:10273000700DD29F700D1124FC01808191810E9447
:102740007F30009749F0F70191838083F801D183AE
:10275000C08380E090E002C08FEF9FEFDF91CF91C8
:102760001F910F91FF90EF9008958F929F92AF92DB
:10277000BF92CF92DF92EF92FF920F931F93CF936E
:10278000DF93CDB7DEB766970FB6F894DEBF0FBE06
:10279000CDBF4C01AC86BD86CE86DF86E88AF98A3D
:1027A0000A8B1B8B2C8B3D8B4E8B8BE0F82E8E0176
:1027B0000F5F1F4FF8018F2D11928A95E9F76983FA
:1027C0002BE030E0AE014A5F5F4F60E070E0CE0189
:1027D00002960E948013892BB1F4AA81BB812C81BF
:1027E0003D81C90101969D838C83F29EC001F39EB9
:1027F000900D1124A80FB91F8BE0FE013C960190AB
:102800000D928A95E1F76C817D812BE030E0AE017D
:102810004A5F5F4FCE0102960E948013892BB1F46C
:10282000AA81BB814C815D81CA0101969D838C8305
:102830008BE0849F9001859F300D1124A20FB31F60
:10284000FE01B59601900D928A95E1F78BE0F801B3
:10285000D40101900D928A95E1F7C40166960FB6F6
:10286000F894DEBF0FBECDBFDF91CF911F910F91C6
:10287000FF90EF90DF90CF90BF90AF909F908F90A0
:102880000895DF92EF92FF920F931F93CF93DF9300
:10289000CDB7DEB7A1970FB6F894DEBF0FBECDBFA0
:1028A0008A014FEF5FEF0E943A10882309F407C1B5
:1028B000D80112962D913C9113979FEF980F93306A
:1028C00008F050C0121613060CF0F9C0D801ED91B3
:1028D000FC9111972150310913963C932E93129736
:1028E0009BE0D92ED29EA001D39E500D1124E40F5F
:1028F000F51FDE011C969D2D01900D929A95E1F732
:10290000FE0131967F01DF01ED2D1D92EA95E9F779
:1029100089832BE030E0AE014A5F5F4F60E070E0FA
:10292000CE0102960E948013892BB1F4AA81BB814B
:102930002C813D81C90101969D838C83D29EC0016B
:10294000D39E900D1124A80FB91F8BE0FE013C9679
:1029500001900D928A95E1F7D80112966D917C91C4
:1029600013978AC0223031050CF4A9C0D801ED902C
:10297000FC901197B9016150710913967C936E9385
:1029800012979BE0969FA001979F500D1124F7018D
:10299000E40FF51FDE015796692F01900D926A959D
:1029A000E1F722503109F801338322834B5051095A
:1029B0009701240F351FF901DE011C96492F019064
:1029C0000D924A95E1F7D901DC90FE0131967F0125
:1029D000DF011D929A95E9F78983873119F4BAE1ED
:1029E000DB126DC02BE030E0AE014A5F5F4F60E06C
:1029F00070E0CE0102960E948013892BB9F4AA815F
:102A0000BB814C815D81CA0101969D838C83DC86EC
:102A10008BE0849F9001859F300D1124A20FB31F7E
:102A2000FE013C9601900D928A95E1F76C817D81C3
:102A30002BE030E0AE014A5F5F4FCE0102960E946C
:102A40008013892BB1F4AA81BB814C815D81CA01BD
:102A500001969D838C838BE0849F9001859F300D30
:102A60001124A20FB31FFE01779601900D928A9553
:102A7000E1F7F801628173812BE030E0A8014C5F3F
:102A80005F4FC8010E948013892BB1F4F801A08127
:102A9000B18142815381CA010196938382838BE085
:102AA000849F9001859F300D1124A20FB31FF70161
:102AB00001900D928A95E1F780E090E002C08FEFDF
:102AC0009FEFA1960FB6F894DEBF0FBECDBFDF918A
:102AD000CF911F910F91FF90EF90DF9008953F925B
:102AE0004F925F926F927F928F929F92AF92BF921E
:102AF000CF92DF92EF92FF920F931F93CF93DF93CA
:102B0000CDB7DEB766970FB6F894DEBF0FBECDBF68
:102B10008C017B01DB018C91F80180838C918B31DE
:102B200009F07DC011968D919C91129792838183BB
:102B300015968D919C911697181619060CF05CC08D
:102B4000A12CB12CC12CD12C9BE0392ECE010196A9
:102B50004C01280197E0490E511C3801A3E06A0E90
:102B6000711CD70115968D919C911697C816D906A0
:102B70000CF042C01396ED91FC911497EA0DFB1DE9
:102B80008BE0DE011C9601900D928A95E1F7F4012D
:102B9000832D11928A95E9F7BE01645F7F4FC401CE
:102BA0000E946F15D80115966D917C9116972BE0B8
:102BB00030E0A201C3010E948013892BB1F4F80117
:102BC000A381B48125813681C901019696838583CD
:102BD000329EC001339E900D1124A80FB91F8BE0C7
:102BE000F40101900D928A95E1F7FFEFCF1ADF0A09
:102BF0008BE0A80EB11CB5CFD7011196ED91FC91D9
:102C00001297668177816115710509F484C081E0AE
:102C100090E00E94222FF801928781877CC0893141
:102C200059F4FB0181819281A381B481F8018183F0
:102C30009283A383B4836FC0DB018A3141F4119680
:102C40008D919C911297F8019283818364C01396B1
:102C50008D919C911497181619060CF05CC0A12C4C
:102C6000B12CC12CD12C8BE0382EFE0131964F01B6
:102C70002801F5E04F0E511C38018FEF681A780AD1
:102C8000D70113968D919C911497C816D9060CF014
:102C900042C01196ED91FC911297EA0DFB1D8BE05D
:102CA000DE011C9601900D928A95E1F7F401832DC7
:102CB00011928A95E9F7BE01645F7F4FC4010E94BB
:102CC0006F15D80113966D917C9114972BE030E02D
:102CD000A201C3010E948013892BB1F4F801A181E4
:102CE000B28123813481C901019694838383329E0A
:102CF000C001339E900D1124A80FB91F8BE0F40181
:102D000001900D928A95E1F7FFEFCF1ADF0A8BE071
:102D1000A80EB11CB5CF66960FB6F894DEBF0FBEF5
:102D2000CDBFDF91CF911F910F91FF90EF90DF907A
:102D3000CF90BF90AF909F908F907F906F905F905B
:102D40004F903F900895CF92DF92EF92FF920F93B2
:102D50001F93CF93DF937C014115510509F44DC0BA
:102D6000FB019081903430F09E3509F446C09C37C9
:102D700021F443C0943209F040C0EA016B01F7012D
:102D80000081118101151105B1F0C8010696FC0101
:102D900001900020E9F73197E81BF90BCE17DF0708
:102DA00031F4AE01B6010E94DB31892B21F1F8012B
:102DB00004811581E7CFBE01695F7F4F81E090E01C
:102DC0000E94222F8C01892BC1F0F7018081918113
:102DD000F801958384831082118212821382AE01DE
:102DE000B601C80106960E94E931C00FD11F1E82AC
:102DF000F70111830083C80102C080E090E0DF91F9
:102E0000CF911F910F91FF90EF90DF90CF90089599
:102E1000EF92FF920F931F93CF93DF938C017B016F
:102E2000C6E0D1E088819981009791F0FC01019082
:102E30000020E9F73197E81BF90BEE15FF0531F497
:102E4000A701B8010E94DB31892B29F02896EACF2F
:102E500080E090E001C0CE01DF91CF911F910F91F2
:102E6000FF90EF900895CF93DF93CDB7DEB7C054B6
:102E7000D1090FB6F894DEBF0FBECDBF0E94B90ACC
:102E800048E856E060E070E080E090E00E942A0BA5
:102E90000E94100D0E94A827813039F058F082302E
:102EA00009F083C04BE656E002C049E756E061E016
:102EB00070E077C040E656E061E070E080E090E0CE
:102EC0000E942A0B0E94100D2FEF89E698E12150F5
:102ED00080409040E1F700C0000040E250E063E92C
:102EE00071E083E594E00E948A3740E450E063E5B6
:102EF00071E0CE0101960E948A37BE016F5F7F4F5D
:102F000083E594E00E948E28811147C043E556E096
:102F100062E070E080E090E00E942A0B0E94100DB9
:102F200040E450E063E171E0CE0101960E948A37EF
:102F300081E191E00E94A237BC01CE0101960E947E
:102F4000EA28811125C085E496E00E944E292FEFE2
:102F500089E698E1215080409040E1F700C00000F0
:102F600080EB92E10E94522A8091500280FF0DC0B6
:102F700048E356E063E070E080E090E00E942A0BB6
:102F800045E356E064E070E00CC046E256E002C063
:102F90004AE156E063E070E004C04CE056E062E0D5
:102FA00070E080E090E00E942A0B0E94100D2FEF4D
:102FB00083ED90E3215080409040E1F700C0000095
:102FC000C05CDF4F0FB6F894DEBF0FBECDBFDF9100
:102FD000CF9108952F923F924F925F926F927F927E
:102FE0008F929F92AF92BF92CF92DF92EF92FF9219
:102FF0000F931F93CF93DF93CDB7DEB7CF5AD1098D
:103000000FB6F894DEBF0FBECDBF0E94DA060E9455
:10301000D30A0E944A0D84ED91E00E949A370E94E3
:10302000360D83ED91E00E949A370E945B0D0E945D
:10303000E40442E056E062E070E080E090E00E944C
:103040002A0B0E94100D2FEF37EA81E62150304005
:103050008040E1F700C00000CD57DF4F1982188291
:10306000C358D040DE01A758BF4FC057DF4FB983C8
:10307000A883C059D040EB961FAE1EAEEB97ED96DD
:103080001FAE1EAEED97EF961FAE1EAEEF971E0160
:10309000B3E72B0E311CF1011182108213821282D0
:1030A00015821482AF961FAE1EAEAF97E1961FAE8B
:1030B0001EAEE197E3961FAE1EAEE3973C971182DA
:1030C000108213821282158214822AE130E0CC56DB
:1030D000DF4F39832883C459D040612C712CA12C37
:1030E000B12CC856DF4F19821882C859D0408AE0E7
:1030F00090E0CA56DF4F99838883C659D04020E6B6
:10310000822E21E0922ED1011496C256DF4FB98350
:10311000A883CE59D040E9E7F0E0EC0FFD1F3496CC
:10312000C056DF4FF983E883C05AD04027E630E02D
:103130002C0F3D1F2C5F3F4FCC55DF4F3983288329
:10314000C45AD0408DE590E08C0F9D1F0896CA555B
:10315000DF4F99838883C65AD04080915601909161
:103160005701A0915801B0915901C855DF4F88838C
:103170009983AA83BB83C85AD04080915A01909109
:103180005B01A0915C01B0915D01C455DF4F888364
:103190009983AA83BB83CC5AD040CA56DF4FA881FB
:1031A000B981C659D040AB2B09F494C1F401F08029
:1031B000F982F3E2FF1213C0F40100E010E0819104
:1031C0008A3009F498C10F5F1F4FCA56DF4F28811C
:1031D0003981C659D0402017310789F769C03AE0D4
:1031E000F31243C0740100E010E0D7018D917D011E
:1031F00090E00E946331892B89F00F5F1F4FCA5600
:10320000DF4F88819981C659D0408017910769F7AF
:10321000CA56DF4F08811981C659D040CC56DF4FBE
:10322000B881C459D040B0FF66C1CA56DF4FE881AB
:10323000F981C659D040E017F10731F0F401E00FF1
:10324000F11F8081893271F4CC56DF4F288139819A
:10325000C459D0402F7BCC56DF4F39832883C459C3
:10326000D04049C18AE590E044C00F2D10E0C8016C
:103270000E946331892B19F1740100E010E0F7011D
:10328000D1907F018D2D90E00E946331892B09F44C
:1032900032C1FAE0DF1609F42EC10F5F1F4FCA5684
:1032A000DF4FA881B981C659D040A017B10739F7BF
:1032B000CA56DF4F08811981C659D0401CC100533E
:1032C00011090A30110558F5CC56DF4F2881C45931
:1032D000D04023FF02C1F401319600E010E03EE24D
:1032E000F31671F08F2D90E0C0970A9748F085E0B3
:1032F00090E0CC56DF4F99838883C459D040FBC0FF
:10330000CA56DF4FA881B981C659D040A017B1076E
:1033100021F00F5F1F4FF190E2CF8D01E8CFBFE3A7
:10332000BF1538F4EEE5FE16E1F1FCE7FF1204C02C
:1033300038C024E2F21235C0CC56DF4F3881C45970
:10334000D04034FFCDC0F401319600E010E08FE3AF
:103350008F1538F49EE5F91641F0ACE7FA1212C069
:1033600004C08DED8F0D823068F080ED8F0D8A30B6
:1033700048F0E7E0F0E0CC56DF4FF983E883C4592A
:10338000D040B9C0CA56DF4F28813981C659D040D4
:103390002017310721F00F5F1F4FF190D8CF89011F
:1033A000E8CF88ED8F0D823018F538E2F31210C0A7
:1033B000CC56DF4F8881C459D04081FF94C0AEE124
:1033C000B0E0CC56DF4FB983A883C459D04033C096
:1033D000CC56DF4FB881C459D040B2FF84C0E5E07D
:1033E000F0E0CC56DF4FF983E883C459D04023C0C6
:1033F000CC56DF4FF881C459D040F0FF09C02401FA
:103400002FEF421A520AE12CF12C00E010E044C0E8
:1034100041E050E061E070E0CE0101960E943A1078
:10342000882309F463C08AE390E0CC56DF4F998388
:103430008883C459D04001E010E05DC02EE5D2126F
:1034400030C080ED8D0D8A3078F18D2D90E00E9496
:103450006331892B49F588ED8D0D823028F1CA56EC
:10346000DF4F88819981C659D0408017910781F13B
:1034700068019FEFC91AD90A40E050E0B601C401C3
:103480000E943A10811120C0E114F10479F4F20194
:1034900081912F0189838601D980FFE3FD1578F49E
:1034A000CDCF3CE7D31669F2EF2819F1AAE1B0E0DD
:1034B000CC56DF4FB983A883C459D0401CC08DEDD2
:1034C0008D0D823088F3BDCFEE24E394F12CDFCF55
:1034D0008C01EACF00E010E00EC00FEF1FEF0BC031
:1034E0000EEF1FEF08C00DEF1FEF05C00CEF1FEF31
:1034F00002C00BEF1FEF0115110509F4E8C617FD17
:10350000A5C7D401A00FB11FCE55DF4FB983A88343
:10351000C25AD040CA56DF4FE881F981C659D0401F
:10352000E01BF10BCA56DF4FF983E883C659D04040
:10353000D4018C91833239F4CE55DF4F8880998045
:10354000C25AD0402ACECC56DF4FB881C459D040A1
:10355000B5FF1AC001301105B9F48D3279F08E35FE
:1035600041F0813209F072C701E7802E01E0902E10
:1035700009C08EE6882E81E0982E04C01BE6812EBD
:1035800011E0912E02E010E0F40180818A30D1F444
:10359000CC56DF4FF881C459D040F6FF13C0CC564B
:1035A000DF4F28813981C459D0402F7BCC56DF4F63
:1035B00039832883C459D040B4E78B2EB1E09B2EC9
:1035C00001E010E0D401BC91CE56DF4FB883C25960
:1035D000D0408B2F90E00E946331892B09F0ACCF53
:1035E000A114B10409F48CC001301105C1F5CE5607
:1035F000DF4FE881C259D040E83289F5AB96CEACB6
:10360000DFACAB971C141D040CF001C7A996EEACFF
:10361000FFACA99700E010E0D7018D919C91FC01CF
:1036200001900020E9F73197E81BF90BAE16BF06B1
:1036300069F4A501C856DF4F68817981C859D04027
:103640000E94DB31892B11F40C9467250F5F1F4F0B
:10365000F8E0EF0EF11CC016D106F1F6D8C6A501B0
:10366000C856DF4F68817981C859D040CE018D5747
:103670009F4F0E94A3166C01892BE1F1ED966EAD70
:103680007FADED972BE030E049E750E04C0F5D1F38
:103690004C5F5F4FCE0187589F4F0E948013892B4C
:1036A00031F5EB96EEACFFACEB97ED968EAD9FADA2
:1036B000ED979C012F5F3F4FED963FAF2EAFED97FB
:1036C000FBE0BF2EB89E9001B99E300D1124E20E92
:1036D000F31EB601CE018B579F4F0E94C40DFE0111
:1036E000EB57FF4FD70101900D92BA94E1F7E2E05A
:1036F0006E2E712CC856DF4F19821882C859D040DF
:103700000130110509F0F7C3CE56DF4F3881C25999
:10371000D0403832C1F56114710409F097C6E796BC
:103720006EAD7FADE79724E030E043E750E04C0F0B
:103730005D1F4C5F5F4FC1010E948013892B09F010
:10374000AFC5E596EEADFFADE597E7968EAD9FADC3
:10375000E7979C012F5F3F4FE7963FAF2EAFE7976C
:10376000880F991F880F991FE80FF91FC855DF4F61
:1037700088819981AA81BB81C85AD0408083918376
:10378000A283B3838DC5CE56DF4F9881C259D040F6
:10379000993209F0B0C3E1962EAD3FADE197121614
:1037A000130684F44AE0429FC001439F900D112408
:1037B000AF96EEADFFADAF97E80FF91F3A970081D6
:1037C000118128C000E010E025C0E5962EAD3FAD88
:1037D000E597FC01E150F04CEE0FFF1FEE0FFF1FCD
:1037E000E20FF31FA081B1812C912832D1F02B3749
:1037F000C1F00197E7969FAF8EAFE7976281738123
:10380000AE0147585F4F808191810E94411401961B
:1038100009F41CC6E7968EAD9FADE7970817190708
:10382000A4F2009709F412C6D101ED91FC91119711
:103830009C012150310913963C932E931297220F2D
:10384000331F220F331FDF01A20FB31F4D915C9175
:10385000119712966D917C9113976130710509F063
:1038600005C4DA014C914B3709F000C40297D1012D
:1038700013969C938E93129724503109E20FF31FF5
:103880004080518062807380AF96EEADFFADAF9700
:10389000E1968EAD9FADE1970197E1969FAF8EAF18
:1038A000E1972AE0289FA001299F500D1124E40FE1
:1038B000F51FDE01A35ABF4F01900D922A95E1F743
:1038C000ED962EAD3FADED97A1968EAD9FADA19734
:1038D000821793070CF043C0A5966EAD7FADA597F8
:1038E0002BE030E0CA55DF4F48815981C65AD0409D
:1038F0008DE590E08C0F9D1F04960E948013892B0C
:1039000071F5A396AEADBFADA397A5964EAD5FADD5
:10391000A597CA010196A5969FAF8EAFA597EB9686
:103920006EAD7FADEB97ED968EAD9FADED970197A8
:10393000ED969FAF8EAFED971BE0149F9001159F02
:10394000300D1124A20FB31F189FF001199FF00D25
:103950001124E60FF71F01900D921A95E1F7B1E0DF
:103960006B16710409F09EC0F2018081843209F067
:1039700099C0A5962EAD3FADA597A3968EAD9FADF0
:10398000A3971216130624F4DC012C912A3119F0A6
:103990000E94F62F5BC5CD57DF4FE881F981C358F0
:1039A000D040309709F44FC0DC0111962D913C9125
:1039B0001297E217F30709F042C08F010A5F1F4F09
:1039C00086E0EDE5F0E0EC0FFD1F3496DE01139686
:1039D00001900D928A95E1F7AB966EAD7FADAB97F6
:1039E00028E030E0CC55DF4F48815981C45AD0409F
:1039F000CE0189599F4F0E948013892B21F5A996EA
:103A0000AEADBFADA997AB968EAD9FADAB979C0108
:103A10002F5F3F4FAB963FAF2EAFAB971A83098313
:103A200023E0880F991F2A95E1F7A80FB91F88E0B6
:103A3000FE01319601900D928A95E1F704C0048051
:103A4000F581E02DAECFED966EAD7FADED972BE01D
:103A500030E0C056DF4F48815981C05AD040CE0176
:103A600087589F4F0E948013892B09F0FFC2EB9665
:103A70000EAD1FADEB97ED962EAD3FADED97C901A5
:103A80000196ED969FAF8EAFED979BE0F92EF29EDB
:103A9000C001F39E900D1124080F191F40E050E063
:103AA000BA01D7C2AB968EAC9FACAB971814190471
:103AB0000CF0C2C1A996AEACBFACA99765010FEFDF
:103AC0001FEFE12CF12CD6018D919C91FC0101900E
:103AD0000020E9F73197E81BF90B6E167F0639F4E1
:103AE000A301B2010E94DB31892B09F48701BFEFEA
:103AF000EB1AFB0AE8E0CE0ED11C8E149F0419F7D6
:103B00000F3FBFEF1B0709F497C183E0000F111FA0
:103B10008A95E1F7F501E00FF11F22813381C45648
:103B2000DF4F39832883CC59D04084819581C65694
:103B3000DF4F99838883CA59D04040E050E0BA01F2
:103B4000CE018E5A9F4F0E94B70DCE56DF4F19827D
:103B50001882C259D040412C512CDE01AE5ABF4FC1
:103B60004D013E01BFE76B0E711CA5968EAD9FAD5A
:103B7000A597481659060CF0A0C0EFEF4E1A5E0A42
:103B80005F924F9226E731E03F932F931F9293E08D
:103B90009F937F926F920E946232F3010190002006
:103BA000E9F73197AF0146195709B301CE018D5797
:103BB0009F4F0E94A316BC01CE0181960E94C40DA6
:103BC000A396EEADFFADA397CE56DF4FA881B98186
:103BD000C259D040EA0FFB1F2DB73EB72B50310919
:103BE0000FB6F8943EBF0FBE2DBFADB7BEB711964E
:103BF0008BE001900D928A95E1F7A9A0BAA0CBA025
:103C0000DCA0EDA0FEA00FA118A529A53AA54BA503
:103C100067E1CE0101960E94B51340E050E0BA0181
:103C2000CE01895B9F4F0E94B70D8DB79EB70B9752
:103C30000FB6F8949EBF0FBE8DBFADB7BEB711963D
:103C40008BE0FE01E95BFF4F01900D928A95E1F751
:103C5000A980BA80CB80DC80ED80FE800F81188542
:103C600029853A854B8568E1CE018B579F4F0E948D
:103C7000B5138BE0FE01EB57FF4FD40101900D927D
:103C80008A95E1F7D40111968D909C901297BBE034
:103C90008B0E911CCE56DF4FE881F981C259D0407E
:103CA0003B96CE56DF4FF983E883C259D0400FB61A
:103CB000F894DEBF0FBECDBF58CFC456DF4F68802B
:103CC0007980CC59D0403BE0630E711C442443946E
:103CD000512CC656DF4F88819981CA59D04001972F
:103CE000CE56DF4F99838883C259D040C656DF4FE6
:103CF00028813981CA59D040421653060CF065C05C
:103D0000CE56DF4FA881B981C259D0404A165B0612
:103D10000CF048C040E050E0BA01CE01CC960E94C1
:103D2000B70D40E050E0BA01CE01C1960E94B70D38
:103D3000EDB7FEB73B970FB6F894FEBF0FBEEDBFD1
:103D4000ADB7BEB711968BE0FE01FC9601900D92C7
:103D50008A95E1F7A9A8BAA8CBA8DCA8EDA8FEA887
:103D60000FA918AD29AD3AAD4BAD68E1CE018B5727
:103D70009F4F0E94B5138BE0FE01EB57FF4FD4011C
:103D800001900D928A95E1F7B301D40111968D91BE
:103D90009C9112970E946F150FB6F894DEBF0FBE6C
:103DA000CDBF04C0B301C4010E946F15D4011196A8
:103DB0008D909C901297BBE08B0E911CEFEF4E1AEA
:103DC0005E0AFBE06F0E711C91CFED966EAD7FAD7C
:103DD000ED972BE030E049E750E04C0F5D1F4C5F62
:103DE0005F4FCE0187589F4F0E948013892BE9F4C3
:103DF000EB96AEADBFADEB97ED964EAD5FADED97EB
:103E0000CA010196ED969FAF8EAFED978BE0849F30
:103E10009001859F300D1124A20FB31FFE01EE5AB1
:103E2000FF4F01900D928A95E1F7A3968EAD9FAD5D
:103E3000A3970E94F62F1AC1B301C2010E9408176E
:103E40007C018E010F5F1F4F8BE0D8011D928A9578
:103E5000E9F786E0EDE5F0E0EC0FFD1F3496DE01BA
:103E6000149601900D928A95E1F7F70166817781AA
:103E70006115710541F081E090E00E94222F6C01F4
:103E8000892B19F4E3C2C12CD12CED966EAD7FAD18
:103E9000ED972BE030E0C056DF4F48815981C05A82
:103EA000D040CE0187589F4F0E948013892B09F084
:103EB000DDC0EB96AEADBFADEB97ED964EAD5FAD11
:103EC000ED97CA010196ED969FAF8EAFED978BE10E
:103ED0008983FB82EA82DB86CA868BE0849F90011D
:103EE000859F300D1124A20FB31FF80101900D9290
:103EF0008A95E1F7BBC05801C656DF4F9982888288
:103F0000CA59D040412C512C3201E12CF12CC12C4A
:103F1000D12CC656DF4FA881B981CA59D0406D91C6
:103F2000C656DF4FB983A883CA59D0406E3219F400
:103F3000C114D104A9F1E62FF0E0C456DF4FF98394
:103F4000E883CC59D040CF01C0970A9708F092C0BF
:103F5000FFEFEF1AFF0AC114D10419F02FEFC21AB4
:103F6000D20A20E030E040E251E4C301B2010E94F5
:103F7000392D2B013C01C456DF4F68817981CC5922
:103F8000D04060537109072E000C880B990B0E94DA
:103F9000D22BA30192010E94B72A2B013C0103C03E
:103FA000CC24C394D12CC656DF4F88819981CA593D
:103FB000D040881999098017910708F4AACF82E0A8
:103FC000C816D10470F020E030E040E251E4C301B3
:103FD000B2010E94282B2B013C0131E0C31AD10809
:103FE000EECFEF2809F446C0A3019201C301B2014C
:103FF0000E94F62D81113EC0ED966EAD7FADED971E
:104000002BE030E049E750E04C0F5D1F4C5F5F4F05
:10401000CE0187589F4F0E948013892B39F5EB966C
:104020000EAD1FADEB97ED968EAD9FADED979C015C
:104030002F5F3F4FED963FAF2EAFED97FBE0FF2E8A
:10404000F89E9001F99E300D1124020F131FB30149
:10405000A201CE018B579F4F0E94B70DFE01EB5777
:10406000FF4FD80101900D92FA94E1F7E2E06E2E35
:10407000712C16C14FEF5FEFB801C4010E943A10D6
:10408000882309F410C1E796EEADFFADE7971E1641
:104090001F068CF4E150F04CEE0FFF1FEE0FFF1FD8
:1040A000E5962EAD3FADE597E20FF31FC080D180BE
:1040B000A280B38004C0A12CB12CC12CD12C7724B8
:1040C0007A94780EE82EF12C59EE652E680EC70111
:1040D000880F991FDC01AD5EBD4F7D0101301105D8
:1040E00009F088C0CE56DF4FB881C259D040BC32EB
:1040F00009F080C0D1011296ED91FC9113971E1624
:104100001F060CF077C0E150F04CEE0FFF1FEE0FD2
:10411000FF1F8D919C91E80FF91FA081B1818281D1
:104120009381019709F066C08C918B3709F062C0CA
:10413000EB96EEADFFADEB97ED968EAD9FADED97A7
:104140000197ED969FAF8EAFED971BE0189F900102
:10415000199F300D1124E20FF31FDE011196812FFC
:1041600001900D928A95E1F7E1962EAD3FADE19772
:104170000AE0029FC001039F900D11240A97AF9699
:104180002EAD3FADAF97820F931FAC01485F5F4FDD
:10419000FC01668177812BE030E004960E94801359
:1041A000892B09F07BC0E1968EAD9FADE197089F0A
:1041B000F001099FF00D11243A97AF968EAD9FAD97
:1041C000AF97E80FF91FA481B58126813781C90116
:1041D000019697838683129FC001139F900D11242F
:1041E000A80FB91F8BE0FE01319601900D928A95C0
:1041F000E1F754C04FEF5FEFB501C6010E943A10DE
:10420000882319F190E0F3E0F71588F4B4E0B615CF
:1042100070F4FC01EE0FFF1FED5EFD4FD7012D91F5
:104220003C9140815181241735070CF06EC3880FF3
:10423000991FFC01ED5EFD4FD7018D919C9120816E
:104240003181281739070CF460C3F1016281738151
:1042500024E030E0C256DF4F48815981CE59D0402A
:10426000C1010E948013892BC9F4D101ED91FC9109
:10427000119712968D919C9113979C012F5F3F4F40
:1042800013963C932E931297880F991F880F991FAE
:10429000E80FF91F9182808213830283612C712CB5
:1042A000A12CB12C49C9CE56DF4FB881C259D0409C
:1042B0008B2F90E0C0970A9708F4C8C0C856DF4F0C
:1042C00099828882C859D040612C712C35C9A114BB
:1042D000B10409F464C049E750E04C0F5D1F4C5F26
:1042E0005F4FED966EAD7FADED972BE030E0CE01E8
:1042F00087589F4F0E948013892B09F050C0EB967E
:10430000EEACFFACEB97ED962EAD3FADED97C9014E
:104310000196ED969FAF8EAFED971BE0129FC00107
:10432000139F900D1124E80EF91EA501C856DF4F0A
:1043300068817981C859D040CE018D579F4F0E9426
:10434000A316BC01CE018B579F4F0E94C40DFE01E6
:10435000EB57FF4FD70101900D921A95E1F71FC05F
:10436000E596EEADFFADE5970197E7969FAF8EAF6F
:10437000E797880F991F880F991FE80FF91FA081F1
:10438000B181628173816130710589F0AE01475856
:104390005F4FCD010E944114019609F457C0E79682
:1043A0008EAD9FADE79718161906D4F205C09C9103
:1043B0009852923058F74AC06BE070E081E090E08C
:1043C0000E94222F8C01892B09F440C0ED968EADFE
:1043D0009FADED97009721F489E1D8018C9338C007
:1043E000EB96EEADFFADEB970197ED969FAF8EAFDD
:1043F000ED972BE0289FA001299F500D1124E40F79
:10440000F51FD80101900D922A95E1F721C0F1E046
:10441000AF16B10479F480E090E0C856DF4FE88130
:10442000F981C859D0402081243209F4A5C2892BD2
:1044300009F0A2C2B501C856DF4F88819981C859D9
:10444000D0400E940817892B09F096C200E010E0C6
:10445000AB968EAD9FADAB9718161906DCF5612CA7
:10446000712CA12CB12CAB968EAD9FADAB97A8163D
:10447000B90684F5A996EEADFFADA997E60DF71D37
:1044800042805380848095801814190454F0C2012E
:104490000E94F62FFFEFAF1ABF0A28E0620E711CD0
:1044A000E2CF7201C12CD12C8BE0F701DE01119615
:1044B00001900D928A95E1F7CE0101960E94D512E6
:1044C000BFEFCB1ADB0AEBE0EE0EF11C8C149D045F
:1044D00059F7DDCFA9968EAD9FADA9970E94F62F13
:1044E000A9961FAE1EAEA997AD961FAE1EAEAD9794
:1044F000AB961FAE1EAEAB97ED968EAD9FADED9712
:10450000181619061CF5E12CF12CC12CD12CED96B6
:104510008EAD9FADED97C816D906C4F4EB96EEADFF
:10452000FFADEB97EE0DFF1D8BE0DE0111960190C4
:104530000D928A95E1F7CE0101960E94D5123FEFC8
:10454000C31AD30A8BE0E80EF11CE1CFEB968EADD7
:104550009FADEB970E94F62FEB961FAE1EAEEB972A
:10456000EF961FAE1EAEEF97ED961FAE1EAEED9707
:10457000E1968EAD9FADE19718161906DCF5612C1A
:10458000712CA12CB12CE1968EAD9FADE197A816B0
:10459000B90684F5AF96EEADFFADAF97E60DF71D0A
:1045A00044805580868097801814190454F0C20105
:1045B0000E94F62FBFEFAB1ABB0AEAE06E0E711C29
:1045C000E2CF7201C12CD12C8BE0F701DE011196F4
:1045D00001900D928A95E1F7CE0101960E94D512C5
:1045E0009FEFC91AD90AABE0EA0EF11C8C149D04A6
:1045F00059F7DDCFAF968EAD9FADAF970E94F62FE6
:10460000E5968EAD9FADE5970E94F62F0115110539
:1046100009F468C2C8010E9489109F938F937F9309
:104620006F9387E891E09F938F930E944C32C8016B
:104630000E94D512C8010E94F62FCD57DF4F888106
:104640009981C358D0400F900F900F900F900F900A
:104650000F90009751F0DC0114960C911497159669
:104660001C910E94F62FC801F4CF80E090E00E94D8
:104670009A3784FD0E9433176CE3362E212CFE01FD
:1046800031963F014E01F1E28F0E911C0E94B90A52
:10469000222009F468C180E090E00E949A37829558
:1046A0008F7009F45EC131100AC00E9433175CE3B9
:1046B000352E80915002811123C010E001C011E01D
:1046C00080E090E00E949A3784FF18C01F923F92CA
:1046D00023EF35E03F932F937F926F920E949232A7
:1046E000A30165E070E080E090E00E94F40A3A9453
:1046F0000F900F900F900F900F900F9011110AC014
:1047000080EB92E10E94522A22242394833021F0EC
:10471000212C02C02224239463E080E00E94FA044A
:10472000A12CB12CC12C3FE3D32E1AE0E12E17EDC2
:10473000F12E03E21CE323E333E343E550E464E0BA
:1047400070E20E942D05840121E040E00E943E2F8E
:104750009F928F92AAEEB5E0BF93AF937F926F9234
:104760000E949232A30160E070E080E090E00E943D
:10477000F40A809150020F900F900F900F900F90BD
:104780000F9081FF17C09F928F922BED35E03F93E2
:104790002F937F926F920E949232C3010E94AC29A4
:1047A0000F900F900F900F900F900F90882311F0A3
:1047B0002224239463E081E00E94FA042C01A12CBE
:1047C000B12C6501E12CF12C00E81FE323E333E376
:1047D00043E550E464E070E20E942D05840122E08C
:1047E00040E00E943E2F9F928F92A6EDB5E0BF93CE
:1047F000AF937F926F920E949232A30161E070E0CA
:1048000080E090E00E94F40A809150020F900F9097
:104810000F900F900F900F9081FF17C09F928F9273
:1048200026EC35E03F932F937F926F920E94923255
:10483000C3010E94AC290F900F900F900F900F9022
:104840000F90882311F022242394A12CB12C650110
:10485000E12CF12C00E81FE323E333E343E550E4CC
:1048600064E070E2C2010E942D0523E333E343EDCF
:104870005FE30E94B62A840123E040E00E943E2FBD
:104880009F928F92ADEBB5E0BF93AF937F926F9203
:104890000E949232A30162E070E080E090E00E940A
:1048A000F40A809150028D7F809350020E94100D77
:1048B0000E944A070F900F900F900F900F900F904B
:1048C0008823C9F00E94B90A4EEA55E062E070E020
:1048D00080E090E00E942A0B0E94100D0E94132A93
:1048E00088E397E00E94B60880E090E00E949A3743
:1048F00084FD0E943317FFEF23EC39E0F150204094
:104900003040E1F700C00000C1CEAE0147585F4F14
:10491000B501C6010E944114019609F497CDD10159
:10492000ED91FC91119712968D919C9113979C019A
:104930002150310913963C932E931297A12CB12C40
:10494000121613060CF0CACB8250904C880F991F98
:10495000880F991FE80FF91FC080D180A280B38013
:10496000BDCB8CE3382E80915002882309F4B7C068
:10497000332009F4C5CE9DCEE7966EAD7FADE797A7
:1049800024E030E043E750E04C0F5D1F4C5F5F4F89
:10499000C1010E948013892BF9F4E596EEADFFADBD
:1049A000E597E7968EAD9FADE7979C012F5F3F4F50
:1049B000E7963FAF2EAFE797880F991F880F991F93
:1049C000E80FF91FC856DF4F28813981C859D040F8
:1049D00031832083B382A282D10112966D917C91A2
:1049E000139724E030E0C256DF4F48815981CE59F9
:1049F000D040C1010E948013892B09F5D101ED91AE
:104A0000FC91119712968D919C9113979C012F5FA9
:104A10003F4F13963C932E931297880F991F880F40
:104A2000991FE80FF91FC455DF4F88819981AA812A
:104A3000BB81CC5AD04080839183A283B383D101C0
:104A40001296ED90FC901397ED960EAD1FADED977D
:104A50004DE650E04C0F5D1F4C5F5F4FE1966EAD31
:104A60007FADE1972AE030E0CE0183599F4F0E944D
:104A70008013892B01F5AF96EEADFFADAF97E196B0
:104A80002EAD3FADE197C9010196E1969FAF8EAF84
:104A9000E1974AE0429FC001439F900D1124E80F27
:104AA000F91FF182E0821383028315821482178238
:104AB000168211861086612C712CA12CB12CC8563F
:104AC000DF4F19821882C859D0400C949C1A21E0FB
:104AD000A216B10409F050CF81E090E09ECC3110D5
:104AE000E8CDE3CD8AE791E09F938F930E944C320B
:104AF0000F900F9081E090E0C155DF4F0FB6F89412
:104B0000DEBF0FBECDBFDF91CF911F910F91FF9000
:104B1000EF90DF90CF90BF90AF909F908F907F905D
:104B20006F905F904F903F902F9008951F920F923B
:104B30000FB60F9211242F938F939F93EF93FF93B0
:104B40008091530290E02091C600FC01E452FB4F9B
:104B5000208301968F779927809353029091520278
:104B6000981303C081E080935102FF91EF919F91D0
:104B70008F912F910F900FBE0F901F901895CF928D
:104B8000DF92EF92FF926B017C019B01AC0184E00C
:104B9000220F331F441F551F8A95D1F760E074E23E
:104BA00084EF90E00E94E62EBA01A901415051091C
:104BB00061097109F894E5ECF0E08081852B808330
:104BC0004093C40060E472E48FE090E0A701960196
:104BD0000E94E62E6AE0629FC001639F900D11243F
:104BE000C39690935D0580935C05E1ECF0E08081D5
:104BF00088618083A2ECB0E08C9186608C93808188
:104C0000806880837894FF90EF90DF90CF90089534
:104C100081E02091530290915202291301C080E05B
:104C2000089580915102882329F01092510280E06A
:104C30009AEF08952091520280915302281769F04B
:104C400030E0F901E452FB4F80812F5F3F4F2F7717
:104C500033272093520290E0089580E09BEF08955F
:104C60009091C00095FFFCCF8093C6000895CF932C
:104C7000DF93EC01FE018491882321F00E9430260D
:104C80002196F8CFDF91CF910895CF93DF93EC0178
:104C90008991882319F00E943026FACFDF91CF91B5
:104CA00008952F923F924F925F926F927F928F92D0
:104CB0009F92AF92BF92CF92DF92EF92FF920F93AB
:104CC0001F93CF93DF93662309F476C0632ED22E11
:104CD000342E062F7C01822F932F0E948131482E83
:104CE0000E941126512C10E0015011092D2CC52DC8
:104CF000D0E08115EAEF9E0739F4F701EC0FFD1FB4
:104D000010827C2ECD2E5FC0752CCD2EC017D10702
:104D1000A4F781152BEF9207C1F5311015C0A090B3
:104D20005C05B0905D05A114B10439F30E94112611
:104D3000E5E0EA95F1F70000F1E0AF1AB10881155E
:104D40002BEF920781F321C038EEA32E33E0B32E70
:104D50004EE1842E912C0E941126E1E0AE1AB1089A
:104D6000EFE9FFE03197F1F700C00000A114B104B2
:104D700041F4F1E08F1A910811F128EEA22E23E000
:104D8000B22E81152BEF920731F3ED2DF62D2E2F3C
:104D90002219241550F4249130E031962817390750
:104DA000B1F7CE0DDF1D18820EC0CE0DDF1D88833A
:104DB0000E94112653949BCF712CC12C04C07724E0
:104DC0007A94CC24CA94872D9C2DDF91CF911F918A
:104DD0000F91FF90EF90DF90CF90BF90AF909F909A
:104DE0008F907F906F905F904F903F902F9008959D
:104DF0008F929F92AF92BF92CF92DF92EF92FF92EB
:104E00000F931F93CF93DF93662309F465C0D42FCC
:104E1000062F7C010E941126C0E010E0015011090C
:104E20008115EAEF9E0709F44FC0CC2ED12CC01695
:104E3000D1060CF049C081152BEF9207C1F5D111B5
:104E400015C0A0905C05B0905D05A114B104E1F11E
:104E50000E941126E5E0EA95F1F70000F1E0AF1AB3
:104E6000B10881152BEF920781F321C038EEA32EF4
:104E700033E0B32E4AE0842E912C0E941126E1E00B
:104E8000AE1AB108EFE9FFE03197F1F700C000007A
:104E9000A114B10441F4F1E08F1A910801F128EE58
:104EA000A22E23E0B22E81152BEF920731F38A3028
:104EB000910511F4C15008C0F701EC0DFD1D808370
:104EC0000E941126CF5FACCF2C2F30E0F701E20F0C
:104ED000F31F1082C90105C080E090E002C08FEF8F
:104EE0009FEFDF91CF911F910F91FF90EF90DF9097
:104EF000CF90BF90AF909F908F900895FF920F93A7
:104F00001F93CF93DF936623E9F0162F092FF82E16
:104F10000E941126CF2DD02F9E01210F311D890116
:104F200081152AEF920771F0C017D10759F081154A
:104F30003BEF930719F40E941126F9CF89930E9441
:104F40001126EECFDF91CF911F910F91FF90089521
:104F5000CF93DF93CDB7DEB760970FB6F894DEBF7F
:104F60000FBECDBF809154028E7F809354022FEFED
:104F700080E792E0215080409040E1F700C00000BF
:104F80002FEF83ED90E3215080409040E1F700C087
:104F9000000060E875E280E090E00E94BF2582E8B2
:104FA00099E00E9437262FEF89E698E12150804052
:104FB0009040E1F700C000000E9408268823D9F045
:104FC0000E9408268823A9F040E060E1CE01019606
:104FD0000E94F8266FE779E0CE0101960E947131B8
:104FE000892B71F78091540281608093540280E094
:104FF00003C082E001C081E060960FB6F894DEBF86
:105000000FBECDBFDF91CF910895AF92BF92CF92E7
:10501000DF92EF92FF920F931F93CF93DF93CDB761
:10502000DEB7C455D1090FB6F894DEBF0FBECDBFB1
:1050300084E799E00E94372610E041E060E8CE0165
:1050400001960E94F8268823C1F361E779E0CE013A
:1050500001960E947131892B09F44BC06BE679E00F
:10506000CE0101960E947131892B09F444C047E0BA
:1050700050E063E679E0CE0101960E948A31892BE7
:10508000E1F61430D4F66EE579E0CE0108960E9480
:105090006C3100E042E2140390011124F901ED5A51
:1050A000FB4F7F016F01F0E2CF0ED11C570121E2CF
:1050B000A20EB11C0097D9F0013059F030F0023047
:1050C00071F40E944531F50109C00E944531F60195
:1050D00005C0BC01C7010E94D43101C080830F5FAD
:1050E00069E579E080E090E00E946C31E3CF1F5FDA
:1050F000A4CF812F01C08FEFCC5ADF4F0FB6F894A9
:10510000DEBF0FBECDBFDF91CF911F910F91FF90FA
:10511000EF90DF90CF90BF90AF900895EF92FF9205
:105120000F931F93CF93DF93CDB7DEB760970FB682
:10513000F894DEBF0FBECDBF7C018B01809154027D
:105140008D7F809354028EE499E00E943726C70138
:105150000E9445268AE499E00E943726C8010E94F1
:10516000452686E499E00E94372641E060E1CE01C1
:1051700001960E94F8268823C1F363E479E0CE010A
:1051800001960E947131892B39F48091540282601A
:105190008093540280E011C06EE379E0CE01019665
:1051A0000E947131892B41F068E379E0CE010196CC
:1051B0000E947131892BC9F68FEF60960FB6F89473
:1051C000DEBF0FBECDBFDF91CF911F910F91FF903A
:1051D000EF900895EF92FF920F931F93CF93DF9379
:1051E000CDB7DEB760970FB6F894DEBF0FBECDBF68
:1051F0007C018B01809154028B7F8093540284E266
:1052000099E00E943726C7010E9445264AE0BE0168
:105210006F5F7F4FC8010E941F3281E299E00E94B8
:105220003726CE0101960E9445268EE199E00E9424
:10523000372641E060E1CE0101960E94F8268823DE
:10524000C1F36BE179E0CE0101960E947131892BA7
:1052500039F48091540284608093540280E011C03C
:1052600066E179E0CE0101960E947131892B41F00F
:1052700060E179E0CE0101960E947131892BC9F677
:105280008FEF60960FB6F894DEBF0FBECDBFDF91F3
:10529000CF911F910F91FF90EF9008950F931F935F
:1052A000CF93DF93CDB7DEB760970FB6F894DEBF2C
:1052B0000FBECDBF8C0184E099E00E943726C80163
:1052C0000E9481314AE0BE016F5F7F4F0E941F3212
:1052D000CE0101960E94452681E099E00E94372682
:1052E0008FE39CE90197F1F700C00000C8010E941C
:1052F00037268EEF98E00E94372641E060E1CE012C
:1053000001960E94F8268823C1F366EF78E0CE016B
:1053100001960E947131892B89F061EF78E0CE010E
:1053200001960E947131892B59F06BEE78E0CE0125
:1053300001960E947131892B01F702C080E001C003
:105340008FEF60960FB6F894DEBF0FBECDBFDF9132
:10535000CF911F910F9108950F931F93CF93DF93D8
:10536000CDB7DEB760970FB6F894DEBF0FBECDBFE6
:105370008C018FED98E00E943726F8010190002003
:10538000E9F7CF0101974AE0BE016F5F7F4F801BB5
:10539000910B0E941F32CE0101960E9445268CED92
:1053A00098E00E9437268FE39CE90197F1F700C04F
:1053B0000000C8010E94452689ED98E00E9437262A
:1053C00041E060E1CE0101960E94F8260097C1F30A
:1053D0000196C9F061ED78E0CE0101960E9471312D
:1053E000892B99F06CEC78E0CE0101960E94713126
:1053F000892B69F066EC78E0CE0101960E9471314C
:10540000892BF1F604C083E003C080E001C08FEF78
:1054100060960FB6F894DEBF0FBECDBFDF91CF917F
:105420001F910F910895CF93DF93CDB7DEB76097AB
:105430000FB6F894DEBF0FBECDBF8DEB98E00E9493
:10544000372641E060E1CE0101960E94F8260097E0
:10545000C1F30196C9F06AEB78E0CE0101960E9493
:105460007131892B99F065EB78E0CE0101960E94AD
:105470007131892B69F06FEA78E0CE0101960E94C4
:105480007131892BF1F604C083E003C080E001C0D4
:105490008FEF60960FB6F894DEBF0FBECDBFDF91E1
:1054A000CF910895FF920F931F93CF93DF93CDB7C2
:1054B000DEB7C058D1090FB6F894DEBF0FBECDBF1E
:1054C0008C010E940826882309F443C02BEA38E0A7
:1054D00040E060E8CE0101960E945126882389F3BE
:1054E00045E050E065EA78E0CE0101960E948A31FD
:1054F000892BA1F4CE0106960E944531F82E682F23
:10550000CE0101960E947E2701151105D1F2BE0140
:105510006F5F7F4F8F2DF8010995D3CF65E978E054
:10552000CE0101960E947131892B21F480915402A1
:105530008D7F0CC06EE878E0CE0101960E9471313B
:10554000892B09F0BECF809154028B7F8093540247
:10555000B8CFC058DF4F0FB6F894DEBF0FBECDBF37
:10556000DF91CF911F910F91FF9008955058BB2765
:10557000AA270E94CE2A0C94AA2C0E949C2C38F0B8
:105580000E94A32C20F039F49F3F19F426F40C94C8
:10559000992C0EF4E095E7FB0C94852CE92F0E94E2
:1055A000BB2C58F3BA17620773078407950720F0DE
:1055B00079F4A6F50C94DD2C0EF4E0950B2EBA2FA1
:1055C000A02D0B01B90190010C01CA01A001112409
:1055D000FF27591B99F0593F50F4503E68F11A16B5
:1055E000F040A22F232F342F4427585FF3CF469546
:1055F00037952795A795F0405395C9F77EF41F1668
:10560000BA0B620B730B840BBAF09150A1F0FF0F31
:10561000BB1F661F771F881FC2F70EC0BA0F621F1D
:10562000731F841F48F4879577956795B795F7950D
:105630009E3F08F0B0CF9395880F08F09927EE0FA2
:105640009795879508950E94612C08F481E008954C
:105650000E943C2B0C94AA2C0E94A32C58F00E9470
:105660009C2C40F029F45F3F29F00C94852C5111BB
:105670000C94DE2C0C94992C0E94BB2C68F399237B
:10568000B1F3552391F3951B550BBB27AA2762173E
:105690007307840738F09F5F5F4F220F331F441F4B
:1056A000AA1FA9F335D00E2E3AF0E0E832D091507F
:1056B0005040E695001CCAF72BD0FE2F29D0660F6C
:1056C000771F881FBB1F261737074807AB07B0E8AF
:1056D00009F0BB0B802DBF01FF2793585F4F3AF0B5
:1056E0009E3F510578F00C94852C0C94DE2C5F3F86
:1056F000E4F3983ED4F3869577956795B795F7953B
:105700009F5FC9F7880F911D9695879597F9089522
:10571000E1E0660F771F881FBB1F621773078407BE
:10572000BA0720F0621B730B840BBA0BEE1F88F7CD
:10573000E09508950E94A12B6894B1110C94DE2C81
:1057400008950E94C32C88F09F5798F0B92F99278D
:10575000B751B0F0E1F0660F771F881F991F1AF05C
:10576000BA95C9F714C0B13091F00E94DD2CB1E0B8
:1057700008950C94DD2C672F782F8827B85F39F0B7
:10578000B93FCCF3869577956795B395D9F73EF4F5
:1057900090958095709561957F4F8F4F9F4F08959D
:1057A000E89409C097FB3EF49095809570956195BB
:1057B0007F4F8F4F9F4F9923A9F0F92F96E9BB2771
:1057C0009395F695879577956795B795F111F8CFED
:1057D000FAF4BB0F11F460FF1BC06F5F7F4F8F4F58
:1057E0009F4F16C0882311F096E911C0772321F04E
:1057F0009EE8872F762F05C0662371F096E8862FE6
:1058000070E060E02AF09A95660F771F881FDAF73C
:10581000880F9695879597F908950E949C2C20F003
:1058200019F00E94A32C50F40C94992C0C94DE2CAB
:10583000E92F0E94BB2C88F35523B1F3E7FB6217D5
:10584000730784079507A8F189F3E92FFF278823B9
:105850002AF03197660F771F881FDAF7952F5527A3
:10586000442332F091505040220F331F441FD2F78F
:10587000BB27E91BF50B621B730B840BB109B1F25B
:1058800022F4620F731F841FB11D31972AF0660F37
:10589000771F881FBB1FEFCF9150504062F041F03F
:1058A000882332F0660F771F881F91505040C1F750
:1058B00093950C948B2C8695779567959F5FD9F778
:1058C000F7CF990F0008550FAA0BE0E8FEEF161668
:1058D0001706E807F907C0F012161306E407F507E4
:1058E00098F0621B730B840B950B39F40A2661F058
:1058F000232B242B252B21F408950A2609F4A140FB
:10590000A6958FEF811D811D089597F99F6780E807
:1059100070E060E008959F3F31F0915020F487954A
:1059200077956795B795880F911D9695879597F907
:1059300008959FEF80EC089500240A941616170628
:1059400018060906089500240A9412161306140670
:1059500005060895092E0394000C11F4882352F0D3
:10596000BB0F40F4BF2B11F460FF04C06F5F7F4F8B
:105970008F4F9F4F089557FD9058440F551F59F072
:105980005F3F71F04795880F97FB991F61F09F3F2C
:1059900079F087950895121613061406551FF2CF55
:1059A0004695F1DF08C0161617061806991FF1CFA5
:1059B00086957105610508940895E894BB276627CC
:1059C0007727CB0197F908950E94612C08F48FEF97
:1059D000089516F00C948B2C0C94992C68940C94CC
:1059E000852C0E94C32CA8F39923C1F3AEF3DF9357
:1059F000CF931F930F93FF92C92FDD2788232AF09F
:105A00002197660F771F881FDAF720E030E040E823
:105A10005FEB9FE3883920F0803E38F021968F7746
:105A20000E94B72AEEE9F0E004C00E94B72AEBEC2E
:105A3000F0E00E94352E8B01BE01EC01FB2E6F576A
:105A400071097595771F880B990B0E94D22B28E15D
:105A500032E741E35FE30E944C2DAF2D9801AE0188
:105A6000FF900F911F91CF91DF910E94CE2A0C944D
:105A7000AA2C0E944C2D0C94AA2C0E949C2C38F02D
:105A80000E94A32C20F0952311F00C94852C0C94EB
:105A9000992C11240C94DE2C0E94BB2C70F3959F42
:105AA000C1F3950F50E0551F629FF001729FBB2715
:105AB000F00DB11D639FAA27F00DB11DAA1F649FB1
:105AC0006627B00DA11D661F829F2227B00DA11D64
:105AD000621F739FB00DA11D621F839FA00D611DEA
