:100000000C940C020C9429020C9429020C942902E1
:100010000C9429020C9429020C9429020C942902B4
:100020000C9429020C9429020C9429020C942902A4
:100030000C9429020C9429020C9429020C94290294
:100040000C9431020C9429020C94C2060C942902DF
:100050000C9429020C9429020C9429020C94290274
:100060000C9429020C942902FFFFFFFFFFFF081CDC
:100070003E0808000C063F060C000C0239020C007A
:1000800010201008040018243C2418000000000070
:10009000000000005F000000000700070000147F60
:1000A000147F1400242A7F2A12002313086462009C
:1000B000364955225000000003000000001C224178
:1000C00000000041221C000014083E08140008082B
:1000D0003E0808000050300000000808080808002A
:1000E0000060600000002010080402003E514945F5
:1000F0003E0000427F4000004261514946002141DC
:10010000454B31001814127F100027454545390032
:100110003C4A494930000371090503003649494901
:100120003600064949291E000036360000000056F8
:1001300036000000081422410000141414141400A6
:100140000041221408000201510906003249794198
:100150003E007E1111117E007F49494936003E4123
:10016000414122007F4141413E007F4949494100D0
:100170007F09090901003E4141497A007F080808CA
:100180007F0000417F4100002040413F01007F0887
:10019000142241007F40404040007F020C027F005B
:1001A0007F0408107F003E4141413E007F0909095C
:1001B00006003E4151215E007F091929460046494B
:1001C0004949310001017F0101003F4040403F00AB
:1001D0001F2040201F003F4038403F006314081498
:1001E0006300070870080700615149454300007F1C
:1001F000414100000204081020000041417F00003E
:10020000040201020400404040404000000102049A
:1002100000002054545478007F4844443800384447
:1002200044442000384444487F0038545454180053
:10023000087E0901020018A4A4A47C007F0804041D
:10024000780000487D4000000000847D00007F10A1
:100250002844000000417F4000007C0478047800BE
:100260007C0804047800384444443800FC242424E6
:10027000180018242428FC007C08040408004854B2
:1002800054542000043F444020003C4040207C0067
:100290001C2040201C003C4030403C0044281028DA
:1002A00044001CA0A0A07C004464544C44000008FE
:1002B0003641000000007F000000004136080000C9
:1002C000100808100800000000000000205454D45A
:1002D0007800384446452000385454D4180000496A
:1002E0007F4400007C080605780038444645380005
:1002F0004854565520004464564D44004464554CBF
:1003000044007E1111917E003C42464324007F4907
:1003100049C941007F50484440007E040B107E00D4
:100320003C4246433C004C52565322004266534ADC
:1003300046004262534A46000000000000000000F0
:1003400000000000000000000000000000000000AD
:10035000000000000000000000000000000000009D
:10036000000000000000000000000000000000008D
:10037000000000000000000000000000000000007D
:100380000000000000000000000000005465726DD5
:100390006F6D657472004261636B6C6967687400AD
:1003A0004272696768746E65737300060B04FF031D
:1003B000F203E403C703D30300000000BE03536548
:1003C0007474696E6773000000CC038053746174A9
:1003D000757300D803DA0380FA064261636B6C69B7
:1003E00067687400E903EB0380EB06537973746567
:1003F0006D000000F7038053656E736F7273000029
:100400000004048042726F6B65720000001004806B
:100410004E6574776F726B0011241FBECFEFD8E06A
:10042000DEBFCDBF11E0A0E0B1E0EEE6FEE002C02D
:1004300005900D92A230B107D9F723E0A2E0B1E018
:1004400001C01D92A638B207E1F70E94A2060C94E3
:1004500035070C94000010927C0087E880937A00A6
:1004600008951F920F920FB60F9211242F938F931E
:100470009F9389B19091070193FB992790F98095FB
:10048000881F8827881F981739F1809107018F5F8F
:10049000982F977080910701887F892B809307019F
:1004A00080910701877090E00497DCF0809107014C
:1004B000887F809307018091070180618093070105
:1004C00089B18095881F8827881F9091070180FB3C
:1004D00093F99093070105C080910701887F80936D
:1004E000070183B19091090193FB992790F98170DD
:1004F00021E08227981719F1809109018F5F982FC9
:10050000977080910901887F892B809309018091E0
:100510000901877090E00497BCF080910901887F01
:10052000809309018091090180618093090183B161
:10053000817028278091090120FB83F903C08091F5
:100540000901887F8093090189B19091060193FB8D
:10055000992790F921E0829581708227981721F1DF
:10056000809106018F5F982F977080910601887F98
:10057000892B8093060180910601877090E0049793
:10058000C4F080910601887F809306018091060166
:1005900080618093060189B18295817028278091BE
:1005A000060120FB83F903C080910601887F8093B8
:1005B000060189B190910B0193FB992790F921E0F5
:1005C00086FB882780F98227981729F180910B01F3
:1005D0008F5F982F977080910B01887F892B809374
:1005E0000B0180910B01877090E00497CCF0809113
:1005F0000B01887F80930B0180910B0180618093B8
:100600000B0189B186FB882780F9282780910B018F
:1006100020FB83F903C080910B01887F80930B013D
:1006200089B19091080193FB992790F921E085FB0E
:10063000882780F98227981729F1809108018F5F18
:10064000982F977080910801887F892B80930801EB
:1006500080910801877090E00497CCF080910801A8
:10066000887F809308018091080180618093080150
:1006700089B185FB882780F928278091080120FB14
:1006800083F903C080910801887F8093080189B1B4
:1006900090910A0193FB992790F921E082FB88272A
:1006A00080F98227981729F180910A018F5F982F8E
:1006B000977080910A01887F892B80930A0180912D
:1006C0000A01877090E00497CCF080910A01887F3E
:1006D00080930A0180910A01806180930A0189B1A7
:1006E00082FB882780F9282780910A0120FB83F963
:1006F00003C080910A01887F80930A019F918F91A6
:100700002F910F900FBE0F901F90189585B58260A6
:1007100085BDEEE6F0E080818160808357985F9A26
:100720002098289A54985C9A56985E9A55985D9AA3
:1007300052985A9A80910701887F8093070180918F
:100740000701877F80930701809107018F7E809347
:10075000070180910901887F809309018091090137
:10076000877F80930901809109018F7E8093090121
:1007700080910601887F8093060180910601877F22
:1007800080930601809106018F7E809306018091FF
:100790000B01887F80930B0180910B01877F8093F1
:1007A0000B0180910B018F7E80930B0180910801DA
:1007B000887F8093080180910801877F80930801DA
:1007C000809108018F7E8093080180910A01887FC3
:1007D00080930A0180910A01877F80930A018091AA
:1007E0000A018F7E80930A01789408958091070111
:1007F00084FF0BC0809107018F7E80930701809159
:10080000070183FB882780F9089580E0089580918F
:10081000090184FF0BC0809109018F7E809309013B
:100820008091090183FB882780F9089580E008956D
:100830008091060184FF0BC0809106018F7E80931A
:1008400006018091060183FB882780F9089580E0E6
:10085000089580910B0184FF0BC080910B018F7E66
:1008600080930B0180910B0183FB882780F9089509
:1008700080E008958091080184FF0BC080910801F9
:100880008F7E809308018091080183FB882780F97F
:10089000089580E0089580910A0184FF0BC0809143
:1008A0000A018F7E80930A0180910A0183FB8827C9
:1008B00080F9089580E008958C01FC018491E82E70
:1008C000F12C853010F4670103C094E0C92ED12CBF
:1008D000D0E0C0E05801F1E1AF0EB11C81E0E81AB0
:1008E000F1080E949505F5014591549160E070E092
:1008F00080E090E00E94D005912C692D70E06C158D
:100900007D05B4F48D2F890DF801E80FF11DE80F76
:10091000F11D319685919491FC0132964591549147
:100920006E5F7F4F80E090E00E94D0059394E5CF0A
:10093000912C82E0882E8C0E8D1A682D892D0E94B4
:1009400038069394EEE09E12F8CF0E944F068C2E4C
:100950000C2E000C99080E943A04882321F01C16E2
:1009600014F4C1502EC00E942904882329F08E144B
:100970009F0414F4CF5F25C00E94F603882359F327
:10098000C8018C0F911D8C0F911D0196FC012591C2
:100990003491F90125913491232B99F0FC01259193
:1009A0003491F9013496E491E03859F4FC018591D1
:1009B0009491FC0185919491FC0185919491FC01A5
:1009C00009958D2F0D2E000C990B03962C2F0C2EB4
:1009D000000C330B821793070CF4DF5FCD170CF07C
:1009E00080CFD1507ECF4F925F926F927F928F9245
:1009F0009F92AF92BF92CF92DF92EF92FF920F93AE
:100A00001F93CF93DF935C01EB01742E622E58800D
:100A1000C42E440FDD0886E4482EE22E220FFF0884
:100A2000EC18FD08888168160CF4688288818715A7
:100A30000CF478820E949505A50161E070E086E0E3
:100A400090E00E94D0054FEF64E086E00E942B0604
:100A50002881022E000C330B2C193D09429EC00147
:100A6000439E900D1124B7010E940D074B0111E028
:100A7000812F90E08815990540F44FEF64E086E0FF
:100A8000810F0E942B061F5FF3CF163440F441E81C
:100A900064E086E0810F0E942B061F5FF6CF4FEFC8
:100AA00064E08CE40E942B060E944F060E9407041B
:100AB000882311F0588213C00E94F60381110FC0E1
:100AC0000E944B04882319F08881801B06C00E9475
:100AD0001804882359F38881800F8883A3CFDF917E
:100AE000CF911F910F91FF90EF90DF90CF90BF902B
:100AF000AF909F908F907F906F905F904F900895F0
:100B000027E030E090E0AC01022E02C055954795F9
:100B10000A94E2F740FF02C02A9A01C02A98299A53
:100B200029982150310978F708954CE051E026E0EA
:100B300080E090E0FA01E80FF91F10820696883FE6
:100B400031E09307B9F721504F5F5F4F2111F0CF8C
:100B500008952B982D980E9480052D9A089584B1B0
:100B60008E6384B985B1817C85B92C9A2FEF81EE93
:100B700094E0215080409040E1F700C0000081E205
:100B80000E94A90584E10E94A9058FEB0E94A90596
:100B900080E20E94A9058CE00E94A9050C949505AD
:100BA000DF92EF92FF920F931F93CF93DF93EA01AF
:100BB00046E0FE012491222309F445C0FE01549130
:100BC0005D3009F440C0F6E05F9F90011124E52FED
:100BD000F0E0B0974E9F80014F9F100D11247901D6
:100BE000E6E0EE0EF11CDD24DA94D50E021B130BA9
:100BF0008435910524F06F5F7F4F80E090E0663090
:100C000071050CF5F4E0FD1520F0F901E859FF4FEE
:100C100007C05F3780F4F801E20FF31FE457FF4F7E
:100C2000E491489FD001499FB00D1124A45FBE4FAD
:100C3000A60FB71FEC9301962F5F3F4F2E153F0570
:100C4000B9F62196B6CFDF91CF911F910F91FF900A
:100C5000EF90DF90089526E08202C0011124FC018C
:100C6000E45FFE4FE60FF11D67FDFA95408308959E
:100C7000062E000C770B94E28902600D711D112481
:100C800080E090E0FC01E60FF71FE45FFE4F20815B
:100C900020952083069684329105A1F70895EF925E
:100CA000FF921F93CF93DF932B9A2D988CE0E82E21
:100CB00081E0F82E16E0C0E0D0E0F701EC0FFD1F58
:100CC00080810E9480052696C83F81E0D807A9F759
:100CD00011508FEFE81AF80A1111EDCF2D9ADF911C
:100CE000CF911F91FF90EF900895CF93C82F82343A
:100CF00020F4823318F4C2E301C0C1E481E20E940F
:100D0000A9058C2F80680E94A90580E2CF910C94E0
:100D1000A905539AE0EBF0E0808183628083E1EBE8
:100D2000F0E080818D61808384E68093B3008093BE
:100D3000B4000895853608F084E694E6981B9093F5
:100D4000B40008950E9486030E94AF050E948906A0
:100D50000E942B024CE853E062E070E080E090E0FB
:100D60000E94D0050E944F062FEF87EA91E621509E
:100D700080409040E1F700C000000E94090780E039
:100D800090E008951F920F920FB60F9211242F93A7
:100D90008F939F93EF93FF938091040190E02091B4
:100DA000C600FC01EC5FFC4F208301968F779927EA
:100DB0008093040190910301981303C081E0809314
:100DC0000201FF91EF919F918F912F910F900FBE94
:100DD0000F901F9018950F9301E021E442E360E02B
:100DE00071E080EA93E00E94F304809100010F918A
:100DF0000C9475060F930AE024E640E065E071E08C
:100E000086E993E00E94F304809105010F910C9410
:100E10009A068BEA93E00C945C0497FB072E16F479
:100E2000009407D077FD09D00E94210707FC05D068
:100E30003EF4909581959F4F0895709561957F4FF1
:100E40000895AA1BBB1B51E107C0AA1FBB1FA61711
:100E5000B70710F0A61BB70B881F991F5A95A9F763
:0E0E600080959095BC01CD010895F894FFCFC8
:020E6E00320050
:00000001FF
