S00E000073656E736F722E737265637C
S11300000C9453050C9470050C9470050C947005B5
S11300100C9470050C9470050C9470050C94700588
S11300200C9470050C9470050C9470050C94700578
S11300300C9470050C9470050C9470050C94700568
S11300400C9413060C9470050C949E1F0C9470056C
S11300500C9470050C9470050C9470050C94700548
S11300600C9470050C947005EC16E816E416E01672
S1130070DC16D816D416F216EC16E816E416E016BA
S1130080DC16D816D416A418C118DC18DC18DC1831
S1130090DC18DC18DC18A418C118DC18DC18DC180F
S11300A0DC18DC18DC1841194119411941192D19C2
S11300B0411986189718761B961BC01BDF1B0A1C58
S11300C0431C8B1C1F1D461D621D861DB41DF41D83
S11300D0441E07634236B79BD8A71A39685618AE30
S11300E0BAAB558C1D3CB7CC5763BD6DEDFD753E69
S11300F0F6177231BF000000803F08000000BE9276
S11301002449123EABAAAA2ABECDCCCC4C3E000058
S11301100080BEABAAAAAA3E00000000BF000000F7
S1130120803F0000000000084178D3BB4387D1130F
S11301303D190E3CC3BD4282AD2B3E68EC8276BEB7
S1130140D98FE1A93E4C80EFFFBE01C4FF7F3F0081
S1130150000000004E414E494E495459494E46CD87
S1130160CCCC3D0AD7233C17B7D13877CC2B32956A
S113017095E6241FB14F0A000020410000C8420048
S1130180401C4620BCBE4CCA1B0E5AAEC59D740012
S1130190407A10F35A00A0724E18090010A5D4E852
S11301A00000E87648170000E40B54020000CA9AE5
S11301B03B000000E1F50500008096980000004037
S11301C0420F000000A0860100000010270000007C
S11301D000E803000000006400000000000A0000C2
S11301E00000000100000000002C76D888DC674F76
S11301F00823DFC1DFAE59E1B1B796E5E3E453C6A6
S11302003AE651997696E8E6C28426EB898C9B629D
S1130210ED407C6FFCEFBC9C9F40F2BAA56FA5F447
S113022090055A2AF75C936B6CF9676DC11BFCE06F
S1130230E40D47FEF520E6B500D0ED902E030094C2
S11302403577050080841E080000204E0A00000057
S1130250C80C333333330F986E12831141EF8D2161
S113026014893BE65516CFFEE6DB18D1844B381BC8
S1130270F77C1D901DA4BBE424203284725E22818D
S113028000C9F124ECA1E53D277E21402324255E0D
S1130290262A28295F2B0120515745525459554984
S11302A04F507B7D0402204153444647484A4B4CFF
S11302B03A227C03205A584356424E4D3C3E3F0559
S11302C00660313233343536373839302D3D01202C
S11302D071776572747975696F705B5D0402206172
S11302E073646667686A6B6C3B275C03207A786387
S11302F076626E6D2C2E2F0506FFFFFFFFFFFF08B1
S11303001C3E0808000C063F060C000C0239020CC7
S113031000102010080400000010387C0000007C4D
S113032038100000000000000000005F0000000022
S11303300700070000147F147F1400242A7F2A1268
S1130340002313086462003649552250000000035C
S1130350000000001C224100000041221C00001487
S1130360083E08140008083E080800005030000049
S11303700008080808080000606000000020100859
S11303800402003E5149453E0000427F40000042C5
S113039061514946002141454B31001814127F1028
S11303A0002745454539003C4A4949300003710955
S11303B0050300364949493600064949291E00000B
S11303C036360000000056360000000814224100B2
S11303D000141414141400004122140800020151E2
S11303E0090600324979413E007E1111117E007FD9
S11303F049494936003E41414122007F4141413E45
S1130400007F49494941007F09090901003E4141F2
S1130410497A007F0808087F0000417F41000020DE
S113042040413F01007F08142241007F404040408A
S1130430007F020C027F007F0408107F003E4141D0
S1130440413E007F09090906003E4151215E007FBB
S1130450091929460046494949310001017F010132
S1130460003F4040403F001F2040201F003F4038D5
S1130470403F006314081463000708700807006114
S11304805149454300007F41410000020408102007
S1130490000041417F00000402010204004040408A
S11304A04040000001020400002054545478007FAE
S11304B04844443800384444442000384444487F85
S11304C000385454541800087E0901020018A4A4EA
S11304D0A47C007F080404780000487D40000000EC
S11304E000847D00007F102844000000417F40000C
S11304F0007C04780478007C0804047800384444C0
S1130500443800FC242424180018242428FC007CEB
S11305100804040800485454542000043F44402074
S1130520003C4040207C001C2040201C003C40300B
S1130530403C004428102844001CA0A0A07C004497
S113054064544C440000083641000000007F000061
S113055000004136080000100808100800000000E0
S1130560000000205454D478003844464520003814
S11305705454D4180000497F4400007C08060578D0
S113058000384446453800485456552000446456C3
S11305904D44004464554C44007E1111917E003C4E
S11305A042464324007F4949C941007F50484440A2
S11305B0007E040B107E003C4246433C004C5256E5
S11305C05322004266534A46004262534A460000A0
S11305D00000000000000000000000000000000017
S11305E00000000000000000000000000000000007
S11305F000000000000000000000000000000000F7
S113060000000000000000000000000000000000E6
S113061000000000000000000000000000000000D6
S1130620000000506C6561736520776169742E2E3B
S11306302E0058004F4B0042523A0058004F4B00D6
S113064041503A00444154412025732025730A0047
S113065025733A2025730025733D25730072657355
S11306607461727420696E20256473005465726D20
S11306706F6D65747200415020636F6E6E2E20663C
S113068061696C0042726F6B6572206661696C000F
S113069042726F6B65722074696D656F7574004F7B
S11306A04B0042726F6B657220636F6E6E2E005248
S11306B0454749535445522025730A00415020634D
S11306C06F6E6E656374656400636869702072653B
S11306D0616479006572723A2070726F746F636F2F
S11306E06C006572723A206E6F20616E737765726A
S11306F000574C414E2073746172747570000A0087
S11307005245474953544552204F4B005155455289
S113071059000A004261636B6C6967687400427235
S1130720696768746E65737300456E746572206ED4
S1130730616D650045787072657373696F6E00450D
S11307406E746572206E616D650044495341424C7C
S113075045440D454E41424C4544004449534142B1
S11307604C45440D454E41424C4544003A003A0044
S1130770456E746572206164647265737300456EBE
S11307807465722070617373776F726400456E7460
S11307906572205353494400456E7465722070613C
S11307A07373776F726400436F6E6669726D2F7234
S11307B0657475726E0053657475702041502061C4
S11307C0733A004150204C6973743A005363616E6C
S11307D06E696E67204150732E2E000534082D0873
S11307E01A080808F707000000000000EE07536528
S11307F07474696E677300FC07FE0780E50F42613D
S1130800636B6C69676874000D080F0880BE0F4243
S113081072696768746E657373001F08210880BC71
S11308200E53797374656D206E616D65003208CB6B
S11308300880BA0F3908E60880B60F047D086E08F0
S11308405E084E080000000000000000CB085308BA
S1130850550880AF0F4F75747075742032006308AB
S1130860650880A80F4F7574707574203100730883
S1130870750880A10F496E70757420320082088457
S113088008809B0F496E70757420310003BD08B158
S1130890089F0800000000000000000000CB08A42E
S11308A008A60880820E45787072657373696F6E4E
S11308B000B608B808804A0E4E616D6500C208C4CF
S11308C00880560F5377697463680053656E736FBD
S11308D0727300063E092B091B090A09F808EE0881
S11308E000000000E6084E6574776F726B0000002C
S11308F0F308805465737400FD08FF0880290F43D2
S11309006F6E6E656374696F6E000F09110980E87C
S11309100E42726F6B6572204950002009220980D3
S11309201C0E50617373776F726400300932098052
S1130930F00D4D616E75616C2053534944004309B9
S11309404509803A105363616E20666F72204150EE
S11309507300140AAAAA0A141008A8A80810000010
S1130960A0A00000000080800000F88EE9A988F8AB
S1130970F88EE9A98EF8434C4F5345440057494635
S11309804920444953434F4E4E454354002B49504C
S1130990442C003A0D0A004552524F520046414938
S11309A04C004E4F5420434F4E4E45435445440053
S11309B05749464920444953434F4E4E45435400FA
S11309C04F4B0041542B434950434C4F53450D0A60
S11309D0004552524F52004641494C004E4F54205C
S11309E0434F4E4E454354454400574946492044DD
S11309F04953434F4E4E454354004F4B0041542BF3
S1130A0043575141500D0A004552524F520046413E
S1130A10494C0053454E44204F4B000D0A000D0A2B
S1130A200041542B43495053454E443D00455252D6
S1130A304F52004641494C004F4B000D0A00222CF6
S1130A400041542B43495053544152543D22544382
S1130A5050222C22004552524F52004641494C002C
S1130A604F4B00220D0A00222C220041542B4357E5
S1130A704A41503D220028292C220028292C2200FA
S1130A802B43574C41503A004552524F52004F4B62
S1130A900041542B43574C41500D0A004F4B004129
S1130AA05445300D0A0011241FBECFEFD8E0DEBF3D
S1130AB0CDBF11E0A0E0B1E0EAE7F3E602C00590A3
S1130AC00D92A436B107D9F724E0A4E6B1E001C041
S1130AD01D92AC37B207E1F70E9404130C94BB31AA
S1130AE00C94000010927C0087E880937A000895AB
S1130AF080937C0080917A00806480937A00809156
S1130B007A0086FDFCCF8091780090917900089559
S1130B10CF92DF92EF92FF920F931F93CF93DF93C5
S1130B20082F162F862FD1E0882321F0DD0FDD0F4B
S1130B308150FACFC0E0C12CD12C7601DC1749F0EA
S1130B40802F0E947805C80ED91EE11CF11CCF5FCE
S1130B50F5CFD701C60104C0B695A795979587959B
S1130B601A95D2F7DF91CF911F910F91FF90EF90DB
S1130B70DF90CF9008954F925F926F927F92AF92E1
S1130B80BF92CF92DF92EF92FF920F931F93CF9376
S1130B90DF93CDB7DEB72A970FB6F894DEBF0FBE4A
S1130BA0CDBF7A87698729013A01E982FA820B83EA
S1130BB01C83BC0180E090E00E9426256D837E8327
S1130BC08F83988729853A85B901330F880B990B50
S1130BD00E9428259B01AC016D817E818F819885BF
S1130BE00E94B424A30192010E943F26A60195010C
S1130BF00E944224A80197010E94B4242A960FB6A9
S1130C00F894DEBF0FBECDBFDF91CF911F910F913E
S1130C10FF90EF90DF90CF90BF90AF907F906F9058
S1130C205F904F9008951F920F920FB60F92112468
S1130C302F938F939F9389B190916E0193FB992782
S1130C4090F98095881F8827881F981739F180911B
S1130C506E018F5F982F977080916E01887F892B2A
S1130C6080936E0180916E01877090E00497DCF0B0
S1130C7080916E01887F80936E0180916E01806106
S1130C8080936E0189B18095881F8827881F909171
S1130C906E0180FB93F990936E0105C080916E0103
S1130CA0887F80936E0183B19091700193FB9927A3
S1130CB090F9817021E08227981719F180917001D1
S1130CC08F5F982F977080917001887F892B809314
S1130CD0700180917001877090E00497BCF080915E
S1130CE07001887F8093700180917001806180938E
S1130CF0700183B1817028278091700120FB83F9F2
S1130D0003C080917001887F8093700189B19091B4
S1130D106D0193FB992790F921E0829581708227D8
S1130D20981721F180916D018F5F982F97708091B2
S1130D306D01887F892B80936D0180916D0187708F
S1130D4090E00497C4F080916D01887F80936D01D9
S1130D5080916D01806180936D0189B1829581706C
S1130D60282780916D0120FB83F903C080916D01D8
S1130D70887F80936D0189B19091720193FB9927CB
S1130D8090F921E086FB882780F98227981729F1BA
S1130D90809172018F5F982F977080917201887F84
S1130DA0892B8093720180917201877090E004977F
S1130DB0CCF080917201887F8093720180917201DE
S1130DC080618093720189B186FB882780F9282786
S1130DD08091720120FB83F903C080917201887FA6
S1130DE08093720189B190916F0193FB992790F9D7
S1130DF021E085FB882780F98227981729F18091C3
S1130E006F018F5F982F977080916F01887F892B76
S1130E1080936F0180916F01877090E00497CCF00C
S1130E2080916F01887F80936F0180916F01806151
S1130E3080936F0189B185FB882780F928278091E9
S1130E406F0120FB83F903C080916F01887F809339
S1130E506F0189B19091710193FB992790F921E079
S1130E6082FB882780F98227981729F180917101E4
S1130E708F5F982F977080917101887F892B809361
S1130E80710180917101877090E00497CCF080919A
S1130E907101887F809371018091710180618093D9
S1130EA0710189B182FB882780F92827809171011B
S1130EB020FB83F903C080917101887F80937101C5
S1130EC09F918F912F910F900FBE0F901F901895A7
S1130ED085B5826085BDEEE6F0E080818160808327
S1130EE057985F9A2098289A54985C9A56985E9AD4
S1130EF055985D9A52985A9A80916E01887F809392
S1130F006E0180916E01877F80936E0180916E01E6
S1130F108F7E80936E0180917001887F8093700131
S1130F2080917001877F80937001809170018F7E22
S1130F308093700180916D01887F80936D01809111
S1130F406D01877F80936D0180916D018F7E809309
S1130F506D0180917201887F80937201809172018A
S1130F60877F80937201809172018F7E80937201DA
S1130F7080916F01887F80936F0180916F01877FDB
S1130F8080936F0180916F018F7E80936F018091B8
S1130F907101887F8093710180917101877F8093B3
S1130FA07101809171018F7E80937101789408950D
S1130FB080916E0184FF0BC080916E018F7E8093BF
S1130FC06E0180916E0183FB882780F9089580E08B
S1130FD008958091700184FF0BC0809170018F7E11
S1130FE0809370018091700183FB882780F90895B4
S1130FF080E0089580916D0184FF0BC080916D01A4
S11310008F7E80936D0180916D0183FB882780F929
S1131010089580E008958091720184FF0BC080914F
S113102072018F7E809372018091720183FB882705
S113103080F9089580E0089580916F0184FF0BC0CA
S113104080916F018F7E80936F0180916F0183FB8C
S1131050882780F9089580E008958091710184FFC4
S11310600BC0809171018F7E809371018091710119
S113107083FB882780F9089580E008956F927F921A
S11310808F929F92AF92BF92CF92DF92EF92FF9294
S11310900F931F93CF93DF937C015A0177247A94A3
S11310A0760EEC0109900020E9F72197C81BD0E0E7
S11310B001E010E04EE0642E0E94E9078111D2C0E5
S11310C00E94460BCF3028F04C2F50E04E5051096F
S11310D002C040E050E04E0D5F1D60E070E080E033
S11310E090E00E94810BA50161E070E080E090E057
S11310F00E94B70BD12C61E08D2D0E94860DD394F4
S11311008EE0D812F8CFD11126C021EC822E22E035
S1131110922E32E0C32ED12CA401B60180E090E0DF
S11311200E94B70BEFEFCE1ADE0AFEE08F0E911C81
S113113086E0C816D10481F762E0600F812F0E9417
S1131140860DED2FE270DE2ED1FF1DC065E080E03C
S11311500E94860D18C089E8882E82E0982E92E0BD
S1131160C92ED12CA401B60180E090E00E94B70BF7
S1131170FFEFCF1ADF0A8EE0880E911CE6E0CE1650
S1131180D10481F7D9CFD0FF04C064E080E00E948D
S1131190860D0E949D0D0E940B08882319F00330D0
S11311A00CF40F5F0E94FA07882319F01D300CF429
S11311B01F5F0E941C08882319F010160CF40150BC
S11311C00E942D08882311F0111111500E94D80794
S11311D0882309F471CF202F002E000C330B812FAC
S11311E0012E000C990B629EF001639EF00D1124F8
S11311F0E80FF91FDD2319F0E757FD4F02C0EF5345
S1131200FD4FE491E03268F0C71558F4D701AC0FF4
S1131210B11DEC9311961C92CF5FDD2009F44CCFE5
S11312201DC0E230A1F018F4E13041F045CFE330C5
S113123099F0E43009F040CF8C2F17C0CC2309F487
S11312403BCFC150F701EC0FF11D108235CF81E087
S1131250D11180E0D82F30CFDD2311F0D0E02CCF96
S1131260D2E02ACFF701108280E0DF91CF911F9165
S11312700F91FF90EF90DF90CF90BF90AF909F9031
S11312808F907F906F9008958F929F92AF92BF92AC
S1131290CF92DF92EF92FF920F931F93CF93DF933E
S11312A08C01FC018491E82EF12C853010F4670147
S11312B003C094E0C92ED12CD0E0C0E05801F1E184
S11312C0AF0EB11C81E0E81AF1080E94460BF5014B
S11312D04591549160E070E080E090E00E94B70B8B
S11312E0912C692D70E06C157D05B4F48D2F890D5A
S11312F0F801E80FF11DE80FF11D319685919491E5
S1131300FC013296459154916E5F7F4F80E090E0EE
S11313100E94B70B9394E5CF912C82E0882E8C0E1B
S11313208D1A682D892D0E94860D9394EEE09E12ED
S1131330F8CF0E949D0D0E941C08882319F01C16EA
S11313400CF4C1500E940B08882341F08C2F0C2E02
S1131350000C990B8E159F050CF4CF5F0E94D807E3
S1131360882309F1C8018C0F911D8C0F911D0196E2
S1131370FC0125913491F90125913491232B99F0A5
S1131380FC0125913491F9013496E491E03859F443
S1131390FC0185919491FC0185919491FC018591C6
S11313A09491FC0109950E94E907811112C08D2FC7
S11313B00D2E000C990B03962C2F0C2E000C330BC6
S11313C0821793070CF4DF5FCD170CF07ECFD1505A
S11313D07CCFDF91CF911F910F91FF90EF90DF9021
S11313E0CF90BF90AF909F908F9008952F923F928F
S11313F04F925F926F927F928F929F92AF92BF9221
S1131400CF92DF92EF92FF920F931F93CF93DF93CC
S11314105C01EB01542E422E3880642E712C86E43C
S1131420282EC22ED12CC618D7088881481608F455
S113143048828881851508F458820E94460BA501CC
S113144061E070E086E090E00E94B70B4FEF64E04B
S113145086E00E94790C288130E026193709229E03
S1131460C001239E900D1124B6010E9423284B0134
S113147011E0812F90E08815990540F44FEF64E066
S113148086E0810F0E94790C1F5FF3CF163440F47D
S113149041E864E086E0810F0E94790C1F5FF6CF7B
S11314A04FEF64E08CE40E94790C0E949D0D0E9431
S11314B0E9078823B1F03882832DF701DF91CF91BA
S11314C01F910F91FF90EF90DF90CF90BF90AF905E
S11314D09F908F907F906F905F904F903F902F9050
S11314E009940E94D807811114C00E942D088823F2
S11314F029F08881801B8883F70109950E94FA07E7
S1131500882309F492CF8881800F8883F701099595
S11315108CCFDF91CF911F910F91FF90EF90DF90CF
S1131520CF90BF90AF909F908F907F906F905F907F
S11315304F903F902F9008958F929F92BF92CF9299
S1131540DF92EF92FF920F931F93CF93DF93CDB768
S1131550DEB7C055D1090FB6F894DEBF0FBECDBFBC
S11315607B016A01FB01B0808E010F5F1F4F20E4F5
S1131570F80111922A95E9F7BC01C8010E94372BA2
S113158066E471E0C8010E94942B9E012F5B3F4FDB
S1131590F901819391934F0101E066E471E080E0E9
S11315A090E00E94942BF401819391934F01892B35
S11315B019F00F5F083089F710E0015011090E94FB
S11315C0460BF7018081FE01EF5BFF4FE80FF11D31
S11315D0E80FF11D4081518163E070E086E090E006
S11315E00E94810BA60161E070E081E090E00E941E
S11315F0B70B0E949D0D0E94E907882319F0F7019B
S1131600B0821CC00E94D807811118C00E942D0806
S1131610882331F0F7018081882311F08150808381
S11316200E94FA07882359F2F7018081282F30E0BD
S11316302017310724F68F5F8083C1CFC05BDF4F53
S11316400FB6F894DEBF0FBECDBFDF91CF911F91CF
S11316500F91FF90EF90DF90CF90BF909F908F906D
S1131660089527E030E090E0AC01022E02C05595C9
S113167047950A94E2F740FF02C02A9A01C02A98CB
S1131680299A29982150310978F7089543E751E0C0
S113169026E080E090E0FA01E80FF91F1082069638
S11316A0883F31E09307B9F721504F5F5F4F211115
S11316B0F0CF08952B982D980E94310B2D9A089500
S11316C084B18E6384B985B1817C85B92C9A2FEF5E
S11316D081EE94E0215080409040E1F700C000008A
S11316E081E20E945A0B84E10E945A0B8FEB0E9404
S11316F05A0B80E20E945A0B8CE00E945A0B0C9405
S1131700460B1F93CF93DF9316E0FA012191AF01AB
S1131710222349F120522F35C0F7E6E02E9F900195
S11317201124C0E0D0E08435910524F06F5F7F4F31
S113173080E090E066307105B4F4F901EC0FFD1F10
S1131740ED5DFC4FE491189FD001199FB00D112459
S1131750AD58BE4FA60FB71FEC9301962196C63025
S1131760D10509F7D2CFDF91CF911F910895DF9270
S1131770EF92FF920F931F93CF93DF93EA0146E01A
S1131780FE012491222309F445C0FE0154915D30E9
S113179009F440C0F6E05F9F90011124E52FF0E0CA
S11317A0B0974E9F80014F9F100D11247901E6E000
S11317B0EE0EF11CDD24DA94D50E021B130B8435D6
S11317C0910524F06F5F7F4F80E090E066307105F3
S11317D00CF5F4E0FD1520F0F901E750FD4F07C0CA
S11317E05F3780F4F801E20FF31FED5DFC4FE491E5
S11317F0489FD001499FB00D1124AD58BE4FA60F8C
S1131800B71FEC9301962F5F3F4F2E153F05B9F696
S11318102196B6CFDF91CF911F910F91FF90EF905A
S1131820DF900895282F880F330B962F977840FF69
S11318302FC067FD695F659565956595062E000C5B
S1131840770B86E0829FF001839FF00D1124ED5801
S1131850FE4FE60FF71F97FF03C09150986F9F5FED
S113186041E050E0DA0102C0AA0FBB1F9A95E2F7EB
S1131870CD0196E0929FA001939F500D11249A01EF
S11318802D583E4FD901A60FB71F9C91892B2FC00D
S113189067FD695F659565956595062E000C770B68
S11318A086E0829FF001839FF00D1124ED58FE4FD6
S11318B0E60FF71F97FF03C09150986F9F5F41E0B9
S11318C050E0DA0102C0AA0FBB1F9A95E2F7CD01DE
S11318D0809596E0929FA001939F500D11249A0148
S11318E02D583E4FD901A60FB71F9C9189238083A1
S11318F0089526E08202C0011124FC01ED58FE4F38
S1131900E60FF11D67FDFA95408308952F923F92EB
S11319104F925F926F927F928F929F92AF92BF92FB
S1131920CF92DF92EF92FF920F931F93CF93DF93A7
S1131930CDB7DEB72B970FB6F894DEBF0FBECDBF81
S1131940682E762E7A01222E102F07FF02C017E090
S1131950100F159515951595212F012E000C330B9D
S11319603A832983372C412CC22C022C000CDD082D
S1131970A62C062C000CBB08872D072C000C990BF9
S113198099878887842D90E029813A81821793076B
S11319900CF04EC0342D222D2303900111243C83DE
S11319A02B8323E0880F991F2A95E1F7512C288572
S11319B03985280F391F3F832E83E52DF0E0EC1580
S11319C0FD0594F5C5018E0F9F1F8435910564F5BF
S11319D02B813C81E20FF31FEE0DFF1DE491812C5E
S11319E0912C8E2F90E09B878A87962D950D9D8351
S11319F08E819F81880D991DC097A4F44A855B85CB
S1131A00082C02C0559547950A94E2F7632D680D9A
S1131A108D810E94120C2FEF821A920A38E08316ED
S1131A20910431F75394C9CF439488E0380EAACF78
S1131A30322D310310011124077807FF03C0015030
S1131A40086F0F5F802E000F990888E0189F5001DF
S1131A501124272D98E0199F200D11242983512C3E
S1131A60862D062C000C990B9C838B83072D770CF9
S1131A70110BE52DF0E0EC15FD057CF58B819C81C7
S1131A808E0F9F1F8435910544F5E20DF31DEE0D75
S1131A90FF1DE491712C2E2F30E03F832E83462CC2
S1131AA0450C272D30E028153905ACF4C801820F08
S1131AB0931F8A0D9B1DC09774F44E815F8102C0F1
S1131AC0559547952A95E2F76981670D842D0E9403
S1131AD0120C7394E6CF5394CCCF2B960FB6F89494
S1131AE0DEBF0FBECDBFDF91CF911F910F91FF904D
S1131AF0EF90DF90CF90BF90AF909F908F907F90AA
S1131B006F905F904F903F902F900895062E000C99
S1131B10770B94E28902600D711D112480E090E03E
S1131B20FC01E60FF71FED58FE4F2081209520831E
S1131B30069684329105A1F70895EF92FF921F93C0
S1131B40CF93DF932B9A2D9883E7E82E81E0F82E2C
S1131B5016E0C0E0D0E0F701EC0FFD1F80810E9489
S1131B60310B2696C83F81E0D807A9F711508FEFB3
S1131B70E81AF80A1111EDCF2D9ADF91CF911F9138
S1131B80FF90EF900895CF93C82F823420F48D32C4
S1131B9018F4CDE201C0C1E481E20E945A0B8C2FFB
S1131BA080680E945A0B80E2CF910C945A0B539A8E
S1131BB0E0EBF0E0808183628083E1EBF0E0808100
S1131BC08D61808384E68093B3008093B40008958C
S1131BD0853608F084E694E6981B9093B400089543
S1131BE0CF93DF93CDB7DEB7A0970FB6F894DEBFDF
S1131BF00FBECDBF40E250E063EB71E0CE01019631
S1131C000E9424314DE857E060E2CE0101960E9423
S1131C103E08882341F040E250E063EB71E0CE01DE
S1131C2001960E944231A0960FB6F894DEBF0FBE13
S1131C30CDBFDF91CF910895CF93DF93CDB7DEB7BA
S1131C40C054D1090FB6F894DEBF0FBECDBF40E437
S1131C5050E063E771E0CE0101960E9424314EE723
S1131C6057E060E4CE0101960E943E08882341F0CB
S1131C7040E450E063E771E0CE0101960E944231F6
S1131C80C05CDF4F0FB6F894DEBF0FBECDBFDF914F
S1131C90CF910895CF93DF93CDB7DEB728970FB6D2
S1131CA0F894DEBF0FBECDBF6091F30388E0689F58
S1131CB0B00111246F5F7E4F48E050E0CE010196E1
S1131CC00E9424314FE357E068E0CE0101960E9460
S1131CD03E08882371F06091F30388E0689FB001A7
S1131CE011246F5F7E4F48E050E0CE0101960E94C0
S1131CF0423128960FB6F894DEBF0FBECDBFDF91F8
S1131D00CF910895CF93DF93CDB7DEB7C054D109F7
S1131D100FB6F894DEBF0FBECDBF6091F30380E42D
S1131D20689FB00111246F5F7F4F40E450E0CE0103
S1131D3001960E94243144E357E060E4CE01019609
S1131D400E943E08882371F06091F30380E4689F49
S1131D50B00111246F5F7F4F40E450E0CE01019643
S1131D600E944231C05CDF4F0FB6F894DEBF0FBE55
S1131D70CDBFDF91CF910895CF93DF93CDB7DEB779
S1131D8060970FB6F894DEBF0FBECDBF40E150E0C0
S1131D9063E271E0CE0101960E94243149E257E0EA
S1131DA060E1CE0101960E943E08882341F040E1A3
S1131DB050E063E271E0CE0101960E9442316096E8
S1131DC00FB6F894DEBF0FBECDBFDF91CF9108955B
S1131DD0CF93DF93CDB7DEB7C054D1090FB6F894D3
S1131DE0DEBF0FBECDBF40E450E063E371E0CE013F
S1131DF001960E94243140E757E060E4CE01019649
S1131E000E943E088823D9F06EE677E0CE01019661
S1131E100E94292B40E450E063E371E00E944231C8
S1131E206CE677E080E090E00E94292B009739F07F
S1131E300E94022BBC0181E291E00E946431C05CEB
S1131E40DF4F0FB6F894DEBF0FBECDBFDF91CF9149
S1131E500895CF93DF931F92CDB7DEB780E090E073
S1131E600E9434318295817089834FEF58E0BE011E
S1131E706F5F7F4F8BE597E00E949C0A89818823DE
S1131E8031F080E090E00E943431806105C080E050
S1131E9090E00E9434318F7E8983698180E090E0F4
S1131EA00E9452310F90DF91CF9108951F93CF93E9
S1131EB0DF931F92CDB7DEB780E090E00E9434310B
S1131EC090E00090F30302C0959587950A94E2F799
S1131ED08170898344EC58E0BE016F5F7F4F8AE4D0
S1131EE097E00E949C0A89811091F303882361F092
S1131EF080E090E00E94343121E030E001C0220F04
S1131F001A95EAF7822B0CC080E090E00E943431ED
S1131F1021E030E001C0220F1A95EAF720958223D0
S1131F208983698180E090E00E9452310F90DF91B3
S1131F30CF911F9108951092F3038CE898E00C94CC
S1131F40440981E08093F3038CE898E00C944409FD
S1131F5082E08093F3038CE898E00C94440983E0D6
S1131F608093F3038CE898E00C94440983ED98E0A3
S1131F700C9444098BE398E00C944409EF92FF928B
S1131F800F93CF93DF931F92CDB7DEB784EF91E029
S1131F900E943431898383ECE82E8DE0F82E01E031
S1131FA021E44DE2BE016F5F7F4F8EE197E00E9416
S1131FB0F609698184EF91E00E9452310F90DF911C
S1131FC0CF910F91FF90EF900895EF92FF920F93AE
S1131FD0CF93DF931F92CDB7DEB783EF91E00E94DA
S1131FE03431898388EEE82E8DE0F82E0AE024E669
S1131FF040E0BE016F5F7F4F84E197E00E94F609E5
S1132000698183EF91E00E9452310F90DF91CF916B
S11320100F91FF90EF900895CF93DF93EB0162E16E
S113202077E0CE010E94292B45E050E06CE077E098
S1132030CE010E945F2B892B21F48091680182607C
S11320400CC04BE050E060E077E0CE010E945F2BD3
S1132050892B29F4809168018160809368016EEF77
S113206076E080E090E00E94292B892BE9F6DF914D
S1132070CF9108952F923F924F925F926F927F92E9
S11320808F929F92AF92BF92CF92DF92EF92FF9284
S11320900F931F93CF93DF93CDB7DEB7C454D10909
S11320A00FB6F894DEBF0FBECDBF0E94262180FF7D
S11320B01BC10E94460B4CEC57E063E070E080E0EB
S11320C090E00E94B70B0E949D0D2FEF39E688E146
S11320D0215030408040E1F700C000000E9486217A
S11320E010E0C82E880FDD08F60131972596FFAF62
S11320F0EEAF259732E2232E40900601509007015F
S11321009E012D5F3F4F23963FAF2EAF23970E9432
S1132110E9078111E9C00E94460B43EC57E060E0F7
S113212070E080E090E00E94B70B8BE6E82E83E03D
S1132130F82E92E0892E912C20E1322EA12CB12C84
S1132140612E012E000C7708AC14BD043CF00E94F3
S11321509D0D0E941C08811150C052C090E3391695
S1132160B1F3A701B40180E090E00E94810BF70174
S113217080A1811103C04AE659E002C040E759E05A
S113218008E026E0632D88E40E94860CF70181A113
S11321908B3A24F426E044E659E013C095E5980F01
S11321A09A3028F408E026E04EE559E00AC0855B41
S11321B008E026E0843118F448E559E002C042E51D
S11321C059E0632D8EE40E94860C6A147B0461F04E
S11321D0FFEFAF1ABF0A28E0320E32E2E30EF11C21
S11321E08FEF881A980AB0CF00E0682D802F0E94E4
S11321F0860D0F5F0E30C9F7EBCF11160CF411509A
S11322000E940B08882361F0812F012E000C990B8A
S11322102596EEADFFAD25978E179F070CF41F5F33
S11322200E94D807882309F472CF0E94460B46EB1C
S113223057E061E070E080E090E00E94B70BA12ECF
S1132240012E000CBB082A9CC0012B9C900D11246C
S11322509C0125593C4F7901A90162E070E080E0BE
S113226090E00E94810B47EA57E064E070E080E070
S113227090E00E94B70B0E949D0D0E94E907811116
S113228046CF0E94D8078823C1F35A8249822396F5
S1132290EEADFFAD23972EE311922A95E9F72A9C20
S11322A0F0012B9CF00D1124E559FC4F80A1811104
S11322B010C040E250E063EB71E0C7010E9442317C
S11322C040E450E063E771E0CE0101960E944231A0
S11322D00BC048E957E060E4CE0101960E943E0835
S11322E0882309F414CFE5CFCC5BDF4F0FB6F89405
S11322F0DEBF0FBECDBFDF91CF911F910F91FF9035
S1132300EF90DF90CF90BF90AF909F908F907F9091
S11323106F905F904F903F902F900895EF92FF92AF
S11323200F931F93CF93DF93CDB7DEB7C055D10979
S11323300FB6F894DEBF0FBECDBF809168018E7FCB
S1132340809368010E94460B41EF56E060E070E024
S113235080E090E00E94B70B0E949D0D0E9429210D
S1132360813039F058F0823009F0A3C044ED56E0D2
S113237002C042EE56E061E070E097C049EC56E0DE
S113238061E070E080E090E00E94B70B0E949D0D38
S11323902FEF89E698E1215080409040E1F700C09A
S11323A0000080E090E00E94343182958F7009F43F
S11323B08BC040E250E063EB71E08BE693E00E9457
S11323C0243140E450E063E771E08E010F5F1F4F5A
S11323D0C8010E942431B8018BE693E00E940F22C9
S11323E081115FC04CEB56E062E070E080E090E069
S11323F00E94B70B0E949D0D40E450E063E371E03E
S1132400C8010E94243181E291E00E943C31BC0168
S1132410C8010E946B2281113FC07E0121E4E20EBB
S1132420F11C40E150E063E271E0C7010E942431F5
S1132430FF92EF928FEA96E09F938F931F930F93EF
S11324400E942C2CC8010E94CF228FEF99E628E12C
S1132450815090402040E1F700C000008CE090E102
S11324600E94DE23809168010F900F900F900F90CF
S11324700F900F9080FF0DC042EA56E063E070E0D9
S113248080E090E00E94B70B4FE956E064E070E012
S11324900CC040E956E002C044E856E063E070E056
S11324A004C046E756E062E070E080E090E00E94FD
S11324B0B70B0E949D0D8FEF93ED20E38150904068
S11324C02040E1F700C00000C05BDF4F0FB6F89476
S11324D0DEBF0FBECDBFDF91CF911F910F91FF9053
S11324E0EF9008952F923F924F925F926F927F9256
S11324F08F929F92AF92BF92CF92DF92EF92FF9210
S11325000F931F93CF93DF93CDB7DEB7C458D10990
S11325100FB6F894DEBF0FBECDBF1C014B012A01DC
S1132520CE0101963C0180E8F30111928A95E9F706
S1132530FB0101900020E9F73197CF01861B970B2F
S1132540CD57DF4F99838883C358D040FA01019057
S11325500020E9F73197CF01841B950BCF57DF4F4C
S113256099838883C158D04081016301B401C801B3
S11325700E94BE2B5C01009711F5B801C6010E94B0
S1132580A92BB301C1010E94A92BCC57DF4F0FB671
S1132590F894DEBF0FBECDBFDF91CF911F910F9195
S11325A0FF90EF90DF90CF90BF90AF909F908F906F
S11325B07F906F905F904F903F902F9008957C0193
S11325C0E01AF10AA701B801C6010E94992BCE0CAA
S11325D0DF1CCF57DF4F48815981C158D040B20129
S11325E0C6010E94992BCF57DF4FE881F981C1586A
S11325F0D040CE0EDF1ECD57DF4F08811981C3585E
S1132600D0400A0D1B1DB2CFCF93DF93CDB7DEB7F9
S1132610CD58D1090FB6F894DEBF0FBECDBF3C9A9A
S11326203D9A449845980E9468070E94600B0E9456
S1132630D70D84EF91E00E9434310E94C30D83EFE3
S113264091E00E9434310E94E80D0E9472054CE62C
S113265056E062E070E080E090E00E94B70B0E94D8
S11326609D0D2FEF87EA91E6215080409040E1F7DD
S113267000C000000E948E11FE0131964F018AE5D0
S113268011928A95E9F73E01FBE66F0E711C80E119
S1132690F30111928A95E9F74CE3442E512C1E0163
S11326A0FBE72F0E311C0E94460B552049F080E0B9
S11326B090E00E94343182958F7031F05524539408
S11326C0411005C00E948E113CE3432E512C80E042
S11326D090E00E94343184FF24C05520C9F01F9239
S11326E04F928DE596E09F938F939F928F920E94D5
S11326F02C2CA40165E070E080E090E00E94810B46
S11327004A940F900F900F900F900F900F9009C064
S113271080916801882319F30E94262182FFDFCF6C
S113272002C051100AC08CE090E10E94DE235524BF
S11327305394833021F0512C02C05524539463E008
S113274080E00E948805A12CB12C6501E12CF12CBC
S113275000E81FE323E333E343E550E464E070E27D
S11327600E94BB056F966CAF7DAF8EAF9FAF6F9726
S113277063E080E00E94880523E333E343E550E40B
S113278064E070E20E94BB05A3966CAF7DAF8EAF90
S11327909FAFA397449903C0D601C50104C080E04C
S11327A090E0A0E8BFE3A7968CAF9DAFAEAFBFAFFC
S11327B0A797459904C080E090E0DC0104C080E064
S11327C090E0A0E8BFE3AB968CAF9DAFAEAFBFAFD8
S11327D0AB9781E090E0C957DF4F99838883C7584E
S11327E0D040FE01E55AFF4FCB57DF4FF983E88312
S11327F0C558D04081E091E0C757DF4F9983888363
S1132800C958D040E12CF12C80E090E00E94343192
S1132810C457DF4FE882CC58D040C357DF4FF8820B
S1132820CD58D04090E00E2C02C0959587950A941F
S1132830E2F780FF26C140E450E0C957DF4F6881CA
S11328407981C758D040C4010E94243143E551E046
S11328506AE471E0C4010E9472126F966CAD7DADA2
S11328608EAD9FAD6F97830124E040E00E947328F2
S1132870A30167E571E0C4010E947212A3966CADD6
S11328807DAD8EAD9FADA39724E040E00E947328F8
S1132890A3016AE571E0C4010E947212A7966CADAF
S11328A07DAD8EAD9FADA79724E040E00E947328D4
S11328B0A3016DE571E0C4010E947212AB966CAD88
S11328C07DAD8EAD9FADAB9724E040E00E947328B0
S11328D0A30160E671E0C4010E947212CD57DF4F7C
S11328E019821882C358D040BE016D577F4FC4016E
S11328F00E94771F5B016C01CB57DF4FE881F981A0
S1132900C558D0406083718382839383198248E0E1
S113291050E0C757DF4F68817981C958D040C10161
S11329200E942431C557DF4FE882CB58D040C457AA
S1132930DF4FF881CC58D040F23010F020E001C0D5
S113294023E0830140E0C601B5010E947328C55706
S1132950DF4F2881CB58D0402230F0F4CD57DF4FE1
S113296088819981C358D040892B19F088E491E07B
S113297001C0C3019F938F933F922F9287E596E006
S11329809F938F939F928F920E942C2C0FB6F89452
S1132990DEBF0FBECDBF37C020E030E040E85FE3CC
S11329A0C601B5010E943A2687FF03C08FE491E077
S11329B002C08CE491E09F938F933F922F92E0E5C5
S11329C0F6E0FF93EF939F928F920E942C2C0FB608
S11329D0F894DEBF0FBECDBFC557DF4F9881CB58EB
S11329E0D040923081F426E636E646E65FE3C6013F
S11329F0B5010E943A2618161CF488B1806119C0EA
S1132A0088B18F7E16C0C557DF4FE881CB58D040C0
S1132A10E33081F426E636E646E65FE3C601B50117
S1132A200E943A2618161CF488B1806202C088B14C
S1132A308F7D88B9A401C457DF4F6881CC58D0403A
S1132A40C357DF4F7881CD58D04080E090E00E949A
S1132A50810B8091680181FF14C07F926F923F9235
S1132A602F9284E496E09F938F939F928F920E947B
S1132A702C2CC4010E94CF220FB6F894DEBF0FBEE7
S1132A80CDBF9FEFE91AF90AC957DF4FE881F981F1
S1132A90C758D040E05CFF4FC957DF4FF983E88344
S1132AA0C758D040CB57DF4F88819981C558D04053
S1132AB00496CB57DF4F99838883C558D040C757B6
S1132AC0DF4FE881F981C958D0403896C757DF4FA6
S1132AD0F983E883C958D040F4E0EF16F10409F013
S1132AE093CE40E456E064E070E080E090E00E9421
S1132AF0B70B0E94262181FD03C04BE356E002C0C0
S1132B004DE356E064E070E082E190E00E94B70B90
S1132B1047E356E064E070E088E290E00E94B70B7F
S1132B200E94262182FD03C042E356E002C044E332
S1132B3056E064E070E08AE390E00E94B70B809175
S1132B4068018D7F809368010E949D0D0E94D807C3
S1132B508823F9F00E94460B43E256E062E070E0FD
S1132B6080E090E00E94B70B0E949D0D0E942621F8
S1132B7081FF04C00E948A230E9436238BED97E0D4
S1132B800E94440980E090E00E94343184FD0E9458
S1132B908E112FEF83EC99E0215080409040E1F7B3
S1132BA000C0000080CD0E94432408950E94422466
S1132BB008950E943F2608950E94B42408950E9417
S1132BC03A26181624F060E070E0CB01089560E026
S1132BD070E080E89FE308950E94AF2487FD04C05D
S1132BE060E070E0CB01089560E070E080E89FE36E
S1132BF008950E94AF24882321F060E070E0CB01A7
S1132C00089560E070E080E89FE30895CF92DF923A
S1132C10EF92FF92CF93DF9369017A0120E030E0D5
S1132C20A9010E94AF24882379F0D1E0C0E020E01C
S1132C3030E0A901C701B6010E94AF24811101C08F
S1132C40D0E06D2F7C2F02C060E070E0072E000CF6
S1132C50880B990B0E942825DF91CF91FF90EF906C
S1132C60DF90CF900895CF92DF92EF92FF92CF93AF
S1132C70DF9369017A0120E030E0A9010E94AF24CA
S1132C8081110FC0D1E0C0E020E030E0A901C7010C
S1132C90B6010E94AF24811101C0D0E06D2F7C2FBA
S1132CA002C061E070E0072E000C880B990B0E94B3
S1132CB02825DF91CF91FF90EF90DF90CF9008957A
S1132CC090580895CA01B90108958F929F92AF92C6
S1132CD0BF92CF92DF92EF92FF920F931F93CF9305
S1132CE0DF937C015B016C0188E1C822DD24C114FF
S1132CF0D10421F0670187E0C822DD244601880C55
S1132D00991CE4FC03C080E090E002C082E090E003
S1132D1084010A5F1F4F080F191FC8010E949328DE
S1132D20EC01A80160E070E00E94A22BCD2849F0DC
S1132D30A114B10431F0A401B501CE0106960E949C
S1132D40992BF982E8821B821A82CE01DF91CF91FE
S1132D501F910F91FF90EF90DF90CF90BF90AF90B5
S1132D609F908F900895CF93DF93009741F0EC01EB
S1132D700E94C216CE01DF91CF910C942B29DF91D2
S1132D80CF910895CF93DF93009761F1DC01ED912A
S1132D90FC91EF71FF273997EF30F10518F5EC013D
S1132DA0EC5CFF4F0C9459288A899B890E94B316C6
S1132DB0888999890E94B3168E859F850E94B316CF
S1132DC08C859D850E94B3168A859B850E94B316C7
S1132DD0888599850E94B3168E819F81DF91CF915A
S1132DE00C94B316DF91CF9108952F923F924F9296
S1132DF05F926F927F928F929F92AF92BF92CF9287
S1132E00DF92EF92FF920F931F93CF93DF93EC0126
S1132E1088E190E09D838C831E0182E0280E311CA2
S1132E2089E1482E512C00E210E0CA80DB80F601D3
S1132E308081811105C08AE190E09D838C83FDC06F
S1132E4090ED980F9A3010F08E3259F4B101C6010A
S1132E500E94B4296E837F83888799878EE190E0EE
S1132E60BBC081568A3108F03FC0EA81FB81808172
S1132E709FE9980F9A3138F43F019FEF691A790A54
S1132E807B826A82F2CF90ED980F9A30A8F38F3547
S1132E9099F33F016C187D08EC84FD84E114F1047E
S1132EA009F4A2C08E849F848114910409F49CC007
S1132EB0F701A080B180A301B501C6010E94B02B27
S1132EC0892B31F4F501E60DF71D8081882339F053
S1132ED0F8E0EF0EF11C81E0881A9108E5CFE114C7
S1132EE0F10409F089C080C0C60101969B838A83DE
S1132EF0F60180818A3209F44DC018F5803209F454
S1132F0075C050F4893008F46FC08B3008F46EC07B
S1132F108D3009F46BC068C0863209F451C040F4A6
S1132F20853209F061C01D830C838EE695E22AC0C8
S1132F30883209F44FC0893209F056C08DE190E01F
S1132F404BC08C33C1F170F48C3209F448C0B0F03A
S1132F508D32D9F08F3209F047C01D830C838CED7C
S1132F6095E110C08E3301F180F18E35C1F08C37BC
S1132F70D9F51D830C83E3E3F6E11AC01D830C83AA
S1132F8083ED95E19F838E8331C01D830C8386ED91
S1132F9095E1F8CF1D830C83E9EDF5E109C01D83AC
S1132FA00C838CEA96E2EECF1D830C83EFEDF5E102
S1132FB0FF83EE831BC01D830C838CEE95E1E2CF6F
S1132FC01D830C8386E096E1DDCF1D830C8389EF9E
S1132FD095E1D8CF8CE190E09D838C8307C0EBE131
S1132FE0F0E0FD83EC8302C05D824C828C819D8184
S1132FF0489709F41ACF21C0F70124813581C9010A
S11330008F7199278031910584F48830910534F0CB
S11330103D832C83F70182819381B4CF892B31F7CF
S1133020EFE1F0E0FD83EC83F5CF4897FCF6F70180
S1133030868197819B878A87EBCFDF91CF911F9100
S11330400F91FF90EF90DF90CF90BF90AF909F9043
S11330508F907F906F905F904F903F902F90089546
S1133060CF92DF92EF92FF920F931F93CF93DF9350
S113307000D000D0CDB7DEB77C010E94BA1A8C0113
S113308082E6C82E86E1D82EF701848195814B977C
S1133090B1F4C7010E94F5161A830983C7010E947F
S11330A0BA1A9C838B83BE016F5F7F4F8AE290E0E4
S11330B00E9465168C01FC01D382C282E5CFC8014F
S11330C00F900F900F900F90DF91CF911F910F9160
S11330D0FF90EF90DF90CF900895AF92BF92CF9280
S11330E0DF92EF92FF920F931F93CF93DF93EC0144
S11330F08C819D81FC01EF71FF273897E831F10540
S113310008F0BFC0ED5BFF4F0C94592860E070E0FD
S113311081E090E00E9465168C018E819F81A885D4
S1133120B985F80182839383A483B583A6C060E044
S113313070E080E090E00E9465168C018E819F8192
S1133140F8019383828399C060E070E00E94651661
S11331508C018E819F81F801938382838C8184FF0B
S113316004C08A859B8597838683CE010E94F516C9
S11331708C819D814C9709F098C0CE010E94F51670
S113318073C060E070E00E9465168C018E819F819F
S1133190F801938382838C8184FF04C08A859B8594
S11331A091878087CE010E94F516CE010E94611995
S11331B0F8019783868379C09C0128713327232BD8
S11331C029F07C01F7E0EF22FF2402C0E12CF12C6E
S11331D060E070E00E9465168C018E819F81F80189
S11331E0938382838C8184FF0AC0F7013396EE0FA8
S11331F0FF1FE00FF11F8A859B8591838083CE0199
S11332000E94F5168C819D814C9791F55801F6E04A
S1133210AF0EB11CC12CD12CCE14DF0471F0CE0141
S11332200E94F516CE010E94BA1AF501819391937A
S11332305F018C819D814B9729F08C819D814D97F5
S1133240B9F404C0FFEFCF1ADF0AE6CF21E0E21A97
S1133250F108EC14FD0461F410C0CE010E94F516CF
S1133260CE010E9430188C018C819D814D9729F0EC
S113327089E190E09D838C8318C0CE010E94F516ED
S113328014C060E070E080E090E00E9465168C015C
S113329089E190E09D838C8380E090E0A0ECBFE71F
S11332A0F80182839383A483B583C801DF91CF910E
S11332B01F910F91FF90EF90DF90CF90BF90AF9050
S11332C00895EF92FF920F931F93CF93DF9300D053
S11332D0CDB7DEB78C01EE24E394F12CF8018481A0
S11332E09581809739F0EA94EF28B1F4C8010E94DF
S11332F06D1823C0F80186819781F5E1833D9F070E
S113330021F4C8010E94F516E9CF865D954159F76D
S1133310F194E194F108F5CFC8010E946D189A83E5
S11333208983BE016F5F7F4F89E290E00E9465163A
S113333020E636E1FC01338322830F900F90DF9166
S1133340CF911F910F91FF90EF900895CF92DF924C
S1133350EF92FF920F931F93CF93DF9300D000D08F
S1133360CDB7DEB78C010E9461197C01F80184811C
S113337095818097E9F4C680D780FCEACF16F6E2FF
S1133380DF06B1F4C8010E94F516FA82E982C80189
S11333900E9461199C838B83BE016F5F7F4F8AE219
S11333A090E00E9465167C01FC01D382C282DECFCC
S11333B0C7010F900F900F900F90DF91CF911F9145
S11333C00F91FF90EF90DF90CF900895CF92DF920E
S11333D0EF92FF920F931F93CF93DF9300D000D00F
S11333E0CDB7DEB78C010E94A6197C01F801848157
S11333F09581809739F5C680D780F9EDCF16F5E130
S1133400DF06B1F4C8010E94F516FA82E982C80108
S11334100E94A6199C838B83BE016F5F7F4F8AE253
S113342090E00E9465167C01FC01D382C282DECF4B
S11334308CEDC81685E1D80629F3EEE6CE16E5E252
S1133440DE0601F3C7010F900F900F900F90DF91EC
S1133450CF911F910F91FF90EF90DF90CF9008953F
S1133460CF92DF92EF92FF920F931F93CF93DF934C
S113347000D000D0CDB7DEB78C010E94E6197C01E4
S1133480F80184819581809711F5C680D780F3ED8A
S1133490CF16F5E1DF06B1F4C8010E94F516FA82F1
S11334A0E982C8010E94E6199C838B83BE016F5F89
S11334B07F4F8AE290E00E9465167C01FC01D38272
S11334C0C282DECF86EDC81685E1D80629F3C7018E
S11334D00F900F900F900F90DF91CF911F910F914C
S11334E0FF90EF90DF90CF900895CF92DF92EF920C
S11334F0FF920F931F93CF93DF9300D000D0CDB7EB
S1133500DEB78C010E94301A7C01F8018481958118
S1133510809711F5C680D780F9EFCF16F5E1DF0665
S1133520B1F4C8010E94F516FA82E982C8010E942A
S1133530301A9C838B83BE016F5F7F4F8AE290E0D9
S11335400E9465167C01FC01D382C282DECF8FED1E
S1133550C81685E1D80629F3C7010F900F900F9084
S11335600F90DF91CF911F910F91FF90EF90DF901B
S1133570CF900895CF92DF92EF92FF920F931F9313
S1133580CF93DF9300D000D0CDB7DEB78C010E947B
S1133590751A7C01F80184819581809711F5C680A4
S11335A0D780F6E0CF16F6E1DF06B1F4C8010E9439
S11335B0F516FA82E982C8010E94751A9C838B83EE
S11335C0BE016F5F7F4F8AE290E00E9465167C0126
S11335D0FC01D382C282DECF83E3C81686E1D8061B
S11335E029F3C7010F900F900F900F90DF91CF91A7
S11335F01F910F91FF90EF90DF90CF9008952F923D
S11336003F924F925F926F927F928F929F92AF926E
S1133610BF92CF92DF92EF92FF920F931F93CF93BB
S1133620DF93CDB7DEB72F970FB6F894DEBF0FBE8A
S1133630CDBF009709F491C39F878E87DC01ED917C
S1133640FC91CF018F719927803191057CF48830EA
S11336509105DCF4009771F0019709F07EC3EE85C3
S1133660FF8562817381848195817BC348970CF4C3
S1133670AEC173C3AE85BF851296ED91FC911397CD
S113368060817181828193816CC3AE85BF851296FE
S11336902D903C901397CF0188719927892B61F065
S11336A0E770FF273197E730F10530F4E55AFF4F13
S11336B0AE85BF850C945928F1012F960FB6F89466
S11336C0DEBF0FBECDBFDF91CF911F910F91FF9051
S11336D0EF90DF90CF90BF90AF909F908F907F90AE
S11336E06F905F904F903F902F90099416968D9114
S11336F09C9117970E94FF1AF1012F960FB6F89428
S1133700DEBF0FBECDBFDF91CF911F910F91FF9010
S1133710EF90DF90CF90BF90AF909F908F907F906D
S11337206F905F904F903F902F90099418968D91D1
S11337309C9119970E94FF1A6B017C01EE85FF850D
S1133740868197810E94FF1AA7019601F1012F96A5
S11337500FB6F894DEBF0FBECDBFDF91CF911F919E
S11337600F91FF90EF90DF90CF90BF90AF909F901C
S11337708F907F906F905F904F903F902F9009941F
S11337801A968D919C911B970E94FF1A6B017C01E4
S1133790EE85FF85808591850E94FF1A4B015C01AF
S11337A0AE85BF8516968D919C9117970E94FF1A3E
S11337B087017601A5019401F1010995D2C21C96F5
S11337C08D919C911D970E94FF1A5B016C01EE85FF
S11337D0FF85828593850E94FF1A69837A838B8390
S11337E09C83AE85BF8518968D919C9119970E94F4
S11337F0FF1A2B013C01EE85FF85868197810E948B
S1133800FF1AE980FA800B811C81A3019201F10166
S11338100995A7C21E968D919C911F970E94FF1A2D
S11338207B018C01EE85FF85848595850E94FF1AB6
S11338305B016C01AE85BF851A968D919C911B9797
S11338400E94FF1A69837A838B839C83EE85FF85AC
S1133850808591850E94FF1A2B013C01AE85BF85AE
S113386016968D919C9117970E94FF1A1F930F93A0
S1133870FF92EF92E980FA800B811C81A3019201EF
S1133880F1010995ACC150968D919C9151970E947C
S1133890FF1A7B018C01EE85FF85868597850E9442
S11338A0FF1A6D8379874C01AE85BF851C968D9177
S11338B09C911D970E94FF1A5B016C01EE85FF85A8
S11338C0828593850E94FF1A69837A838B839C8304
S11338D0AE85BF8518968D919C9119970E94FF1A09
S11338E02B013C01EE85FF85868197810E94FF1A9A
S11338F01F930F93FF92EF929F928F92F985FF93FC
S11339002D812F93E980FA800B811C81A301920100
S1133910F10109951CC252968D919C9153970E9476
S1133920FF1A7B018C01EE85FF85808991890E94B5
S1133930FF1A6D8379874C01AE85BF851E968D91E4
S11339409C911F970E94FF1A6A877B878C879D87AB
S1133950EE85FF85848595850E94FF1A5B016C01C5
S1133960AE85BF851A968D919C911B970E94FF1A74
S113397069837A838B839C83EE85FF85808591851B
S11339800E94FF1A2B013C01AE85BF8516968D91CE
S11339909C9117970E94FF1A1F930F93FF92EF9227
S11339A09F928F92B985BF93ED81EF93FD85FF932D
S11339B02C852F933B853F93AA85AF93E980FA80AA
S11339C00B811C81A3019201F1010995C0C1AE854F
S11339D0BF8512960D90BC91A02DBA83A983CF0107
S11339E088719927892B61F0E770FF273197E730B9
S11339F0F10530F4EE59FF4FAE85BF850C9459287C
S1133A00EE85FF8586819781E981FA812F960FB62D
S1133A10F894DEBF0FBECDBFDF91CF911F910F9100
S1133A20FF90EF90DF90CF90BF90AF909F908F90DA
S1133A307F906F905F904F903F902F9009941696CF
S1133A408D919C9117970E94FF1AAB01BC01EE85E2
S1133A50FF8580859185E981FA812F960FB6F894C8
S1133A60DEBF0FBECDBFDF91CF911F910F91FF90AD
S1133A70EF90DF90CF90BF90AF909F908F907F900A
S1133A806F905F904F903F902F90099418968D916E
S1133A909C9119970E94FF1A6B017C01EE85FF85AA
S1133AA0868197810E94FF1AAB01BC0197018601B0
S1133AB0AE85BF851A968D919C911B97E981FA81F9
S1133AC009954FC11A968D919C911B970E94FF1ADC
S1133AD06B017C01EE85FF85808591850E94FF1A2C
S1133AE04B015C01AE85BF8516968D919C9117970D
S1133AF00E94FF1AAB01BC0195018401EE85FF858C
S1133B0084859585E981FA8109952BC11C968D914F
S1133B109C911D970E94FF1A4B015C01EE85FF8565
S1133B20828593850E94FF1A6B017C01AE85BF8557
S1133B3018968D919C9119970E94FF1A2B013C01B4
S1133B40EE85FF85868197810E94FF1AAB01BC0137
S1133B5093018201AE85BF851E968D919C911F971E
S1133B60E981FA810995FDC01E968D919C911F975C
S1133B700E94FF1A362E272E182F092FEE85FF8557
S1133B80848595850E94FF1A4B015C01AE85BF8533
S1133B901A968D919C911B970E94FF1A6B017C01D0
S1133BA0EE85FF85808591850E94FF1A2B013C01DB
S1133BB0AE85BF8516968D919C9117970E94FF1A2A
S1133BC0AB01BC010F931F932F923F92930182018B
S1133BD0EE85FF8580899189E981FA8109950F90A5
S1133BE00F900F900F90BDC050968D919C9151975E
S1133BF00E94FF1A762E672E8D839987EE85FF85A6
S1133C00868597850E94FF1A6A877B87182F092F5C
S1133C10AE85BF851C968D919C911D970E94FF1ABD
S1133C204B015C01EE85FF85828593850E94FF1A16
S1133C306B017C01AE85BF8518968D919C91199777
S1133C400E94FF1A1B012C01EE85FF858681978156
S1133C500E94FF1AAB01BC01F985FF932D812F93BC
S1133C606F927F920F931F933B853F938A858F9327
S1133C7092018101AE85BF8552968D919C91539797
S1133C80E981FA81099563C052968D919C9153976D
S1133C900E94FF1A69877A878B879C87EE85FF8548
S1133CA0808991890E94FF1A562E472E382E292E7C
S1133CB0AE85BF851E968D919C911F970E94FF1A19
S1133CC0762E672E182F092FEE85FF85848595851E
S1133CD00E94FF1A4B015C01AE85BF851A968D9137
S1133CE09C911B970E94FF1A6B017C01EE85FF8556
S1133CF0808591850E94FF1A6D837E838F839887C8
S1133D00AE85BF8516968D919C9117970E94FF1AD8
S1133D10AB01BC01BC85BF93EB85EF93FA85FF93A0
S1133D2029852F932F923F924F925F920F931F9367
S1133D306F927F920D811E812F813885AE85BF855C
S1133D4054968D919C915597E981FA8109950FB606
S1133D50F894DEBF0FBECDBF04C060E070E080EC1D
S1133D609FE72F960FB6F894DEBF0FBECDBFDF914D
S1133D70CF911F910F91FF90EF90DF90CF90BF9064
S1133D80AF909F908F907F906F905F904F903F90F7
S1133D902F9008958F929F92AF92BF92CF92DF920D
S1133DA0EF92FF920F931F93CF93DF93DC012D913A
S1133DB03C9122303105F0F125FF3CC089010871A6
S1133DC011270115110519F0890107701127EC015C
S1133DD06C01B6E0CB0ED11CE12CF12C8824839429
S1133DE0912CE016F106A1F05601F6018191919112
S1133DF06F010E94CA1ED501ED91FC9180819181D1
S1133E00019711F0812C912CBFEFEB1AFB0AE9CF3B
S1133E10892881F0CE010E94FF1A6B017C01CE013A
S1133E200E94C21681E090E099838883CA82DB8273
S1133E30EC82FD82DF91CF911F910F91FF90EF9063
S1133E40DF90CF90BF90AF909F908F900895EF92A6
S1133E50FF920F931F93CF93DF93CDB7DEB7609795
S1133E600FB6F894DEBF0FBECDBF79019C838B8360
S1133E709A8389837E876D87588B4F87CE010196FD
S1133E800E94F516CE0101960E9430188C018D8196
S1133E909E814A97A9F0C8010E94B316E114F10467
S1133EA061F08B819C8129813A81821B930B11F4EF
S1133EB081E090E0F7019183808380E090E00AC084
S1133EC0C8010E94CA1EE114F10419F0F70111821D
S1133ED01082C80160960FB6F894DEBF0FBECDBF46
S1133EE0DF91CF911F910F91FF90EF900895CF92A2
S1133EF0DF92EF92FF92CF93DF939B0140E050E07B
S1133F0060E070E00E94271FEC01009741F00E94DE
S1133F10FF1A6B017C01CE010E94B31606C0C12CAE
S1133F20D12C80ECE82E8FE7F82EC701B601DF9183
S1133F30CF91FF90EF90DF90CF9008951F920F9252
S1133F400FB60F9211242F938F939F93EF93FF93A8
S1133F5080916B0190E02091C600FC01EC50FC4F75
S1133F60208301968F77992780936B0190916A0142
S1133F70981303C081E080936901FF91EF919F91B1
S1133F808F912F910F900FBE0F901F901895CF9285
S1133F90DF92EF92FF926B017C019B01AC0184E004
S1133FA0220F331F441F551F8A95D1F760E074E236
S1133FB084EF90E00E943728BA01A90141505109C9
S1133FC061097109F894E5ECF0E08081852B808328
S1133FD04093C40060E472E48FE090E0A70196018E
S1133FE00E9437286AE0629FC001639F900D1124EC
S1133FF0C3969093750480937404E1ECF0E080819F
S113400088618083A2ECB0E08C9186608C9380817F
S1134010806880837894FF90EF90DF90CF9008952C
S113402081E020916B0190916A01291301C080E025
S1134030089580916901882329F01092690180E034
S11340409AEF089520916A0180916B01281769F015
S113405030E0F901EC50FC4F80812F5F3F4F2F7708
S1134060332720936A0190E0089580E09BEF089540
S11340709091C00095FFFCCF8093C6000895CF9324
S1134080DF93EC01FE018491882321F00E94382003
S11340902196F8CFDF91CF910895CF93DF93EC0170
S11340A08991882319F00E943820FACFDF91CF91AB
S11340B008958F929F92AF92BF92CF92DF92EF9228
S11340C0FF920F931F93CF93DF93662309F43EC0AF
S11340D0C32ED22EA42EE62EEC01822F932F0E9403
S11340E03E2B982EB12CF12C21E0E21AF1088D2CF4
S11340F00B2D10E00E151F0524F0C00FD11F1882E0
S113410027C00E94192081152AEF9207B1F3811567
S11341102BEF920741F4AA2081F30E941920811504
S11341202BEF9207D1F3ED2DFC2D2E2F28192915F5
S113413038F4249130E0319628173907B1F7DDCFF0
S1134140FE01E00FF11F8083B394D2CF00E010E0B2
S1134150C801DF91CF911F910F91FF90EF90DF90F5
S1134160CF90BF90AF909F908F900895CF92DF92A1
S1134170EF92FF920F931F93CF93DF93662389F1FE
S1134180D42F7C01C0E0062F10E001501109CC2E81
S1134190D12CC016D106ECF40E94192081152AEF07
S11341A09207B9F081152BEF920741F4DD2389F0D2
S11341B00E94192081152BEF9207D1F38A309105C3
S11341C011F4C15006C0F701EC0DFD1D8083CF5FD3
S11341D0DECF2C2F30E0F701E20FF31F1082C9016C
S11341E002C080E090E0DF91CF911F910F91FF908A
S11341F0EF90DF90CF900895FF920F931F93CF938A
S1134200DF936623E9F0162F092FF82E0E94192058
S1134210CF2DD02F9E01210F311D890181152AEF49
S1134220920771F0C017D10759F081153BEF93073E
S113423019F40E941920F9CF89930E941920EECF16
S1134240DF91CF911F910F91FF90089580916C01A0
S11342500895CF93DF93CDB7DEB760970FB6F89488
S1134260DEBF0FBECDBF80916C018E7F80936C0149
S11342702FEF80E792E0215080409040E1F700C0AA
S113428000002FEF83ED90E3215080409040E1F750
S113429000C0000060E875E280E090E00E94C71F63
S11342A08FE99AE00E943F202FEF89E698E12150A0
S11342B080409040E1F700C000000E941020882355
S11342C0D9F00E9410208823A9F040E060E1CE01DB
S11342D001960E94B6206CE97AE0CE0101960E9414
S11342E02E2B892B71F780916C01816080936C0176
S11342F080E003C082E001C081E060960FB6F894CC
S1134300DEBF0FBECDBFDF91CF910895AF92BF92B4
S1134310CF92DF92EF92FF920F931F93CF93DF938D
S1134320CDB7DEB7C455D1090FB6F894DEBF0FBEC2
S1134330CDBF81E99AE00E943F2010E041E060E8AF
S1134340CE0101960E94B6208823C1F36EE87AE07C
S1134350CE0101960E942E2B892B09F44BC068E8EC
S11343607AE0CE0101960E942E2B892B09F444C0D9
S113437047E050E060E87AE0CE0101960E945F2BAE
S1134380892BE1F61430D4F66BE77AE0CE01089677
S11343900E94292B00E042E2140390011124F90148
S11343A0E559FC4F7F016F01F0E2CF0ED11C57019C
S11343B021E2A20EB11C0097D9F0013059F030F07F
S11343C0023071F40E94022BF50109C00E94022BF5
S11343D0F60105C0BC01C7010E94A92B01C080835E
S11343E00F5F66E77AE080E090E00E94292BE3CF3C
S11343F01F5FA4CF812F01C08FEFCC5ADF4F0FB6C0
S1134400F894DEBF0FBECDBFDF91CF911F910F9106
S1134410FF90EF90DF90CF90BF90AF900895EF9210
S1134420FF920F931F93CF93DF93CDB7DEB76097BF
S11344300FB6F894DEBF0FBECDBF7C018B01809117
S11344406C018D7F80936C018BE69AE00E943F2083
S1134450C7010E944D2087E69AE00E943F20C801D0
S11344600E944D2083E69AE00E943F2041E060E1F3
S1134470CE0101960E94B6208823C1F360E67AE05B
S1134480CE0101960E942E2B892B39F480916C0168
S1134490826080936C0180E011C06BE57AE0CE010C
S11344A001960E942E2B892B41F065E57AE0CE011E
S11344B001960E942E2B892BC9F68FEF60960FB6BA
S11344C0F894DEBF0FBECDBFDF91CF911F910F9146
S11344D0FF90EF900895EF92FF920F931F93CF9365
S11344E0DF93CDB7DEB760970FB6F894DEBF0FBE8B
S11344F0CDBF7C018B0180916C018B7F80936C011B
S113450081E49AE00E943F20C7010E944D204AE0C6
S1134510BE016F5F7F4FC8010E94FF2B8EE39AE0BC
S11345200E943F20CE0101960E944D208BE39AE029
S11345300E943F2041E060E1CE0101960E94B62036
S11345408823C1F368E37AE0CE0101960E942E2B02
S1134550892B39F480916C01846080936C0180E034
S113456011C063E37AE0CE0101960E942E2B892BC1
S113457041F06DE27AE0CE0101960E942E2B892B48
S1134580C9F68FEF60960FB6F894DEBF0FBECDBFAD
S1134590DF91CF911F910F91FF90EF9008950F93AA
S11345A01F93CF93DF93CDB7DEB760970FB6F89420
S11345B0DEBF0FBECDBF8C0181E29AE00E943F2096
S11345C0F80101900020E9F7CF0101974AE0BE010C
S11345D06F5F7F4F801B910B0E94FF2BCE010196D2
S11345E00E944D208EE19AE00E943F208FE39CE9D7
S11345F00197F1F700C00000C8010E944D208BE133
S11346009AE00E943F2041E060E1CE0101960E94C1
S1134610B6200097C1F30196C9F063E17AE0CE01B8
S113462001960E942E2B892B99F06EE07AE0CE0140
S113463001960E942E2B892B69F068E07AE0CE0166
S113464001960E942E2B892BF1F604C083E003C04F
S113465080E001C08FEF60960FB6F894DEBF0FBE06
S1134660CDBFDF91CF911F910F910895CF93DF9329
S1134670CDB7DEB760970FB6F894DEBF0FBECDBFDF
S11346808DEF99E00E943F2080916C01897F809397
S11346906C0141E060E1CE0101960E94B6200097D2
S11346A0C1F3019649F16AEF79E0CE0101960E94C7
S11346B02E2B892B19F16AEE79E0CE0101960E9426
S11346C02E2B892BD9F06CED79E0CE0101960E9456
S11346D02E2B892B99F067ED79E0CE0101960E948B
S11346E02E2B892B69F061ED79E0CE0101960E94B1
S11346F02E2B892B71F604C083E003C080E001C037
S11347008FEF60960FB6F894DEBF0FBECDBFDF917A
S1134710CF910895CF93DF93CDB7DEB760970FB6EF
S1134720F894DEBF0FBECDBF83EC99E00E943F201A
S113473080916C018B7F80936C0141E060E1CE013C
S113474001960E94B6200097C1F3019649F160ECEE
S113475079E0CE0101960E942E2B892B19F160EB92
S113476079E0CE0101960E942E2B892BD9F062EAC2
S113477079E0CE0101960E942E2B892B99F06DE9E8
S113478079E0CE0101960E942E2B892B69F067E90E
S113479079E0CE0101960E942E2B892B71F604C07C
S11347A083E003C080E001C08FEF60960FB6F894F9
S11347B0DEBF0FBECDBFDF91CF910895FF920F935F
S11347C01F93CF93DF93CDB7DEB7C058D1090FB68F
S11347D0F894DEBF0FBECDBF8C010E941020882349
S11347E009F443C023E939E040E060E8CE010196D2
S11347F00E945920882389F345E050E06DE879E070
S1134800CE0101960E945F2B892BA1F4CE0106965E
S11348100E94022BF82E682FCE0101960E94FC20E4
S113482001151105D1F2BE016F5F7F4F8F2DF80185
S11348300995D3CF6DE779E0CE0101960E942E2B26
S1134840892B21F480916C01897F0CC066E779E0A3
S1134850CE0101960E942E2B892B09F0BECF8091A8
S11348606C018B7F80936C01B8CFC058DF4F0FB6BB
S1134870F894DEBF0FBECDBFDF91CF911F910F9192
S1134880FF9008955058BB27AA270E945A240C94DD
S113489000260E94F22538F00E94F92520F039F410
S11348A09F3F19F426F40C94EF250EF4E095E7FBF2
S11348B00C94DB25E92F0E94112658F3BA176207DE
S11348C073078407950720F079F4A6F50C94332632
S11348D00EF4E0950B2EBA2FA02D0B01B901900117
S11348E00C01CA01A0011124FF27591B99F0593F5B
S11348F050F4503E68F11A16F040A22F232F342FA3
S11349004427585FF3CF469537952795A795F040F0
S11349105395C9F77EF41F16BA0B620B730B840B05
S1134920BAF09150A1F0FF0FBB1F661F771F881FBD
S1134930C2F70EC0BA0F621F731F841F48F4879515
S113494077956795B795F7959E3F08F0B0CF939507
S1134950880F08F09927EE0F9795879508950E9480
S1134960B72508F481E008950E94C8240C94002619
S11349700E94F92558F00E94F22540F029F45F3F87
S113498029F00C94DB2551110C9434260C94EF255A
S11349900E94112668F39923B1F3552391F3951BD3
S11349A0550BBB27AA2762177307840738F09F5F4C
S11349B05F4F220F331F441FAA1FA9F335D00E2EB9
S11349C03AF0E0E832D091505040E695001CCAF726
S11349D02BD0FE2F29D0660F771F881FBB1F2617E9
S11349E037074807AB07B0E809F0BB0B802DBF01C0
S11349F0FF2793585F4F3AF09E3F510578F00C948F
S1134A00DB250C9434265F3FE4F3983ED4F386957B
S1134A1077956795B795F7959F5FC9F7880F911DAF
S1134A209695879597F90895E1E0660F771F881F9B
S1134A30BB1F621773078407BA0720F0621B730B4E
S1134A40840BBA0BEE1F88F7E0950895E89409C02B
S1134A5097FB3EF490958095709561957F4F8F4FAD
S1134A609F4F9923A9F0F92F96E9BB279395F695C3
S1134A70879577956795B795F111F8CFFAF4BB0F41
S1134A8011F460FF1BC06F5F7F4F8F4F9F4F16C0A5
S1134A90882311F096E911C0772321F09EE8872F2F
S1134AA0762F05C0662371F096E8862F70E060E0EB
S1134AB02AF09A95660F771F881FDAF7880F969564
S1134AC0879597F908950E94F22520F019F00E9425
S1134AD0F92550F40C94EF250C943426E92F0E9408
S1134AE0112688F35523B1F3E7FB62177307840794
S1134AF09507A8F189F3E92FFF2788232AF0319736
S1134B00660F771F881FDAF7952F5527442332F055
S1134B1091505040220F331F441FD2F7BB27E91B8B
S1134B20F50B621B730B840BB109B1F222F4620F13
S1134B30731F841FB11D31972AF0660F771F881FDA
S1134B40BB1FEFCF9150504062F041F0882332F008
S1134B50660F771F881F91505040C1F793950C94AE
S1134B60E1258695779567959F5FD9F7F7CF990FDC
S1134B700008550FAA0BE0E8FEEF16161706E80723
S1134B80F907C0F012161306E407F50798F0621B44
S1134B90730B840B950B39F40A2661F0232B242B19
S1134BA0252B21F408950A2609F4A140A6958FEF38
S1134BB0811D811D089597F99F6780E870E060E08A
S1134BC008959F3F31F0915020F48795779567952C
S1134BD0B795880F911D9695879597F908959FEF3E
S1134BE080EC089500240A94161617061806090680
S1134BF0089500240A94121613061406050608954F
S1134C00092E0394000C11F4882352F0BB0F40F4D6
S1134C10BF2B11F460FF04C06F5F7F4F8F4F9F4F16
S1134C20089557FD9058440F551F59F05F3F71F098
S1134C304795880F97FB991F61F09F3F79F08795FF
S1134C400895121613061406551FF2CF4695F1DF88
S1134C5008C0161617061806991FF1CF8695710518
S1134C60610508940895E894BB2766277727CB014C
S1134C7097F908950E94B72508F48FEF08950E94CC
S1134C8052260C9400260E94F22538F00E94F92541
S1134C9020F0952311F00C94DB250C94EF251124BE
S1134CA00C9434260E94112670F3959FC1F3950F3E
S1134CB050E0551F629FF001729FBB27F00DB11D9C
S1134CC0639FAA27F00DB11DAA1F649F6627B00D2C
S1134CD0A11D661F829F2227B00DA11D621F739F15
S1134CE0B00DA11D621F839FA00D611D221F749F23
S1134CF03327A00D611D231F849F600D211D822F6A
S1134D00762F6A2F11249F5750409AF0F1F0882390
S1134D104AF0EE0FFF1FBB1F661F771F881F9150BD
S1134D205040A9F79E3F510580F00C94DB250C946C
S1134D3034265F3FE4F3983ED4F3869577956795E0
S1134D40B795F795E7959F5FC1F7FE2B880F911DE7
S1134D509695879597F90895FA01EE0FFF1F3096FF
S1134D6021053105A1F16115710561F48038BFE3B6
S1134D709B0749F168949038810561F08038BFEF52
S1134D809B0741F099234AF5FF3FE10531052105D1
S1134D9019F1E8940894E795D901AA2329F4AB2FD3
S1134DA0BE2FF85FD0F310C0FF5F70F4A695E0F754
S1134DB0F73950F019F0FF3A38F49F779F930DD0EC
S1134DC00F9007FC9058089546F00C94EF2560E08E
S1134DD070E080E89FE308954FE79F775F934F93D8
S1134DE03F932F930E94A7272F913F914F915F915B
S1134DF00E943F260C94042729F416F00C94DB251A
S1134E000C9433260C94EF250E941926A8F39638A7
S1134E10A0F707F80F92E8942BE33AEA48EB5FE730
S1134E200E9455260F920F920F924DB75EB70F92C4
S1134E300E94EF27E2EDF0E00E9436274F915F9148
S1134E40EF91FF91E595EE1FFF1F49F0FE57E068D3
S1134E504427EE0F441FFA95E1F74195550B0E9444
S1134E6069270F9007FE0C945D270895DF93CF9375
S1134E701F930F93FF92EF92DF927B018C01689452
S1134E8006C0DA2EEF010E945226FE01E894A59195
S1134E902591359145915591A6F3EF010E945A242D
S1134EA0FE019701A801DA9469F7DF90EF90FF9073
S1134EB00F911F91CF91DF9108959B01AC0160E0A8
S1134EC070E080E89FE30C94B4240C94DB250C94EC
S1134ED0E1250E941926D8F39923C9F3940F511D93
S1134EE0A3F39150504094F059F0882332F0660FA8
S1134EF0771F881F91505040C1F79E3F51052CF7F2
S1134F00880F911D9695879597F908955F3FACF0AA
S1134F10983E9CF0BB27869577956795B79508F4DE
S1134F20B1609395C1F7BB0F58F711F460FFE8CF58
S1134F306F5F7F4F8F4F9F4FE3CF0C94342616F053
S1134F400C94E1250C94EF2568940C94DB250E94C5
S1134F501926A8F39923C1F3AEF3DF93CF931F93DC
S1134F600F93FF92C92FDD2788232AF02197660F1C
S1134F70771F881FDAF720E030E040E85FEB9FE31B
S1134F80883920F0803E38F021968F770E944324A0
S1134F90EAEFF0E004C00E944324E7E2F1E00E945B
S1134FA036278B01BE01EC01FB2E6F5771097595F5
S1134FB0771F880B990B0E94282528E132E741E3EB
S1134FC05FE30E945226AF2D9801AE01FF900F912E
S1134FD01F91CF91DF910E945A240C940026FA016C
S1134FE0DC01AA0FBB1F9B01AC01BF5728F4222789
S1134FF033274427507820C0B75190F4AB2F0024B6
S1135000469537952795011CA395D2F3002071F09E
S1135010220F331F441FB395DAF30ED00C944224AD
S113502061307105A0E88A07B94630F49B01AC01F0
S11350306627772788279078309621F0208331835C
S113504042835383089597FB072E16F4009407D0E8
S113505077FD09D00E945F2807FC05D03EF49095A7
S113506081959F4F0895709561957F4F0895A1E2B2
S11350701A2EAA1BBB1BFD010DC0AA1FBB1FEE1FCE
S1135080FF1FA217B307E407F50720F0A21BB30B19
S1135090E40BF50B661F771F881F991F1A9469F795
S11350A060957095809590959B01AC01BD01CF01F1
S11350B00895EE0FFF1F0590F491E02D0994AA1BAB
S11350C0BB1B51E107C0AA1FBB1FA617B70710F0EF
S11350D0A61BB70B881F991F5A95A9F78095909521
S11350E0BC01CD010895EF920F931F93CF93DF93EB
S11350F0E80147FD02C034E001C034E1042E000C95
S1135100550B57FF03C0519541955109E32E022FCA
S1135110242FAE010E942F2ECE01DF91CF911F913B
S11351200F91EF9008950F931F93CF93DF938230E5
S1135130910510F482E090E0E0917804F091790414
S113514020E030E0A0E0B0E0309719F140815181D7
S11351500281138148175907C8F08417950769F429
S1135160109731F012960C93129713961C9327C044
S1135170009378041093790422C02115310519F0A5
S11351804217530718F49A01BD01EF01DF01F8013A
S1135190DBCF21153105F9F0281B390B24303105FB
S11351A080F48A819B816115710521F0FB01938351
S11351B0828304C09093790480937804FE0132962C
S11351C044C0FE01E20FF31F8193919322503109F1
S11351D0398328833AC02091760430917704232BB5
S11351E041F420910201309103013093770420931C
S11351F0760420910001309101012115310541F41B
S11352002DB73EB74091040150910501241B350B85
S1135210E0917604F0917704E217F307A0F42E1BD3
S11352203F0B2817390778F0AC014E5F5F4F241706
S1135230350748F04E0F5F1F509377044093760470
S11352408193919302C0E0E0F0E0CF01DF91CF9130
S11352501F910F910895CF93DF93009709F481C0B4
S1135260FC01329713821282A0917804B0917904E0
S1135270109781F420813181820F931F209176044D
S1135280309177042817390751F5F0937704E093A8
S1135290760467C0ED0120E030E0CE17DF0740F46C
S11352A04A815B819E0141155105F1F0EA01F5CF78
S11352B0D383C28340815181840F951FC817D907B6
S11352C059F488819981840F951F02969183808374
S11352D08A819B81938382832115310529F4F0937C
S11352E07904E09378043DC0E901FB83EA834991A2
S11352F05991C40FD51FEC17FD0761F4808191818A
S1135300840F951F0296E901998388838281938192
S11353109B838A83E0E0F0E012968D919C91139731
S1135320009719F0FD01DC01F7CF8D919C91119745
S11353309D012E5F3F4F820F931F20917604309181
S113534077042817390769F4309729F410927904FF
S11353501092780402C013821282B0937704A0934F
S11353607604DF91CF910895A0E0B0E0EAEBF9E292
S11353700C947B31EC016B016115710519F0FB0193
S1135380918380837E01FFEFEF1AFF0A0881802F4B
S113539090E00E94202B892B11F0E701F3CF0D320E
S11353A039F47E0182E0E80EF11C098111E008C0A5
S11353B00B3229F47E0192E0E90EF11C098110E020
S11353C0E701219743E050E06CE571E0CE010E94D3
S11353D0472B892BC1F4239645E050E067E571E043
S11353E0CE010E94472B892B09F42596C114D104C0
S11353F019F0F601D183C0831111F6C060E070E0AA
S113540080E89FE7FAC043E050E064E571E0CE0134
S11354100E94472B892B59F4C114D10409F4E9C023
S1135420F2E0EF0EF11CF601F182E082E2C020E02E
S113543030E0A901C0E0D0E0F70180EDA82EA00E75
S113544089E08A1530F1912F9260B92E812F8870EE
S113545012FF04C0811124C0219622C0811121971A
S1135460A5E0B0E00E946A31DC01CB01880F991FEE
S1135470AA1FBB1F9C01AD012A0D311D411D511DE9
S1135480283989E93807480789E1580748F0166040
S113549006C09EEFA9120AC013FD40C01860B12EC9
S11354A08FEFE81AF80A00811B2DC6CF802F8F7D5D
S11354B08534A1F580818D3211F4106106C08B32E0
S11354C021F0319661E070E004C08181329662E09F
S11354D070E080538A3018F0E61BF70B1FC060E0C1
S11354E070E060389CE079075CF4DB01AA0FBB1F15
S11354F0AA0FBB1F6A0F7B1F660F771F680F711DF2
S11355003196DF0111978C9180538A3050F314FF48
S113551003C0719561957109C60FD71F11FF08C0AB
S1135520C114D10429F0CF010197F601918380833E
S1135530CA01B9010E942625212F2370233019F0B6
S11355404B015C0106C04B015C01B7FAB094B7F89B
S1135550B09420E030E0A901C501B4010E94AF2459
S1135560882309F43EC0D7FF06C0D195C195D1095F
S113557003E711E002C00BE811E06801F8E1CF1A7B
S1135580D10890E2E92EF12CCE15DF0574F0F80174
S11355902591359145915491C501B4010E943F264E
S11355A04B015C01CE19DF09EFCF04501109F594CA
S11355B0E7940C151D0541F78A2D880F8B2D881F44
S11355C08F3F49F020E030E0A901C501B4010E94F9
S11355D0AF24811106C082E290E090937B04809313
S11355E07A04C501B40109C060E070E080E89FEF6F
S11355F004C060E070E080EC9FE7CDB7DEB7ECE07C
S11356000C949731FC0188279927E8942191203242
S1135610E9F3293010F02E30C8F32B3241F02D324B
S113562039F4689404C00E940A2C820F911D2191C0
S113563020532A30C0F31EF4909581959F4F08950E
S113564091110C946130803219F089508550C8F75B
S1135650089544E651E00E946D2B0895FB01DC019E
S11356608D91059080190110D9F3990B0895FB01D0
S1135670DC0105900D920020E1F70895FC010590EE
S11356800020E9F7809590958E0F9F1F0895FB01E8
S1135690DC014150504088F08D9181341CF08B35F1
S11356A00CF4805E659161341CF06B350CF4605E23
S11356B0861B611171F3990B0895881BFCCFFB01C4
S11356C0DC014150504030F08D910590801919F45F
S11356D00020B9F7881B990B0895FA01A191B081B4
S11356E0009719F41097E1F0CD01DC01CD010D9084
S11356F0002011F4C00113C0FB012591222319F0ED
S11357002015D9F7F3CFFB012591201519F41E922A
S1135710119606C02223C1F70D900020A1F7D001F5
S1135720FA01A193B083089546E651E00E94D82B74
S11357300895FB01DC0102C001900D9241505040DC
S1135740D8F70895DC0101C06D9341505040E0F753
S11357500895FB01DC0101900D920020E1F708950A
S1135760FB01DC014150504030F08D9101908019D3
S113577019F40020B9F7881B990B0895FB01519186
S11357805523A9F0BF01DC014D9145174111E1F703
S113579059F4CD010190002049F04D91401541117B
S11357A0C9F3FB014111EFCF81E090E00197089527
S11357B0FA01A191B081009719F41097E1F0CD019D
S11357C0DC01CD010D90002011F4C00113C0FB01D8
S11357D02191222319F02015D9F7F3CFFB01219150
S11357E0201519F41E92119606C02223C1F70D90BC
S11357F00020A1F7D001FA01A193B0830895BB273B
S11358004A3031F4992322F4BDE2909581959F4F5B
S11358100C94132C7AE0979F902D879F802D910DE7
S113582011240895BB27FB015527AA27880F991F28
S1135830AA1FA41710F0A41B83955051B9F7A05DBB
S1135840AA3308F0A95DA193009779F7B111B19338
S11358501192CB010C947A30AEE0B0E0E2E3FCE2CA
S11358600C9483310D891E898EE08C831A830983FD
S11358708FEF9FE79E838D83AE01475E5F4F6F89F5
S1135880788DCE0101960E944E2CEF81F885E00FB1
S1135890F11F10822E96E4E00C949F31ABE0B0E04F
S11358A0E4E5FCE20C9475316C017B018A01FC0196
S11358B017821682838181FFCCC1CE0101963C01FF
S11358C0F6019381F70193FD859193FF81917F0107
S11358D0882309F4BAC1853239F493FD859193FF85
S11358E081917F01853229F4B60190E00E948A30CB
S11358F0E7CF912C212C312CFFE1F315D8F08B321A
S113590079F038F4803279F08332A1F4232D2061C8
S11359101DC08D3261F0803369F4232D216016C0DF
S1135920832D8260382EE32DE4603E2E2AC0F32DB1
S1135930F8601DC037FC2DC020ED280F2A3040F040
S11359408E32B9F436FC81C1232D2064322E19C065
S113595036FE06C08AE0989E200D1124922E11C0B6
S1135960EAE02E9E200D1124222EF32DF0623F2E0C
S113597008C08C3621F4832D8068382E02C0883606
S113598041F4F70193FD859193FF81917F0181118A
S1135990B3CF982F9F7D9554933028F40C5F1F4FFD
S11359A09FE399830DC0833631F0833771F08335DB
S11359B009F059C021C0F801808189830E5F1F4F0F
S11359C088248394912C530113C02801F2E04F0ED4
S11359D0511CF801A080B18036FE03C0692D70E02F
S11359E002C06FEF7FEFC5010E946F304C0182014E
S11359F0F32DFF773F2E16C0280122E0420E511CE2
S1135A00F801A080B18036FE03C0692D70E002C0A9
S1135A106FEF7FEFC5010E9464304C01F32DF068F5
S1135A203F2E820133FC1BC0822D90E0881699061C
S1135A30B0F4B60180E290E00E948A302A94F4CF58
S1135A40F50137FC859137FE81915F01B60190E045
S1135A500E948A3021102A9421E0821A910881142C
S1135A60910471F7E8C0843611F0893641F5F801E4
S1135A7037FE07C060817181828193810C5F1F4F63
S1135A8008C060817181072E000C880B990B0E5F92
S1135A901F4FF32DFF763F2E97FF09C090958095F9
S1135AA0709561957F4F8F4F9F4FF0683F2E2AE08E
S1135AB030E0A3010E94C630882E861845C0853781
S1135AC031F4232D2F7EB22E2AE030E025C0932D11
S1135AD0997FB92E8F36C1F018F4883579F0B5C0A6
S1135AE0803719F0883721F0B0C0E92FE061BE2E6D
S1135AF0B4FE0DC0FB2DF460BF2E09C034FE0AC0F5
S1135B00292F2660B22E06C028E030E005C020E12F
S1135B1030E002C020E132E0F801B7FE07C0608146
S1135B207181828193810C5F1F4F06C060817181F6
S1135B3080E090E00E5F1F4FA3010E94C630882EC4
S1135B408618FB2DFF773F2E36FE0DC0232D2E7FAA
S1135B50A22E891458F434FE0BC032FC09C0832DE4
S1135B608E7EA82E05C0B82CA32C03C0B82C01C06F
S1135B70B92CA4FE0FC0FE01E80DF11D8081803315
S1135B8021F49A2D997EA92E09C0A2FE06C0B394D1
S1135B90B39404C08A2D867809F0B394A3FC11C091
S1135BA0A0FE06C0B21488F4280C922C9B180EC0D8
S1135BB0B21460F4B60180E290E00E948A30B3949B
S1135BC0F7CFB21418F42B1802C0982C212CA4FE81
S1135BD010C0B60180E390E00E948A30A2FE17C094
S1135BE0A1FC03C088E790E002C088E590E0B6011C
S1135BF00CC08A2D867859F0A1FE02C08BE201C048
S1135C0080E2A7FC8DE2B60190E00E948A308914FC
S1135C1038F4B60180E390E00E948A309A94F7CF7A
S1135C208A94F301E80DF11D8081B60190E00E9491
S1135C308A308110F5CF222009F442CEB60180E2E9
S1135C4090E00E948A302A94F6CFF60186819781EB
S1135C5002C08FEF9FEF2B96E2E10C949131A9E003
S1135C60B0E0E5E3FEE20C947B316A01122FB02E22
S1135C702BE3201720F0FF24F394F00E02C02CE352
S1135C80F22E0F2D27E0AE014F5F5F4F0E94892F48
S1135C90BC014981842F8970813031F0E1FC06C058
S1135CA0E0FE06C090E205C09DE203C09BE201C095
S1135CB090E05E2D507143FF3CC0911102C083E01F
S1135CC001C084E0811718F4212F281B01C020E0B3
S1135CD051110BC0F601822F30E2882319F0319361
S1135CE08150FBCFC20ED11C20E0992329F0D601AC
