:100000000C9452050C946F050C946F050C946F05BD
:100010000C946F050C946F050C946F050C946F0590
:100020000C946F050C946F050C946F050C946F0580
:100030000C946F050C946F050C946F050C946F0570
:100040000C9412060C946F050C9446210C946F05C9
:100050000C946F050C946F050C946F050C946F0550
:100060000C946F050C946F05EE17EA17E617E2176C
:10007000DE17DA17D617F417EE17EA17E617E217A6
:10008000DE17DA17D617471A641A7F1A7F1A7F1AF3
:100090007F1A7F1A7F1A471A641A7F1A7F1A7F1AEB
:1000A0007F1A7F1A7F1AE41AE41AE41AE41AD01AA3
:1000B000E41A291A3A1A1E1D3E1D681D871DB21D1D
:1000C000EB1D331EC71EEE1E0A1F2E1F5C1F9C1F3A
:1000D000EC1F08000000BE922449123EABAAAA2AD7
:1000E000BECDCCCC4C3E00000080BEABAAAAAA3E3E
:1000F00000000000BF000000803F0000000000087A
:100100004178D3BB4387D1133D190E3CC3BD428216
:10011000AD2B3E68EC8276BED98FE1A93E4C80EFD4
:10012000FFBE01C4FF7F3F000000000007634236AE
:10013000B79BD8A71A39685618AEBAAB558C1D3C78
:10014000B7CC5763BD6DEDFD753EF6177231BF003C
:100150000000803F4E414E494E495459494E46CDCC
:10016000CCCC3D0AD7233C17B7D13877CC2B32956E
:1001700095E6241FB14F0A000020410000C842004C
:10018000401C4620BCBE4CCA1B0E5AAEC59D740016
:10019000407A10F35A00A0724E18090010A5D4E856
:1001A0000000E87648170000E40B54020000CA9AE9
:1001B0003B000000E1F5050000809698000000403B
:1001C000420F000000A08601000000102700000080
:1001D00000E803000000006400000000000A0000C6
:1001E0000000000100000000002C76D888DC674F7A
:1001F0000823DFC1DFAE59E1B1B796E5E3E453C6AA
:100200003AE651997696E8E6C28426EB898C9B62A1
:10021000ED407C6FFCEFBC9C9F40F2BAA56FA5F44B
:1002200090055A2AF75C936B6CF9676DC11BFCE073
:10023000E40D47FEF520E6B500D0ED902E030094C6
:100240003577050080841E080000204E0A0000005B
:10025000C80C333333330F986E12831141EF8D2165
:1002600014893BE65516CFFEE6DB18D1844B381BCC
:10027000F77C1D901DA4BBE424203284725E228191
:1002800000C9F124ECA1E53D277E21402324255E11
:10029000262A28295F2B0120515745525459554988
:1002A0004F507B7D0402204153444647484A4B4C03
:1002B0003A227C03205A584356424E4D3C3E3F055D
:1002C0000660313233343536373839302D3D012030
:1002D00071776572747975696F705B5D0402206176
:1002E00073646667686A6B6C3B275C03207A78638B
:1002F00076626E6D2C2E2F0506FFFFFFFFFFFF08B5
:100300001C3E0808000C063F060C000C0239020CCB
:1003100000102010080400000010387C0000007C51
:1003200038100000000000000000005F0000000026
:100330000700070000147F147F1400242A7F2A126C
:100340000023130864620036495522500000000360
:10035000000000001C224100000041221C0000148B
:10036000083E08140008083E08080000503000004D
:10037000000808080808000060600000002010085D
:100380000402003E5149453E0000427F40000042C9
:1003900061514946002141454B31001814127F102C
:1003A000002745454539003C4A4949300003710959
:1003B000050300364949493600064949291E00000F
:1003C00036360000000056360000000814224100B6
:1003D00000141414141400004122140800020151E6
:1003E000090600324979413E007E1111117E007FDD
:1003F00049494936003E41414122007F4141413E49
:10040000007F49494941007F09090901003E4141F6
:10041000497A007F0808087F0000417F41000020E2
:1004200040413F01007F08142241007F404040408E
:10043000007F020C027F007F0408107F003E4141D4
:10044000413E007F09090906003E4151215E007FBF
:10045000091929460046494949310001017F010136
:10046000003F4040403F001F2040201F003F4038D9
:10047000403F006314081463000708700807006118
:100480005149454300007F4141000002040810200B
:10049000000041417F00000402010204004040408E
:1004A0004040000001020400002054545478007FB2
:1004B0004844443800384444442000384444487F89
:1004C00000385454541800087E0901020018A4A4EE
:1004D000A47C007F080404780000487D40000000F0
:1004E00000847D00007F102844000000417F400010
:1004F000007C04780478007C0804047800384444C4
:10050000443800FC242424180018242428FC007CEF
:100510000804040800485454542000043F44402078
:10052000003C4040207C001C2040201C003C40300F
:10053000403C004428102844001CA0A0A07C00449B
:1005400064544C440000083641000000007F000065
:1005500000004136080000100808100800000000E4
:10056000000000205454D478003844464520003818
:100570005454D4180000497F4400007C08060578D4
:1005800000384446453800485456552000446456C7
:100590004D44004464554C44007E1111917E003C52
:1005A00042464324007F4949C941007F50484440A6
:1005B000007E040B107E003C4246433C004C5256E9
:1005C0005322004266534A46004262534A460000A4
:1005D000000000000000000000000000000000001B
:1005E000000000000000000000000000000000000B
:1005F00000000000000000000000000000000000FB
:1006000000000000000000000000000000000000EA
:1006100000000000000000000000000000000000DA
:10062000000000506C6561736520776169742E2E3F
:100630002E0058004F4B0042523A0058004F4B00DA
:1006400041503A00444154412025732025730A004B
:1006500025733A2025730025733D25730072657359
:100660007461727420696E20256473007550726F16
:10067000626500415020636F6E6E2E206661696C6A
:100680000042726F6B6572206661696C0042726F26
:100690006B65722074696D656F7574004F4B004215
:1006A000726F6B657220636F6E6E2E005245474904
:1006B000535445522025730A00415020636F6E6EDB
:1006C000656374656400636869702072656164794C
:1006D000006572723A2070726F746F636F6C0065A0
:1006E00072723A206E6F20616E7377657200574C9C
:1006F000414E2073746172747570000A0052454750
:100700004953544552204F4B005155455259000A08
:10071000004261636B6C6967687400427269676864
:10072000746E65737300456E746572206E616D65DD
:100730000045787072657373696F6E00456E7465FD
:1007400072206E616D650044495341424C45440D31
:10075000454E41424C45440044495341424C454476
:100760000D454E41424C4544003A003A00456E74F6
:100770006572206164647265737300456E7465729E
:100780002070617373776F726400456E74657220B8
:100790005353494400456E746572207061737377DA
:1007A0006F726400436F6E6669726D2F7265747547
:1007B000726E0053657475702041502061733A0069
:1007C0004150204C6973743A005363616E6E696ED8
:1007D00067204150732E2E000531082A081708059E
:1007E00008F407000000000000EB0753657474690B
:1007F0006E677300F907FB0780D7104261636B6C6B
:1008000069676874000A080C0880B0104272696752
:1008100068746E657373001C081E0880AE0F5379F0
:100820007374656D206E616D65002F08C80880AC1B
:10083000103608E30880A810047A086B085B084BA0
:10084000080000000000000000C80850085208809E
:10085000A1104F75747075742032006008620880B2
:100860009A104F757470757420310070087208808A
:100870009310496E7075742032007F088108808D56
:1008800010496E70757420310003BA08AE089C08D8
:1008900000000000000000000000C808A108A30834
:1008A00080740F45787072657373696F6E00B3085A
:1008B000B508803C0F4E616D6500BF08C1088048D7
:1008C000105377697463680053656E736F727300B9
:1008D000063B09280918090709F508EB080000007C
:1008E00000E3084E6574776F726B000000F00880BB
:1008F0005465737400FA08FC08801B10436F6E6E19
:10090000656374696F6E000C090E0980DA0F42721C
:100910006F6B6572204950001D091F09800E0F5032
:10092000617373776F7264002D092F0980E20E4D99
:10093000616E75616C20535349440040094209803F
:100940002C115363616E20666F7220415073001446
:100950000AAAAA0A141008A8A808100000A0A0005B
:1009600000000080800000F88EE9A988F8F88EE980
:10097000A98EF8434C4F53454400574946492044FB
:100980004953434F4E4E454354002B4950442C008D
:100990003A0D0A004552524F52004641494C004E12
:1009A0004F5420434F4E4E4543544544005749460B
:1009B0004920444953434F4E4E454354004F4B004A
:1009C00041542B434950434C4F53450D0A00455267
:1009D000524F52004641494C004E4F5420434F4E17
:1009E0004E454354454400574946492044495343E2
:1009F0004F4E4E454354004F4B0041542B435751EB
:100A000041500D0A004552524F52004641494C0098
:100A100053454E44204F4B000D0A000D0A0041542F
:100A20002B43495053454E443D004552524F5200CE
:100A30004641494C004F4B000D0A00222C00415406
:100A40002B43495053544152543D22544350222C7D
:100A500022004552524F52004641494C004F4B0034
:100A6000220D0A00222C220041542B43574A4150A8
:100A70003D220028292C220028292C22002B435714
:100A80004C41503A004552524F52004F4B00415496
:100A90002B43574C41500D0A004F4B0041544530F9
:100AA0000D0A000011241FBECFEFD8E0DEBFCDBF7E
:100AB00011E0A0E0B1E0EEEEF6E602C005900D9286
:100AC000AE39B107D9F724E0AEE9B1E001C01D921B
:100AD000A63BB207E1F70E94F6130C9475330C9411
:100AE000000010927C0087E880937A00089580933C
:100AF0007C0080917A00806480937A0080917A00F3
:100B000086FDFCCF80917800909179000895CF9276
:100B1000DF92EF92FF920F931F93CF93DF93082FF3
:100B2000162F862FD1E0882321F0DD0FDD0F8150B5
:100B3000FACFC0E0C12CD12C7601DC1749F0802F10
:100B40000E947705C80ED91EE11CF11CCF5FF5CFBE
:100B5000D701C60104C0B695A795979587951A95B4
:100B6000D2F7DF91CF911F910F91FF90EF90DF901F
:100B7000CF9008954F925F926F927F92AF92BF9203
:100B8000CF92DF92EF92FF920F931F93CF93DF9359
:100B9000CDB7DEB72A970FB6F894DEBF0FBECDBF34
:100BA0007A87698729013A01E982FA820B831C83DB
:100BB000BC0180E090E00E94CE266D837E838F830F
:100BC000988729853A85B901330F880B990B0E94C4
:100BD000D0269B01AC016D817E818F8198850E941A
:100BE0005C26A30192010E943728A60195010E946C
:100BF000EA25A80197010E945C262A960FB6F89470
:100C0000DEBF0FBECDBFDF91CF911F910F91FF903F
:100C1000EF90DF90CF90BF90AF907F906F905F90FC
:100C20004F9008951F920F920FB60F9211242F9399
:100C30008F939F9389B19091A80196FB992790F982
:100C40008095881F8827881F981731F18091A80107
:100C50008F5F982F9F738091A801807C892B809350
:100C6000A8018091A8018F738F33D9F48091A801D6
:100C7000807C8093A8018091A80180688093A8015E
:100C800089B18095881F8827881F9091A80180FBD3
:100C900096F99093A80105C08091A801807C80936B
:100CA000A80183B1817021E082279091AA0196FB6F
:100CB000992790F9981711F18091AA018F5F982FC9
:100CC0009F738091AA01807C892B8093AA018091D7
:100CD000AA018F738F33B9F48091AA01807C80932D
:100CE000AA018091AA0180688093AA0183B18170D2
:100CF00028278091AA0120FB86F903C08091AA01D0
:100D0000807C8093AA0189B19091A70196FB9927D5
:100D100090F921E0829581708227981719F18091CE
:100D2000A7018F5F982F9F738091A701807C892BEB
:100D30008093A7018091A7018F738F33C1F48091B5
:100D4000A701807C8093A7018091A7018068809390
:100D5000A70189B18295817028278091A70120FB86
:100D600086F903C08091A701807C8093A70189B197
:100D70009091AC0196FB992790F921E086FB88279A
:100D800080F98227981721F18091AC018F5F982F0D
:100D90009F738091AC01807C892B8093AC01809102
:100DA000AC018F738F33C9F48091AC01807C809348
:100DB000AC018091AC0180688093AC0189B186FB65
:100DC000882780F928278091AC0120FB86F903C091
:100DD0008091AC01807C8093AC0189B19091A90194
:100DE00096FB992790F921E085FB882780F98227D7
:100DF000981721F18091A9018F5F982F9F7380919F
:100E0000A901807C892B8093A9018091A9018F730E
:100E10008F33C9F48091A901807C8093A9018091CE
:100E2000A90180688093A90189B185FB882780F991
:100E300028278091A90120FB86F903C08091A90190
:100E4000807C8093A90189B19091AB0196FB992791
:100E500090F921E082FB882780F98227981721F1F9
:100E60008091AB018F5F982F9F738091AB01807C45
:100E7000892B8093AB018091AB018F738F33C9F4C1
:100E80008091AB01807C8093AB018091AB01806845
:100E90008093AB0189B182FB882780F92827809154
:100EA000AB0120FB86F903C08091AB01807C80936D
:100EB000AB019F918F912F910F900FBE0F901F90BC
:100EC000189585B5826085BDEEE6F0E08081816091
:100ED000808357985F9A2098289A54985C9A5698DD
:100EE0005E9A55985D9A52985A9A8091A801807C92
:100EF0008093A8018091A8018F7B8093A8018091A5
:100F0000A8018F778093A8018091AA01807C8093AB
:100F1000AA018091AA018F7B8093AA018091AA01E6
:100F20008F778093AA018091A701807C8093A7018D
:100F30008091A7018F7B8093A7018091A7018F7774
:100F40008093A7018091AC01807C8093AC0180915B
:100F5000AC018F7B8093AC018091AC018F77809343
:100F6000AC018091A901807C8093A9018091A901A5
:100F70008F7B8093A9018091A9018F778093A9012C
:100F80008091AB01807C8093AB018091AB018F7B22
:100F90008093AB018091AB018F778093AB01789404
:100FA00008958091A80187FF0BC08091A8018F77D9
:100FB0008093A8018091A80186FB882780F9089575
:100FC00080E008958091AA0187FF0BC08091AA015B
:100FD0008F778093AA018091AA0186FB882780F9E8
:100FE000089580E008958091A70187FF0BC080914C
:100FF000A7018F778093A7018091A70186FB88279F
:1010000080F9089580E008958091AC0187FF0BC0BE
:101010008091AC018F778093AC018091AC0186FB0D
:10102000882780F9089580E008958091A90187FFBD
:101030000BC08091A9018F778093A9018091A901AC
:1010400086FB882780F9089580E008958091AB01A0
:1010500087FF0BC08091AB018F778093AB018091AC
:10106000AB0186FB882780F9089580E008952F92D0
:101070003F924F925F926F927F928F929F92AF9228
:10108000BF92CF92DF92EF92FF920F931F93CF9375
:10109000DF93CDB7DEB72D970FB6F894DEBF0FBE46
:1010A000CDBF7C015987488761506E83262F6F30F2
:1010B00008F02EE0F70101900020E9F73197CF0109
:1010C0008E199F09082F8F3020F0F2EFF80FFD875F
:1010D00001C01D868C8710E0CC24C394D12C422EF5
:1010E000512C0E943B0C3D85232F30E03A8329830D
:1010F0005901AE0CBF1C612C712C812C912C202E1F
:10110000312CC101821B930B9C838B83FC85EF2FB9
:10111000F0E0FB87EA872D823F828B819C81481615
:1011200059060CF4C201881699066CF5F501F18197
:10113000FD83F5011182A50160E070E0C3010E940A
:10114000730C2D81F501218389819A81880D991D68
:10115000EA85FB85E817F90761F4FD852C854EE7E4
:1011600060E0F21719F08FEF860D01C080E00E9459
:101170006B0D3FEF831A930A4FEFA41AB40A86E06F
:10118000680E711CC8CF4885598561E070E080E029
:1011900090E00E94A90CB12C61E08B2D0E94780E8A
:1011A000B3949EE0B912F8CF111126C021EC822E23
:1011B00022E0922E32E0A32EB12CA401B50180E0F2
:1011C00090E00E94A90CEFEFAE1ABE0AFEE08F0E6F
:1011D000911C26E0A216B10481F762E06C0D8D2D02
:1011E0000E94780E312F3270832E11FF1DC065E0F2
:1011F00080E00E94780E18C089E8882E82E0982E40
:1012000092E0A92EB12CA401B50180E090E00E94EB
:10121000A90C4FEFA41AB40A8EE0880E911C96E038
:10122000A916B10481F7D9CF10FF04C064E080E0B3
:101230000E94780E0E948F0E0E94E2078111C6C0A4
:101240000E940408882331F0E2E0EC150CF4AAC0F7
:10125000C394A8C00E94F307882331F0FCE0FD1579
:101260000CF4A0C0D3949EC00E941508882329F0D6
:101270001C140CF097C0CA9495C00E9426088823BD
:1012800029F0DD2009F48EC0DA948CC00E94D107C9
:10129000882391F22C2D0C2C000C330B8D2D0D2C52
:1012A000000C990B4EE0429FF001439FF00D11247A
:1012B000E80FF91F112319F0E757FD4F02C0EF5354
:1012C000FD4F94908FE1891500F59E810917E8F490
:1012D000EC85AE2EB12C0E1761F0A1014A195B0905
:1012E000B7016A0D7B1DC50101968E0D9F1D0E94E1
:1012F0004A2DF701EA0DFB1D9082FC85FF5FFC87FC
:101300000F5F882009F44EC039C023E09216A1F186
:10131000291538F031E0931669F042E0941639F15E
:1013200041C085E0981689F1981650F196E099161B
:1013300091F138C0EC85EE23A9F10150E150EC8722
:101340000E1779F08E2F90E0402F50E0481B590B7C
:10135000BC016F5F7F4F6E0D7F1D8E0D9F1D0E9424
:101360004A2DFD85FF23F1F0F150FD871BC081E080
:10137000111180E0182F16C0112399F010E012C04F
:10138000F701E20DF31D108225C02C85222351F0B8
:1013900021502C8707C03C85301720F43F5F3C87E5
:1013A00001C012E04C85842F90E09201ED852E0F54
:1013B000311D2817390714F4EF5FED87FD852C8563
:1013C0002F1708F08ECEF150FD878BCE3FEF3D8377
:1013D0004FEF4F838D819F812D960FB6F894DEBF1E
:1013E0000FBECDBFDF91CF911F910F91FF90EF9076
:1013F000DF90CF90BF90AF909F908F907F906F9035
:101400005F904F903F902F9008958F929F92AF9250
:10141000BF92CF92DF92EF92FF920F931F93CF93E1
:10142000DF938C01FC018491E82EF12C853010F4BF
:10143000670103C094E0C92ED12CD0E0C0E0580170
:10144000F1E1AF0EB11C81E0E81AF1080E943B0CFB
:10145000F5014591549160E070E080E090E00E94D9
:10146000A90C912C692D70E06C157D05B4F48D2FBD
:10147000890DF801E80FF11DE80FF11D31968591F6
:101480009491FC013296459154916E5F7F4F80E0BC
:1014900090E00E94A90C9394E5CF912C82E0882ED5
:1014A0008C0E8D1A682D892D0E94780E9394EEE093
:1014B0009E12F8CF0E948F0E0E941508882319F003
:1014C0001C160CF4C1500E940408882341F08C2F94
:1014D0000C2E000C990B8E159F050CF4CF5F0E940B
:1014E000D107882309F1C8018C0F911D8C0F911D24
:1014F0000196FC0125913491F90125913491232B1A
:1015000099F0FC0125913491F9013496E491E03889
:1015100059F4FC0185919491FC0185919491FC0111
:1015200085919491FC0109950E94E207811112C0F6
:101530008D2F0D2E000C990B03962C2F0C2E000CCA
:10154000330B821793070CF4DF5FCD170CF07ECFBF
:10155000D1507CCFDF91CF911F910F91FF90EF90F1
:10156000DF90CF90BF90AF909F908F9008952F9273
:101570003F924F925F926F927F928F929F92AF9223
:10158000BF92CF92DF92EF92FF920F931F93CF9370
:10159000DF9300D000D01F92CDB7DEB72C017D8342
:1015A0006C83342E2983FB012080C42ED12CA22EE3
:1015B000B12CC5018C199D099B838A83602E712CE7
:1015C0000E943B0CA20161E070E086E090E00E9486
:1015D000A90C4FEF64E086E00E946B0DEC81FD8169
:1015E000208130E02C193D09F6E4F29FC001F39F01
:1015F000900D11246A817B810E94CB294B0111E05F
:10160000812F90E08815990540F44FEF64E086E063
:10161000810F0E946B0D1F5FF3CF163440F441E839
:1016200064E086E0810F0E946B0D1F5FF6CF4FEFE5
:1016300064E08CE40E946B0D0E948F0E0E94E20712
:101640008823E9F0EC81FD812082822DF7010F9043
:101650000F900F900F900F90DF91CF911F910F91EE
:10166000FF90EF90DF90CF90BF90AF909F908F90C2
:101670007F906F905F904F903F902F9009940E94C1
:10168000D107811136C00E9426088823B9F0EC8169
:10169000FD818081801750F0282F30E0261937090E
:1016A0002C153D051CF0801B808303C0EC81FD815F
:1016B0003082EC81FD818081F70109950E94F3075A
:1016C000882309F47DCFEC81FD8180819301280F6F
:1016D000311DA216B3061CF0800F808304C049811F
:1016E000EC81FD814083EC81FD818081F7010995CA
:1016F00067CF0F900F900F900F900F90DF91CF91C9
:101700001F910F91FF90EF90DF90CF90BF90AF901F
:101710009F908F907F906F905F904F903F902F9011
:1017200008958F929F92BF92CF92DF92EF92FF9295
:101730000F931F93CF93DF93CDB7DEB7C055D10979
:101740000FB6F894DEBF0FBECDBF7B016A01FB016F
:10175000B0808E010F5F1F4F20E4F80111922A958F
:10176000E9F7BC01C8010E94DF2C66E471E0C80102
:101770000E943C2D9E012F5B3F4FF9018193919375
:101780004F0101E066E471E080E090E00E943C2DB2
:10179000F401819391934F01892B19F00F5F083069
:1017A00089F710E0015011090E943B0CF70180817C
:1017B000FE01EF5BFF4FE80FF11DE80FF11D4081C7
:1017C000518163E070E086E090E00E94730CA60116
:1017D00061E070E081E090E00E94A90C0E948F0E11
:1017E0000E94E207882319F0F701B0821CC00E9412
:1017F000D107811118C00E942608882331F0F70113
:101800008081882311F0815080830E94F307882310
:1018100059F2F7018081282F30E02017310724F694
:101820008F5F8083C1CFC05BDF4F0FB6F894DEBF00
:101830000FBECDBFDF91CF911F910F91FF90EF9021
:10184000DF90CF90BF909F908F90089527E030E079
:1018500090E0AC01022E02C0559547950A94E2F73C
:1018600040FF02C02A9A01C02A98299A299821503B
:10187000310978F708954DEA51E026E080E090E0E4
:10188000FA01E80FF91F10820696883F31E09307AE
:10189000B9F721504F5F5F4F2111F0CF08952B987A
:1018A0002D980E94260C2D9A089584B18E6384B9D8
:1018B00085B1817C85B92C9A8FE99FE00197F1F77A
:1018C00000C0000081E20E944F0C84E10E944F0C96
:1018D0008FEB0E944F0C80E20E944F0C8CE00E9424
:1018E0004F0C0C943B0C1F93CF93DF9316E0FA013F
:1018F0002191AF01222349F120522F35C0F7E6E0B4
:101900002E9F90011124C0E0D0E08435910524F091
:101910006F5F7F4F80E090E066307105B4F4F901AD
:10192000EC0FFD1FED5DFC4FE491189FD001199F56
:10193000B00D1124A355BE4FA60FB71FEC9301960F
:101940002196C630D10509F7D2CFDF91CF911F91F3
:101950000895DF92EF92FF920F931F93CF93DF933F
:10196000EA0146E0FE012491222309F445C0FE016C
:1019700054915D3009F440C0F6E05F9F900111245E
:10198000E52FF0E0B0974E9F80014F9F100D11247E
:101990007901E6E0EE0EF11CDD24DA94D50E021B8F
:1019A000130B8435910524F06F5F7F4F80E090E04A
:1019B000663071050CF5F5E0FD1520F0F901E750F2
:1019C000FD4F07C05F3780F4F801E20FF31FED5DB4
:1019D000FC4FE491489FD001499FB00D1124A355BD
:1019E000BE4FA60FB71FEC9301962F5F3F4F2E15EA
:1019F0003F05B9F62196B6CFDF91CF911F910F9198
:101A0000FF90EF90DF900895282F880F330B962FCB
:101A1000977840FF2FC067FD695F6595659565956F
:101A2000062E000C770B86E0829FF001839FF00D5D
:101A30001124E355FE4FE60FF71F97FF03C09150A7
:101A4000986F9F5F41E050E0DA0102C0AA0FBB1F10
:101A50009A95E2F7CD0196E0929FA001939F500DD9
:101A600011249A0123553E4FD901A60FB71F9C910F
:101A7000892B2FC067FD695F659565956595062E75
:101A8000000C770B86E0829FF001839FF00D1124FC
:101A9000E355FE4FE60FF71F97FF03C09150986F75
:101AA0009F5F41E050E0DA0102C0AA0FBB1F9A9588
:101AB000E2F7CD01809596E0929FA001939F500D93
:101AC00011249A0123553E4FD901A60FB71F9C91AF
:101AD00089238083089526E08202C0011124FC013D
:101AE000E355FE4FE60FF11D67FDFA95408308951B
:101AF0002F923F924F925F926F927F928F929F921E
:101B0000AF92BF92CF92DF92EF92FF920F931F930B
:101B1000CF93DF93CDB7DEB72B970FB6F894DEBF28
:101B20000FBECDBF682E762E7A01222E102F07FF12
:101B300002C017E0100F159515951595212F012E50
:101B4000000C330B3A832983372C412CC22C022CF6
:101B5000000CDD08A62C062C000CBB08872D072CDA
:101B6000000C990B99878887842D90E029813A8110
:101B7000821793070CF04EC0342D222D23039001C1
:101B800011243C832B8323E0880F991F2A95E1F7CA
:101B9000512C28853985280F391F3F832E83E52D49
:101BA000F0E0EC15FD0594F5C5018E0F9F1F8435FF
:101BB000910564F52B813C81E20FF31FEE0DFF1DB3
:101BC000E491812C912C8E2F90E09B878A87962D13
:101BD000950D9D838E819F81880D991DC097A4F4DA
:101BE0004A855B85082C02C0559547950A94E2F713
:101BF000632D680D8D810E94040D2FEF821A920AC9
:101C000038E08316910431F75394C9CF439488E0A8
:101C1000380EAACF322D310310011124077807FFA7
:101C200003C00150086F0F5F802E000F990888E0F5
:101C3000189F50011124272D98E0199F200D112481
:101C40002983512C862D062C000C990B9C838B83A9
:101C5000072D770C110BE52DF0E0EC15FD057CF55B
:101C60008B819C818E0F9F1F8435910544F5E20D79
:101C7000F31DEE0DFF1DE491712C2E2F30E03F83FC
:101C80002E83462C450C272D30E028153905ACF461
:101C9000C801820F931F8A0D9B1DC09774F44E815B
:101CA0005F8102C0559547952A95E2F76981670DD6
:101CB000842D0E94040D7394E6CF5394CCCF2B96C1
:101CC0000FB6F894DEBF0FBECDBFDF91CF911F914D
:101CD0000F91FF90EF90DF90CF90BF90AF909F90CB
:101CE0008F907F906F905F904F903F902F900895CE
:101CF000062E000C770B94E28902600D711D1124F1
:101D000080E090E0FC01E60FF71FE355FE4F2081D5
:101D100020952083069684329105A1F70895EF92CD
:101D2000FF921F93CF93DF932B9A2D988DEAE82E85
:101D300081E0F82E16E0C0E0D0E0F701EC0FFD1FC7
:101D400080810E94260C2696C83F81E0D807A9F71B
:101D500011508FEFE81AF80A1111EDCF2D9ADF918B
:101D6000CF911F91FF90EF900895CF93C82F8234A9
:101D700020F48D3218F4CDE201C0C1E481E20E946A
:101D80004F0C8C2F80680E944F0C80E2CF910C94F6
:101D90004F0C539AE0EBF0E0808183628083E1EBAB
:101DA000F0E080818D61808384E68093B30080932E
:101DB000B4000895853608F084E694E6981B909365
:101DC000B4000895CF93DF93CDB7DEB7A0970FB6D9
:101DD000F894DEBF0FBECDBF40E250E063EB71E090
:101DE000CE0101960E94DE324AE857E060E2CE0161
:101DF00001960E943708019641F040E250E063EB03
:101E000071E0CE0101960E94FC32A0960FB6F894C4
:101E1000DEBF0FBECDBFDF91CF910895CF93DF938B
:101E2000CDB7DEB7C054D1090FB6F894DEBF0FBEF0
:101E3000CDBF40E450E063E771E0CE0101960E941F
:101E4000DE324BE757E060E4CE0101960E9437088E
:101E5000019641F040E450E063E771E0CE01019665
:101E60000E94FC32C05CDF4F0FB6F894DEBF0FBE9D
:101E7000CDBFDF91CF910895CF93DF93CDB7DEB77C
:101E800028970FB6F894DEBF0FBECDBF60912D042A
:101E900028E0629FB00111246F5F7E4F48E050E060
:101EA000CE0101960E94DE324CE357E068E0CE019D
:101EB00001960E943708019671F060912D0488E028
:101EC000689FB00111246F5F7E4F48E050E0CE0163
:101ED00001960E94FC3228960FB6F894DEBF0FBE22
:101EE000CDBFDF91CF910895CF93DF93CDB7DEB70C
:101EF000C054D1090FB6F894DEBF0FBECDBF6091BC
:101F00002D0420E4629FB00111246F5F7F4F40E4F5
:101F100050E0CE0101960E94DE3241E357E060E4DA
:101F2000CE0101960E943708019671F060912D0450
:101F300080E4689FB00111246F5F7F4F40E450E060
:101F4000CE0101960E94FC32C05CDF4F0FB6F894C0
:101F5000DEBF0FBECDBFDF91CF910895CF93DF934A
:101F6000CDB7DEB760970FB6F894DEBF0FBECDBF1A
:101F700040E150E063E271E0CE0101960E94DE3262
:101F800046E257E060E1CE0101960E9437080196D3
:101F900041F040E150E063E271E0CE0101960E9421
:101FA000FC3260960FB6F894DEBF0FBECDBFDF9156
:101FB000CF910895CF93DF93CDB7DEB7C054D10949
:101FC0000FB6F894DEBF0FBECDBF40E450E063E330
:101FD00071E0CE0101960E94DE324DE657E060E4EA
:101FE000CE0101960E9437080196D9F06BE677E0A2
:101FF000CE0101960E94D12C40E450E063E371E0F1
:102000000E94FC3269E677E080E090E00E94D12CEB
:10201000009739F00E94AA2CBC0181E291E00E9455
:102020001E33C05CDF4F0FB6F894DEBF0FBECDBFCE
:10203000DF91CF910895CF93DF931F92CDB7DEB795
:1020400080E090E00E94EE328295817089834CEFAF
:1020500058E0BE016F5F7F4F88E597E00E94910BCB
:102060008981882331F080E090E00E94EE32806127
:1020700005C080E090E00E94EE328F7E8983698106
:1020800080E090E00E940C330F90DF91CF91089593
:102090001F93CF93DF931F92CDB7DEB780E090E020
:1020A0000E94EE3290E000902D0402C09595879535
:1020B0000A94E2F78170898341EC58E0BE016F5FBA
:1020C0007F4F87E497E00E94910B898110912D0446
:1020D000882361F080E090E00E94EE3221E030E061
:1020E00001C0220F1A95EAF7822B0CC080E090E025
:1020F0000E94EE3221E030E001C0220F1A95EAF78B
:10210000209582238983698180E090E00E940C33CE
:102110000F90DF91CF911F91089510922D0489E8BF
:1021200098E00C94050A81E080932D0489E898E0FA
:102130000C94050A82E080932D0489E898E00C94C1
:10214000050A83E080932D0489E898E00C94050A41
:1021500080ED98E00C94050A88E398E00C94050A59
:10216000EF92FF920F93CF93DF931F92CDB7DEB71D
:1021700084EF91E00E94EE32898385EBE82E8EE0B9
:10218000F82E01E021E44DE2BE016F5F7F4F8BE14D
:1021900097E00E94B70A698184EF91E00E940C33B6
:1021A0000F90DF91CF910F91FF90EF900895EF92F4
:1021B000FF920F93CF93DF931F92CDB7DEB783EFDC
:1021C00091E00E94EE3289838AEDE82E8EE0F82EAF
:1021D0000AE024E640E0BE016F5F7F4F81E197E0B7
:1021E0000E94B70A698183EF91E00E940C330F903F
:1021F000DF91CF910F91FF90EF900895CF93DF93F0
:10220000EB016FE077E0CE010E94D12C45E050E079
:1022100069E077E0CE010E94072D892B21F480919F
:10222000A20182600CC04BE050E06DEF76E0CE0181
:102230000E94072D892B29F48091A201816080934F
:10224000A2016BEF76E080E090E00E94D12C892B18
:10225000E9F6DF91CF9108952F923F924F925F92CE
:102260006F927F928F929F92AF92BF92CF92DF92A6
:10227000EF92FF920F931F93CF93DF93CDB7DEB70B
:10228000C454D1090FB6F894DEBF0FBECDBF0E9473
:10229000CE2280FF1BC10E943B0C49EC57E063E05B
:1022A00070E080E090E00E94A90C0E948F0E2FEF5A
:1022B00039E688E1215030408040E1F700C000005D
:1022C0000E942E2310E0C82E880FDD08F6013197FA
:1022D0002596FFAFEEAF259732E2232E4090060100
:1022E000509007019E012D5F3F4F23963FAF2EAFC9
:1022F00023970E94E2078111E9C00E943B0C40EC49
:1023000057E060E070E080E090E00E94A90C85EA70
:10231000E82E83E0F82E92E0892E912C20E1322ED7
:10232000A12CB12C612E012E000C7708AC14BD0439
:102330003CF00E948F0E0E941508811150C052C0BF
:1023400090E33916B1F3A701B40180E090E00E9458
:10235000730CF70180A1811103C047E659E002C068
:102360004DE659E008E026E0632D88E40E94780DF0
:10237000F70181A18B3A24F426E041E659E013C02D
:1023800095E5980F9A3028F408E026E04BE559E0EF
:102390000AC0855B08E026E0843118F445E559E081
:1023A00002C04FE459E0632D8EE40E94780D6A1458
:1023B0007B0461F0FFEFAF1ABF0A28E0320E32E271
:1023C000E30EF11C8FEF881A980AB0CF00E0682D59
:1023D000802F0E94780E0F5F0E30C9F7EBCF1116D9
:1023E0000CF411500E940408882361F0812F012E03
:1023F000000C990B2596EEADFFAD25978E179F0724
:102400000CF41F5F0E94D107882309F472CF0E9449
:102410003B0C43EB57E061E070E080E090E00E940D
:10242000A90CA12E012E000CBB082A9CC0012B9CDC
:10243000900D11249C012B553C4F7901A90162E0BC
:1024400070E080E090E00E94730C44EA57E064E0A2
:1024500070E080E090E00E94A90C0E948F0E0E9424
:10246000E207811146CF0E94D1078823C1F35A8227
:1024700049822396EEADFFAD23972EE311922A9564
:10248000E9F72A9CF0012B9CF00D1124EB55FC4F31
:1024900080A1811110C040E250E063EB71E0C70100
:1024A0000E94FC3240E450E063E771E0CE01019607
:1024B0000E94FC320BC045E957E060E4CE01019672
:1024C0000E943708019609F414CFE5CFCC5BDF4FAB
:1024D0000FB6F894DEBF0FBECDBFDF91CF911F9135
:1024E0000F91FF90EF90DF90CF90BF90AF909F90B3
:1024F0008F907F906F905F904F903F902F900895B6
:10250000EF92FF920F931F93CF93DF93CDB7DEB778
:10251000C055D1090FB6F894DEBF0FBECDBF809174
:10252000A2018E7F8093A2010E943B0C4EEE56E0EA
:1025300060E070E080E090E00E94A90C0E948F0EA5
:102540000E94D122813039F058F0823009F0A3C0C6
:1025500041ED56E002C04FED56E061E070E097C0FB
:1025600046EC56E061E070E080E090E00E94A90C4B
:102570000E948F0E2FEF89E698E121508040904015
:10258000E1F700C0000080E090E00E94EE3282950A
:102590008F7009F48BC040E250E063EB71E085EA94
:1025A00093E00E94DE3240E450E063E771E08E0188
:1025B0000F5F1F4FC8010E94DE32B80185EA93E029
:1025C0000E94B72381115FC049EB56E062E070E0E2
:1025D00080E090E00E94A90C0E948F0E40E450E041
:1025E00063E371E0C8010E94DE3281E291E00E9463
:1025F000F632BC01C8010E94132481113FC07E0144
:1026000021E4E20EF11C40E150E063E271E0C70119
:102610000E94DE32FF92EF928CEA96E09F938F93B6
:102620001F930F930E94E62DC8010E9477248FEF1D
:1026300099E628E1815090402040E1F700C0000079
:102640008EEF90E10E9486258091A2010F900F905D
:102650000F900F900F900F9080FF0DC04FE956E044
:1026600063E070E080E090E00E94A90C4CE956E045
:1026700064E070E00CC04DE856E002C041E856E06E
:1026800063E070E004C043E756E062E070E080E0A1
:1026900090E00E94A90C0E948F0E8FEF93ED20E333
:1026A000815090402040E1F700C00000C05BDF4F48
:1026B0000FB6F894DEBF0FBECDBFDF91CF911F9153
:1026C0000F91FF90EF9008952F923F924F925F925B
:1026D0006F927F928F929F92AF92BF92CF92DF9232
:1026E000EF92FF920F931F93CF93DF93CDB7DEB797
:1026F000C458D1090FB6F894DEBF0FBECDBF1C0180
:102700004B012A01CE0101963C0180E8F3011192B0
:102710008A95E9F7FB0101900020E9F73197CF0195
:10272000861B970BCD57DF4F99838883C358D040C2
:10273000FA0101900020E9F73197CF01841B950B36
:10274000CF57DF4F99838883C158D04081016301FF
:10275000B401C8010E94782D5C01009711F5B80101
:10276000C6010E94632DB301C1010E94632DCC57A5
:10277000DF4F0FB6F894DEBF0FBECDBFDF91CF9114
:102780001F910F91FF90EF90DF90CF90BF90AF908F
:102790009F908F907F906F905F904F903F902F9081
:1027A00008957C01E01AF10AA701B801C6010E9450
:1027B000412DCE0CDF1CCF57DF4F48815981C158C6
:1027C000D040B201C6010E94412DCF57DF4FE881B2
:1027D000F981C158D040CE0EDF1ECD57DF4F0881A2
:1027E0001981C358D0400A0D1B1DB2CFCF93DF9380
:1027F000CDB7DEB7CD58D1090FB6F894DEBF0FBE06
:10280000CDBF3C9A3D9A449845980E9461070E942A
:10281000550C0E94C90E84EF91E00E94EE320E9496
:10282000B50E83EF91E00E94EE320E94DA0E0E9414
:1028300071054CE656E063E070E088E190E00E94AC
:10284000A90C0E948F0E2FEF87EA91E6215080405D
:102850009040E1F700C000000E948012FE01319616
:102860004F018AE511928A95E9F73E01FBE66F0E6A
:10287000711C80E1F30111928A95E9F74CE3442E33
:10288000512C1E01FBE72F0E311C0E943B0C5520E2
:1028900049F080E090E00E94EE3282958F7031F036
:1028A00055245394411005C00E9480123CE3432EEE
:1028B000512C80E090E00E94EE3284FF24C055202D
:1028C000C9F01F924F928DE596E09F938F939F9250
:1028D0008F920E94E62DA40165E070E080E090E018
:1028E0000E94730C4A940F900F900F900F900F90CE
:1028F0000F9009C08091A201882319F30E94CE2273
:1029000082FFDFCF02C051100AC08EEF90E10E941B
:10291000862555245394833021F0512C02C0552430
:10292000539463E080E00E948705A12CB12C6501DF
:10293000E12CF12C00E81FE323E333E343E550E40B
:1029400064E070E20E94BA056F966CAF7DAF8EAF07
:102950009FAF6F9763E081E00E94870523E333E335
:1029600043E550E464E070E20E94BA05A3966CAFC0
:102970007DAF8EAF9FAFA397449903C0D601C50129
:1029800004C080E090E0A0E8BFE3A7968CAF9DAFC5
:10299000AEAFBFAFA797459904C080E090E0DC01DF
:1029A00004C080E090E0A0E8BFE3AB968CAF9DAFA1
:1029B000AEAFBFAFAB9781E090E0C957DF4F9983CF
:1029C0008883C758D040FE01E55AFF4FCB57DF4FF1
:1029D000F983E883C558D04081E091E0C757DF4FC5
:1029E00099838883C958D040E12CF12C80E090E095
:1029F0000E94EE32C457DF4FE882CC58D040C35714
:102A0000DF4FF882CD58D04090E00E2C02C0959553
:102A100087950A94E2F780FF26C140E450E0C95749
:102A2000DF4F68817981C758D040C4010E94DE32EF
:102A300043E551E06AE471E0C4010E9464136F96BB
:102A40006CAD7DAD8EAD9FAD6F97830124E040E00E
:102A50000E941B2AA30167E571E0C4010E94641370
:102A6000A3966CAD7DAD8EAD9FADA39724E040E005
:102A70000E941B2AA3016AE571E0C4010E9464134D
:102A8000A7966CAD7DAD8EAD9FADA79724E040E0DD
:102A90000E941B2AA3016DE571E0C4010E9464132A
:102AA000AB966CAD7DAD8EAD9FADAB9724E040E0B5
:102AB0000E941B2AA30160E671E0C4010E94641316
:102AC000CD57DF4F19821882C358D040BE016D57D1
:102AD0007F4FC4010E941F215B016C01CB57DF4F68
:102AE000E881F981C558D0406083718382839383E4
:102AF000198248E050E0C757DF4F68817981C95893
:102B0000D040C1010E94DE32C557DF4FE882CB586A
:102B1000D040C457DF4FF881CC58D040F23010F08D
:102B200020E001C023E0830140E0C601B5010E941E
:102B30001B2AC557DF4F2881CB58D0402230F0F4F4
:102B4000CD57DF4F88819981C358D040892B19F028
:102B500088E491E001C0C3019F938F933F922F922D
:102B600087E596E09F938F939F928F920E94E62D28
:102B70000FB6F894DEBF0FBECDBF37C020E030E007
:102B800040E85FE3C601B5010E94E22787FF03C06A
:102B90008FE491E002C08CE491E09F938F933F9289
:102BA0002F92E0E5F6E0FF93EF939F928F920E94C1
:102BB000E62D0FB6F894DEBF0FBECDBFC557DF4F71
:102BC0009881CB58D040923081F426E636E646E62E
:102BD0005FE3C601B5010E94E22718161CF488B114
:102BE000806119C088B18F7E16C0C557DF4FE8815C
:102BF000CB58D040E33081F426E636E646E65FE384
:102C0000C601B5010E94E22718161CF488B1806243
:102C100002C088B18F7D88B9A401C457DF4F688195
:102C2000CC58D040C357DF4F7881CD58D04080E09A
:102C300090E00E94730C8091A20181FF14C07F92EA
:102C40006F923F922F9284E496E09F938F939F928E
:102C50008F920E94E62DC4010E9477240FB6F8944B
:102C6000DEBF0FBECDBF9FEFE91AF90AC957DF4F8C
:102C7000E881F981C758D040E05CFF4FC957DF4F6A
:102C8000F983E883C758D040CB57DF4F88819981BB
:102C9000C558D0400496CB57DF4F99838883C558D9
:102CA000D040C757DF4FE881F981C958D0403896E6
:102CB000C757DF4FF983E883C958D040F4E0EF16D7
:102CC000F10409F093CE40E456E064E070E080E067
:102CD00090E00E94A90C0E94CE2281FD03C04BE32C
:102CE00056E002C04DE356E064E070E082E190E01F
:102CF0000E94A90C47E356E064E070E088E290E0AF
:102D00000E94A90C0E94CE2282FD03C042E356E03D
:102D100002C044E356E064E070E08AE390E00E9481
:102D2000A90C8091A2018D7F8093A2010E948F0E39
:102D30000E94D1078823F9F00E943B0C43E256E041
:102D400062E070E080E090E00E94A90C0E948F0E8B
:102D50000E94CE2281FF04C00E9432250E94DE2400
:102D600088ED97E00E94050A80E090E00E94EE3234
:102D700084FD0E9480122FEF83EC99E02150804067
:102D80009040E1F700C0000080CD20E030E0A901D4
:102D90000E945726882321F060E070E0CB0108955F
:102DA00060E070E080E89FE308950E94EB250895BD
:102DB0000E94EA2508950E94372808950E945C2603
:102DC00008950E94E227181624F060E070E0CB011D
:102DD000089560E070E080E89FE308950E94572620
:102DE00087FD04C060E070E0CB01089560E070E012
:102DF00080E89FE308950E945726882321F060E031
:102E000070E0CB01089560E070E080E89FE30895F2
:102E1000CF92DF92EF92FF92CF93DF9369017A0115
:102E200020E030E0A9010E945726882379F0D1E004
:102E3000C0E020E030E0A901C701B6010E9457269A
:102E4000811101C0D0E06D2F7C2F02C060E070E0E6
:102E5000072E000C880B990B0E94D026DF91CF9192
:102E6000FF90EF90DF90CF900895CF92DF92EF9296
:102E7000FF92CF93DF9369017A0120E030E0A9014E
:102E80000E94572681110FC0D1E0C0E020E030E061
:102E9000A901C701B6010E945726811101C0D0E0E7
:102EA0006D2F7C2F02C061E070E0072E000C880BB4
:102EB000990B0E94D026DF91CF91FF90EF90DF9089
:102EC000CF90089590580895CA01B90108958F923E
:102ED0009F92AF92BF92CF92DF92EF92FF920F93A9
:102EE0001F93CF93DF937C015B016C0188E1C822C3
:102EF000DD24C114D10421F0670187E0C822DD245C
:102F00004601880C991CE4FC03C080E090E002C0FC
:102F100082E090E084010A5F1F4F080F191FC8016B
:102F20000E943B2AEC01A80160E070E00E945C2D49
:102F3000CD2849F0A114B10431F0A401B501CE01AE
:102F400006960E94412DF982E8821B821A82CE01E8
:102F5000DF91CF911F910F91FF90EF90DF90CF9075
:102F6000BF90AF909F908F900895CF93DF9300977D
:102F700041F0EC010E94C417CE01DF91CF910C9477
:102F8000D32ADF91CF910895CF93DF93009761F11A
:102F9000DC01ED91FC91EF71FF273997EF30F105DE
:102FA00018F5EC01EC5CFF4F0C94012A8A899B898F
:102FB0000E94B517888999890E94B5178E859F85CB
:102FC0000E94B5178C859D850E94B5178A859B85C3
:102FD0000E94B517888599850E94B5178E819F81BB
:102FE000DF91CF910C94B517DF91CF9108952F9277
:102FF0003F924F925F926F927F928F929F92AF9289
:10300000BF92CF92DF92EF92FF920F931F93CF93D5
:10301000DF9300D000D0CDB7DEB79C838B8388E1EF
:1030200090E0AB81BC8115969C938E931497129679
:10303000BA83A98329E1222E312C30E2E32EF12C30
:10304000EB81FC8162807380D3018C91811105C07A
:103050008AE190E0958384838FC190ED980F9A3038
:1030600010F08E3271F469817A81C3010E945C2B69
:10307000EB81FC8166837783808791878EE190E086
:1030800059C181568A3108F0A3C0AB81BC81129628
:10309000ED91FC91139780819FE9980F9A3158F434
:1030A0002F019FEF491A590AAB81BC8113965C929C
:1030B0004E921297EACF90ED980F9A3088F38F35A1
:1030C00079F32F01461857081C960D911C911D97F6
:1030D0000115110501F11E96AD90BC901F97A1142A
:1030E000B104C9F0F801C080D180A201B601C301CA
:1030F0000E946A2D892B31F4F601E40DF51D8081C3
:10310000882331F0085F1F4FF1E0AF1AB108E7CF15
:103110000115110559F5C12CD12CAA24A394B12C69
:10312000860183E0000F111F8A95E1F70B571E4FB0
:10313000D8018D909C90A201B401C3010E946A2D18
:10314000009709F011C1F401E40DF51D8081811192
:1031500005C00115110509F4F9C008C05601E1E0E8
:10316000AE1AB108AC14BD04DCF6F0C0F80124813D
:103170003581C9018F71992780319105B4F4883068
:103180009105E4F4892B09F0E7C0EFE1F0E0AB81B1
:10319000BC811596FC93EE931497D80112968D91ED
:1031A0009C911397EB81FC8193C048970CF0D4C09D
:1031B00086819781EB81FC8193878287AB81BC817B
:1031C00015963C932E931497F8018281938165C0E4
:1031D000C3010196AB81BC8113969C938E93129789
:1031E000F30180818A3209F464C048F5803209F421
:1031F000B3C050F4893008F4A9C08B3008F4ACC0D7
:103200008D3009F4A9C0A2C0863209F478C060F4F8
:10321000853209F09BC0AB81BC811596FC92EE9281
:10322000149786E197E239C0883209F47AC089326E
:1032300009F08CC08DE190E0EB81FC817BC08C3388
:1032400009F450C090F48C3209F477C0F0F08D325C
:1032500049F18F3209F07AC0AB81BC811596FC929E
:10326000EE9214978EED96E118C08E33A1F108F41A
:103270004FC08E3539F18C3709F068C0EB81FC8185
:10328000F582E48285E397E123C0AB81BC8115968A
:10329000FC92EE92149785ED96E117969C938E938F
:1032A00016975AC0EB81FC81F582E48288ED96E1A5
:1032B0000FC0AB81BC811596FC92EE921497EBED9A
:1032C000F6E118C0EB81FC81F582E48284EA98E2A1
:1032D0009783868341C0EB81FC81F582E48281EE95
:1032E00096E1F6CFAB81BC811596FC92EE921497D5
:1032F000EEEEF6E11796FC93EE9316972DC0AB8198
:10330000BC811596FC92EE92149788E097E1C5CFA8
:10331000AB81BC811596FC92EE921497EBEFF6E12F
:10332000E9CF8CE190E0AB81BC8115969C938E93A4
:10333000149712C0958384830FC0EBE1F0E0AB815A
:10334000BC811596FC93EE93149706C0AB81BC81AB
:1033500015963C922E921497EB81FC818481958185
:10336000489709F46DCE08C0181619060CF0F6CE71
:10337000BFEFCB1ADB0AF6CE0F900F900F900F9095
:10338000DF91CF911F910F91FF90EF90DF90CF9041
:10339000BF90AF909F908F907F906F905F904F9075
:1033A0003F902F900895CF92DF92EF92FF920F936C
:1033B0001F93CF93DF9300D000D0CDB7DEB77C0151
:1033C0000E94621C8C0184E6C82E87E1D82EF7018A
:1033D000848195814B97B1F4C7010E94F7171A8336
:1033E0000983C7010E94621C9C838B83BE016F5FAF
:1033F0007F4F8AE290E00E9467178C01FC01D38224
:10340000C282E5CFC8010F900F900F900F90DF910F
:10341000CF911F910F91FF90EF90DF90CF90089583
:10342000AF92BF92CF92DF92EF92FF920F931F93D2
:10343000CF93DF93EC018C819D81FC01EF71FF271D
:103440003897E831F10508F0BFC0ED5BFF4F0C94F1
:10345000012A60E070E081E090E00E9467178C0133
:103460008E819F81A885B985F80182839383A48387
:10347000B583A6C060E070E080E090E00E9467172E
:103480008C018E819F81F8019383828399C060E0D3
:1034900070E00E9467178C018E819F81F8019383F1
:1034A00082838C8184FF04C08A859B859783868371
:1034B000CE010E94F7178C819D814C9709F098C02E
:1034C000CE010E94F71773C060E070E00E9467179A
:1034D0008C018E819F81F801938382838C8184FF8C
:1034E00004C08A859B8591878087CE010E94F7174B
:1034F000CE010E94041BF8019783868379C09C014A
:1035000028713327232B29F07C01F7E0EF22FF24D9
:1035100002C0E12CF12C60E070E00E9467178C0182
:103520008E819F81F801938382838C8184FF0AC0FE
:10353000F7013396EE0FFF1FE00FF11F8A859B8581
:1035400091838083CE010E94F7178C819D814C97D7
:1035500091F55801F6E0AF0EB11CC12CD12CCE1460
:10356000DF0471F0CE010E94F717CE010E94621CA9
:10357000F501819391935F018C819D814B9729F097
:103580008C819D814D97B9F404C0FFEFCF1ADF0AFB
:10359000E6CF21E0E21AF108EC14FD0461F410C05A
:1035A000CE010E94F717CE010E94D3198C018C81A5
:1035B0009D814D9729F089E190E09D838C8318C00F
:1035C000CE010E94F71714C060E070E080E090E048
:1035D0000E9467178C0189E190E09D838C8380E0D5
:1035E00090E0A0ECBFE7F80182839383A483B583C6
:1035F000C801DF91CF911F910F91FF90EF90DF9065
:10360000CF90BF90AF900895EF92FF920F931F93CA
:10361000CF93DF9300D0CDB7DEB78C01EE24E394D7
:10362000F12CF80184819581809739F0EA94EF2894
:10363000B1F4C8010E94101A23C0F8018681978155
:10364000F6E1853D9F0721F4C8010E94F717E9CFF5
:10365000885D964159F7F194E194F108F5CFC801DE
:103660000E94101A9A838983BE016F5F7F4F89E29F
:1036700090E00E94671722E637E1FC013383228342
:103680000F900F90DF91CF911F910F91FF90EF90CE
:103690000895CF92DF92EF92FF920F931F93CF93F3
:1036A000DF9300D000D0CDB7DEB78C010E94041BA1
:1036B0007C01F801848195818097E9F4C680D780E8
:1036C000F4EACF16F8E2DF06B1F4C8010E94F7175A
:1036D000FA82E982C8010E94041B9C838B83BE018D
:1036E0006F5F7F4F8AE290E00E9467177C01FC01C8
:1036F000D382C282DECFC7010F900F900F900F9040
:10370000DF91CF911F910F91FF90EF90DF90CF90BD
:103710000895CF92DF92EF92FF920F931F93CF9372
:10372000DF9300D000D0CDB7DEB78C010E94491BDB
:103730007C01F80184819581809739F5C680D78016
:10374000FBEDCF16F6E1DF06B1F4C8010E94F717D2
:10375000FA82E982C8010E94491B9C838B83BE01C7
:103760006F5F7F4F8AE290E00E9467177C01FC0147
:10377000D382C282DECF8EEDC81686E1D80629F349
:10378000E6E1CE16E7E2DE0601F3C7010F900F90E7
:103790000F900F90DF91CF911F910F91FF90EF90BD
:1037A000DF90CF900895CF92DF92EF92FF920F9328
:1037B0001F93CF93DF9300D000D0CDB7DEB78C013D
:1037C0000E94891B7C01F80184819581809711F505
:1037D000C680D780F5EDCF16F6E1DF06B1F4C8015B
:1037E0000E94F717FA82E982C8010E94891B9C8314
:1037F0008B83BE016F5F7F4F8AE290E00E94671764
:103800007C01FC01D382C282DECF88EDC81686E13E
:10381000D80629F3C7010F900F900F900F90DF91FA
:10382000CF911F910F91FF90EF90DF90CF9008956F
:10383000CF92DF92EF92FF920F931F93CF93DF937C
:1038400000D000D0CDB7DEB78C010E94D31B7C0125
:10385000F80184819581809739F5C680D780FBEF88
:10386000CF16F6E1DF06B1F4C8010E94F717FA821D
:10387000E982C8010E94D31B9C838B83BE016F5FCA
:103880007F4F8AE290E00E9467177C01FC01D3829F
:10389000C282DECF81EEC81686E1D80629F3EEEEAD
:1038A000CE16E6E1DE0601F3C7010F900F900F90F0
:1038B0000F90DF91CF911F910F91FF90EF90DF90CC
:1038C000CF900895CF92DF92EF92FF920F931F93C4
:1038D000CF93DF9300D000D0CDB7DEB78C010E942C
:1038E000181C7C01F80184819581809711F5C680B0
:1038F000D780F8E0CF16F7E1DF06B1F4C8010E94E7
:10390000F717FA82E982C8010E94181C9C838B83F6
:10391000BE016F5F7F4F8AE290E00E9467177C01D3
:10392000FC01D382C282DECF85E3C81687E1D806C8
:1039300029F3C7010F900F900F900F90DF91CF9157
:103940001F910F91FF90EF90DF90CF9008952F92ED
:103950003F924F925F926F927F928F929F92AF921F
:10396000BF92CF92DF92EF92FF920F931F93CF936C
:10397000DF93CDB7DEB72F970FB6F894DEBF0FBE3B
:10398000CDBF009709F491C39F878E87DC01ED912D
:10399000FC91CF018F719927803191057CF488309B
:1039A0009105DCF4009771F0019709F07EC3EE8574
:1039B000FF8562817381848195817BC348970CF474
:1039C000AEC173C3AE85BF851296ED91FC9113977E
:1039D00060817181828193816CC3AE85BF851296AF
:1039E0002D903C901397CF0188719927892B61F016
:1039F000E770FF273197E730F10530F4E55AFF4FC4
:103A0000AE85BF850C94012AF1012F960FB6F8946C
:103A1000DEBF0FBECDBFDF91CF911F910F91FF9001
:103A2000EF90DF90CF90BF90AF909F908F907F905E
:103A30006F905F904F903F902F90099416968D91C4
:103A40009C9117970E94A71CF1012F960FB6F8942E
:103A5000DEBF0FBECDBFDF91CF911F910F91FF90C1
:103A6000EF90DF90CF90BF90AF909F908F907F901E
:103A70006F905F904F903F902F90099418968D9182
:103A80009C9119970E94A71C6B017C01EE85FF8514
:103A9000868197810E94A71CA7019601F1012F96AC
:103AA0000FB6F894DEBF0FBECDBFDF91CF911F914F
:103AB0000F91FF90EF90DF90CF90BF90AF909F90CD
:103AC0008F907F906F905F904F903F902F900994D0
:103AD0001A968D919C911B970E94A71C6B017C01EB
:103AE000EE85FF85808591850E94A71C4B015C01B6
:103AF000AE85BF8516968D919C9117970E94A71C45
:103B000087017601A5019401F1010995D2C21C96A5
:103B10008D919C911D970E94A71C5B016C01EE8505
:103B2000FF85828593850E94A71C69837A838B8396
:103B30009C83AE85BF8518968D919C9119970E94A4
:103B4000A71C2B013C01EE85FF85868197810E9491
:103B5000A71CE980FA800B811C81A3019201F1016D
:103B60000995A7C21E968D919C911F970E94A71C34
:103B70007B018C01EE85FF85848595850E94A71CBD
:103B80005B016C01AE85BF851A968D919C911B9748
:103B90000E94A71C69837A838B839C83EE85FF85B3
:103BA000808591850E94A71C2B013C01AE85BF85B5
:103BB00016968D919C9117970E94A71C1F930F93A7
:103BC000FF92EF92E980FA800B811C81A3019201A0
:103BD000F1010995ACC150968D919C9151970E942D
:103BE000A71C7B018C01EE85FF85868597850E9449
:103BF000A71C6D8379874C01AE85BF851C968D917E
:103C00009C911D970E94A71C5B016C01EE85FF85AE
:103C1000828593850E94A71C69837A838B839C830A
:103C2000AE85BF8518968D919C9119970E94A71C0F
:103C30002B013C01EE85FF85868197810E94A71CA0
:103C40001F930F93FF92EF929F928F92F985FF93AC
:103C50002D812F93E980FA800B811C81A3019201B1
:103C6000F10109951CC252968D919C9153970E9427
:103C7000A71C7B018C01EE85FF85808991890E94BC
:103C8000A71C6D8379874C01AE85BF851E968D91EB
:103C90009C911F970E94A71C6A877B878C879D87B2
:103CA000EE85FF85848595850E94A71C5B016C01CC
:103CB000AE85BF851A968D919C911B970E94A71C7B
:103CC00069837A838B839C83EE85FF8580859185CC
:103CD0000E94A71C2B013C01AE85BF8516968D91D5
:103CE0009C9117970E94A71C1F930F93FF92EF922E
:103CF0009F928F92B985BF93ED81EF93FD85FF93DE
:103D00002C852F933B853F93AA85AF93E980FA805A
:103D10000B811C81A3019201F1010995C0C1AE85FF
:103D2000BF8512960D90BC91A02DBA83A983CF01B7
:103D300088719927892B61F0E770FF273197E73069
:103D4000F10530F4EE59FF4FAE85BF850C94012A82
:103D5000EE85FF8586819781E981FA812F960FB6DE
:103D6000F894DEBF0FBECDBFDF91CF911F910F91B1
:103D7000FF90EF90DF90CF90BF90AF909F908F908B
:103D80007F906F905F904F903F902F900994169680
:103D90008D919C9117970E94A71CAB01BC01EE85E9
:103DA000FF8580859185E981FA812F960FB6F89479
:103DB000DEBF0FBECDBFDF91CF911F910F91FF905E
:103DC000EF90DF90CF90BF90AF909F908F907F90BB
:103DD0006F905F904F903F902F90099418968D911F
:103DE0009C9119970E94A71C6B017C01EE85FF85B1
:103DF000868197810E94A71CAB01BC0197018601B7
:103E0000AE85BF851A968D919C911B97E981FA81A9
:103E100009954FC11A968D919C911B970E94A71CE2
:103E20006B017C01EE85FF85808591850E94A71C32
:103E30004B015C01AE85BF8516968D919C911797BD
:103E40000E94A71CAB01BC0195018401EE85FF8592
:103E500084859585E981FA8109952BC11C968D9100
:103E60009C911D970E94A71C4B015C01EE85FF856C
:103E7000828593850E94A71C6B017C01AE85BF855E
:103E800018968D919C9119970E94A71C2B013C01BB
:103E9000EE85FF85868197810E94A71CAB01BC013E
:103EA00093018201AE85BF851E968D919C911F97CF
:103EB000E981FA810995FDC01E968D919C911F970D
:103EC0000E94A71C362E272E182F092FEE85FF855E
:103ED000848595850E94A71C4B015C01AE85BF853A
:103EE0001A968D919C911B970E94A71C6B017C01D7
:103EF000EE85FF85808591850E94A71C2B013C01E2
:103F0000AE85BF8516968D919C9117970E94A71C30
:103F1000AB01BC010F931F932F923F92930182013B
:103F2000EE85FF8580899189E981FA8109950F9055
:103F30000F900F900F90BDC050968D919C9151970E
:103F40000E94A71C762E672E8D839987EE85FF85AC
:103F5000868597850E94A71C6A877B87182F092F63
:103F6000AE85BF851C968D919C911D970E94A71CC4
:103F70004B015C01EE85FF85828593850E94A71C1D
:103F80006B017C01AE85BF8518968D919C91199728
:103F90000E94A71C1B012C01EE85FF85868197815D
:103FA0000E94A71CAB01BC01F985FF932D812F93C3
:103FB0006F927F920F931F933B853F938A858F93D8
:103FC00092018101AE85BF8552968D919C91539748
:103FD000E981FA81099563C052968D919C9153971E
:103FE0000E94A71C69877A878B879C87EE85FF854F
:103FF000808991890E94A71C562E472E382E292E83
:10400000AE85BF851E968D919C911F970E94A71C1F
:10401000762E672E182F092FEE85FF8584859585CE
:104020000E94A71C4B015C01AE85BF851A968D913D
:104030009C911B970E94A71C6B017C01EE85FF855C
:10404000808591850E94A71C6D837E838F839887CE
:10405000AE85BF8516968D919C9117970E94A71CDF
:10406000AB01BC01BC85BF93EB85EF93FA85FF9351
:1040700029852F932F923F924F925F920F931F9318
:104080006F927F920D811E812F813885AE85BF850D
:1040900054968D919C915597E981FA8109950FB6B7
:1040A000F894DEBF0FBECDBF04C060E070E080ECCE
:1040B0009FE72F960FB6F894DEBF0FBECDBFDF91FE
:1040C000CF911F910F91FF90EF90DF90CF90BF9015
:1040D000AF909F908F907F906F905F904F903F90A8
:1040E0002F9008958F929F92AF92BF92CF92DF92BE
:1040F000EF92FF920F931F93CF93DF93DC012D91EB
:104100003C9122303105F0F125FF3CC08901087156
:1041100011270115110519F0890107701127EC010C
:104120006C01B6E0CB0ED11CE12CF12C88248394D9
:10413000912CE016F106A1F05601F60181919191C2
:104140006F010E947220D501ED91FC9180819181D7
:10415000019711F0812C912CBFEFEB1AFB0AE9CFEC
:10416000892881F0CE010E94A71C6B017C01CE0141
:104170000E94C41781E090E099838883CA82DB8221
:10418000EC82FD82DF91CF911F910F91FF90EF9014
:10419000DF90CF90BF90AF909F908F900895EF9257
:1041A000FF920F931F93CF93DF93CDB7DEB7609746
:1041B0000FB6F894DEBF0FBECDBF79019C838B8311
:1041C0009A8389837E876D87588B4F87CE010196AE
:1041D0000E94F717CE0101960E94D3198C018D81A0
:1041E0009E814A97A9F0C8010E94B517E114F10415
:1041F00061F08B819C8129813A81821B930B11F4A0
:1042000081E090E0F7019183808380E090E00AC034
:10421000C8010E947220E114F10419F0F701118223
:104220001082C80160960FB6F894DEBF0FBECDBFF6
:10423000DF91CF911F910F91FF90EF900895CF9252
:10424000DF92EF92FF92CF93DF939B0140E050E02B
:1042500060E070E00E94CF20EC01009741F00E94E6
:10426000A71C6B017C01CE010E94B51706C0C12CB2
:10427000D12C80ECE82E8FE7F82EC701B601DF9134
:10428000CF91FF90EF90DF90CF9008951F920F9203
:104290000FB60F9211242F938F939F93EF93FF9359
:1042A0008091A50190E02091C600FC01E25DFB4FEA
:1042B000208301968F7799278093A5019091A4017F
:1042C000981303C081E08093A301FF91EF919F9128
:1042D0008F912F910F900FBE0F901F901895CF9236
:1042E000DF92EF92FF926B017C019B01AC0184E0B5
:1042F000220F331F441F551F8A95D1F760E074E2E7
:1043000084EF90E00E94DF29BA01A90141505109D0
:1043100061097109F894E5ECF0E08081852B8083D8
:104320004093C40060E472E48FE090E0A70196013E
:104330000E94DF296AE0629FC001639F900D1124F3
:10434000C3969093AF048093AE04E1ECF0E08081DB
:1043500088618083A2ECB0E08C9186608C93808130
:10436000806880837894FF90EF90DF90CF900895DD
:1043700081E02091A5019091A401291301C080E062
:1043800008958091A301882329F01092A30180E071
:104390009AEF08952091A4018091A501281769F052
:1043A00030E0F901E25DFB4F80812F5F3F4F2F77B7
:1043B00033272093A40190E0089580E09BEF0895B7
:1043C0009091C00095FFFCCF8093C6000895CF93D5
:1043D000DF93EC01FE018491882321F00E94E0210B
:1043E0002196F8CFDF91CF910895CF93DF93EC0121
:1043F0008991882319F00E94E021FACFDF91CF91B3
:1044000008958F929F92AF92BF92CF92DF92EF92D8
:10441000FF920F931F93CF93DF93662309F43EC05F
:10442000C32ED22EA42EE62EEC01822F932F0E94B3
:10443000E62C982EB12CF12C21E0E21AF1088D2CFB
:104440000B2D10E00E151F0524F0C00FD11F188290
:1044500027C00E94C12181152AEF9207B1F381156F
:104460002BEF920741F4AA2081F30E94C12181150C
:104470002BEF9207D1F3ED2DFC2D2E2F28192915A6
:1044800038F4249130E0319628173907B1F7DDCFA1
:10449000FE01E00FF11F8083B394D2CF00E010E063
:1044A000C801DF91CF911F910F91FF90EF90DF90A6
:1044B000CF90BF90AF909F908F900895CF92DF9252
:1044C000EF92FF920F931F93CF93DF93662389F1AF
:1044D000D42F7C01C0E0062F10E001501109CC2E32
:1044E000D12CC016D106ECF40E94C12181152AEF0F
:1044F0009207B9F081152BEF920741F4DD2389F083
:104500000E94C12181152BEF9207D1F38A309105CA
:1045100011F4C15006C0F701EC0DFD1D8083CF5F83
:10452000DECF2C2F30E0F701E20FF31F1082C9011C
:1045300002C080E090E0DF91CF911F910F91FF903A
:10454000EF90DF90CF900895FF920F931F93CF933A
:10455000DF936623E9F0162F092FF82E0E94C12160
:10456000CF2DD02F9E01210F311D890181152AEFFA
:10457000920771F0C017D10759F081153BEF9307EF
:1045800019F40E94C121F9CF89930E94C121EECF75
:10459000DF91CF911F910F91FF9008958091A60117
:1045A0000895CF93DF93CDB7DEB760970FB6F89439
:1045B000DEBF0FBECDBF8091A6018E7F8093A60186
:1045C0002FEF80E792E0215080409040E1F700C05B
:1045D00000002FEF83ED90E3215080409040E1F701
:1045E00000C0000060E875E280E090E00E946F216A
:1045F0008CE99AE00E94E7212FEF89E698E12150AB
:1046000080409040E1F700C000000E94B82188235C
:10461000D9F00E94B8218823A9F040E060E1CE01E2
:1046200001960E945E2269E97AE0CE0101960E941D
:10463000D62C892B71F78091A60181608093A60109
:1046400080E003C082E001C081E060960FB6F8947C
:10465000DEBF0FBECDBFDF91CF910895AF92BF9265
:10466000CF92DF92EF92FF920F931F93CF93DF933E
:10467000CDB7DEB7C455D1090FB6F894DEBF0FBE73
:10468000CDBF8EE89AE00E94E72110E041E060E8AB
:10469000CE0101960E945E228823C1F36BE87AE086
:1046A000CE0101960E94D62C892B09F44BC065E8F7
:1046B0007AE0CE0101960E94D62C892B09F444C0E1
:1046C00047E050E06DE77AE0CE0101960E94072DA9
:1046D000892BE1F61430D4F668E77AE0CE0108962B
:1046E0000E94D12C00E042E2140390011124F90150
:1046F000EB55FC4F7F016F01F0E2CF0ED11C57014B
:1047000021E2A20EB11C0097D9F0013059F030F02F
:10471000023071F40E94AA2CF50109C00E94AA2C53
:10472000F60105C0BC01C7010E94632D01C0808352
:104730000F5F63E77AE080E090E00E94D12CE3CF46
:104740001F5FA4CF812F01C08FEFCC5ADF4F0FB670
:10475000F894DEBF0FBECDBFDF91CF911F910F91B7
:10476000FF90EF90DF90CF90BF90AF900895EF92C1
:10477000FF920F931F93CF93DF93CDB7DEB7609770
:104780000FB6F894DEBF0FBECDBF7C018B018091C8
:10479000A6018D7F8093A60188E69AE00E94E7211A
:1047A000C7010E94F52184E69AE00E94E721C80132
:1047B0000E94F52180E69AE00E94E72141E060E155
:1047C000CE0101960E945E228823C1F36DE57AE056
:1047D000CE0101960E94D62C892B39F48091A60136
:1047E00082608093A60180E011C068E57AE0CE0186
:1047F00001960E94D62C892B41F062E57AE0CE0129
:1048000001960E94D62C892BC9F68FEF60960FB6C1
:10481000F894DEBF0FBECDBFDF91CF911F910F91F6
:10482000FF90EF900895EF92FF920F931F93CF9315
:10483000DF93CDB7DEB760970FB6F894DEBF0FBE3B
:10484000CDBF7C018B018091A6018B7F8093A60157
:104850008EE39AE00E94E721C7010E94F5214AE019
:10486000BE016F5F7F4FC8010E94B92D8BE39AE0B4
:104870000E94E721CE0101960E94F52188E39AE08B
:104880000E94E72141E060E1CE0101960E945E2294
:104890008823C1F365E37AE0CE0101960E94D62C0D
:1048A000892B39F48091A60184608093A60180E071
:1048B00011C060E37AE0CE0101960E94D62C892BCC
:1048C00041F06AE27AE0CE0101960E94D62C892B53
:1048D000C9F68FEF60960FB6F894DEBF0FBECDBF5E
:1048E000DF91CF911F910F91FF90EF9008950F935B
:1048F0001F93CF93DF93CDB7DEB760970FB6F894D1
:10490000DEBF0FBECDBF8C018EE19AE00E94E72191
:10491000F80101900020E9F7CF0101974AE0BE01BC
:104920006F5F7F4F801B910B0E94B92DCE010196C6
:104930000E94F5218BE19AE00E94E7218FE39CE938
:104940000197F1F700C00000C8010E94F52188E13D
:104950009AE00E94E72141E060E1CE0101960E94C9
:104960005E220097C1F30196C9F060E17AE0CE01C2
:1049700001960E94D62C892B99F06BE07AE0CE014B
:1049800001960E94D62C892B69F065E07AE0CE0171
:1049900001960E94D62C892BF1F604C083E003C057
:1049A00080E001C08FEF60960FB6F894DEBF0FBEB7
:1049B000CDBFDF91CF911F910F910895CF93DF93DA
:1049C000CDB7DEB760970FB6F894DEBF0FBECDBF90
:1049D0008AEF99E00E94E7218091A601897F809368
:1049E000A60141E060E1CE0101960E945E2200979F
:1049F000C1F3019649F167EF79E0CE0101960E947B
:104A0000D62C892B19F167EE79E0CE0101960E9430
:104A1000D62C892BD9F069ED79E0CE0101960E9460
:104A2000D62C892B99F064ED79E0CE0101960E9495
:104A3000D62C892B69F06EEC79E0CE0101960E94AC
:104A4000D62C892B71F604C083E003C080E001C03E
:104A50008FEF60960FB6F894DEBF0FBECDBFDF912B
:104A6000CF910895CF93DF93CDB7DEB760970FB6A0
:104A7000F894DEBF0FBECDBF80EC99E00E94E72125
:104A80008091A6018B7F8093A60141E060E1CE0179
:104A900001960E945E220097C1F3019649F16DEBE9
:104AA00079E0CE0101960E94D62C892B19F16DEA8E
:104AB00079E0CE0101960E94D62C892BD9F06FE9BE
:104AC00079E0CE0101960E94D62C892B99F06AE9F3
:104AD00079E0CE0101960E94D62C892B69F064E919
:104AE00079E0CE0101960E94D62C892B71F604C084
:104AF00083E003C080E001C08FEF60960FB6F894AA
:104B0000DEBF0FBECDBFDF91CF910895FF920F930F
:104B10001F93CF93DF93CDB7DEB7C058D1090FB63F
:104B2000F894DEBF0FBECDBF8C010E94B821882350
:104B300009F443C020E939E040E060E8CE01019685
:104B40000E940122882389F345E050E06AE879E079
:104B5000CE0101960E94072D892BA1F4CE01069665
:104B60000E94AA2CF82E682FCE0101960E94A42242
:104B700001151105D1F2BE016F5F7F4F8F2DF80136
:104B80000995D3CF6AE779E0CE0101960E94D62C31
:104B9000892B21F48091A601897F0CC063E779E01D
:104BA000CE0101960E94D62C892B09F0BECF8091B0
:104BB000A6018B7F8093A601B8CFC058DF4F0FB6F8
:104BC000F894DEBF0FBECDBFDF91CF911F910F9143
:104BD000FF9008955058BB27AA270E9402260C94E4
:104BE000A8270E949A2738F00E94A12720F039F4C4
:104BF0009F3F19F426F40C9497270EF4E095E7FBF9
:104C00000C948327E92F0E94B92758F3BA1762073B
:104C100073078407950720F079F4A6F50C94DB2739
:104C20000EF4E0950B2EBA2FA02D0B01B9019001C7
:104C30000C01CA01A0011124FF27591B99F0593F0B
:104C400050F4503E68F11A16F040A22F232F342F53
:104C50004427585FF3CF469537952795A795F040A1
:104C60005395C9F77EF41F16BA0B620B730B840BB6
:104C7000BAF09150A1F0FF0FBB1F661F771F881F6E
:104C8000C2F70EC0BA0F621F731F841F48F48795C6
:104C900077956795B795F7959E3F08F0B0CF9395B8
:104CA000880F08F09927EE0F9795879508950E9431
:104CB0005F2708F481E008950E9470260C94A827CD
:104CC0000E94A12758F00E949A2740F029F45F3FE4
:104CD00029F00C94832751110C94DC270C9497270E
:104CE0000E94B92768F39923B1F3552391F3951BDB
:104CF000550BBB27AA2762177307840738F09F5FFD
:104D00005F4F220F331F441FAA1FA9F335D00E2E69
:104D10003AF0E0E832D091505040E695001CCAF7D6
:104D20002BD0FE2F29D0660F771F881FBB1F261799
:104D300037074807AB07B0E809F0BB0B802DBF0170
:104D4000FF2793585F4F3AF09E3F510578F00C943F
:104D500083270C94DC275F3FE4F3983ED4F38695D9
:104D600077956795B795F7959F5FC9F7880F911D60
:104D70009695879597F90895E1E0660F771F881F4C
:104D8000BB1F621773078407BA0720F0621B730BFF
:104D9000840BBA0BEE1F88F7E0950895E89409C0DC
:104DA00097FB3EF490958095709561957F4F8F4F5E
:104DB0009F4F9923A9F0F92F96E9BB279395F69574
:104DC000879577956795B795F111F8CFFAF4BB0FF2
:104DD00011F460FF1BC06F5F7F4F8F4F9F4F16C056
:104DE000882311F096E911C0772321F09EE8872FE0
:104DF000762F05C0662371F096E8862F70E060E09C
:104E00002AF09A95660F771F881FDAF7880F969514
:104E1000879597F908950E949A2720F019F00E942B
:104E2000A12750F40C9497270C94DC27E92F0E94BB
:104E3000B92788F35523B1F3E7FB6217730784079B
:104E40009507A8F189F3E92FFF2788232AF03197E6
:104E5000660F771F881FDAF7952F5527442332F006
:104E600091505040220F331F441FD2F7BB27E91B3C
:104E7000F50B621B730B840BB109B1F222F4620FC4
:104E8000731F841FB11D31972AF0660F771F881F8B
:104E9000BB1FEFCF9150504062F041F0882332F0B9
:104EA000660F771F881F91505040C1F793950C945F
:104EB00089278695779567959F5FD9F7F7CF990FE3
:104EC0000008550FAA0BE0E8FEEF16161706E807D4
:104ED000F907C0F012161306E407F50798F0621BF5
:104EE000730B840B950B39F40A2661F0232B242BCA
:104EF000252B21F408950A2609F4A140A6958FEFE9
:104F0000811D811D089597F99F6780E870E060E03A
:104F100008959F3F31F0915020F4879577956795DC
:104F2000B795880F911D9695879597F908959FEFEE
:104F300080EC089500240A94161617061806090630
:104F4000089500240A9412161306140605060895FF
:104F5000092E0394000C11F4882352F0BB0F40F487
:104F6000BF2B11F460FF04C06F5F7F4F8F4F9F4FC7
:104F7000089557FD9058440F551F59F05F3F71F049
:104F80004795880F97FB991F61F09F3F79F08795B0
:104F90000895121613061406551FF2CF4695F1DF39
:104FA00008C0161617061806991FF1CF86957105C9
:104FB000610508940895E894BB2766277727CB01FD
:104FC00097F908950E945F2708F48FEF089516F06F
:104FD0000C9489270C94972768940C9483270E943B
:104FE000C127A8F39923C1F3AEF3DF93CF931F93A7
:104FF0000F93FF92C92FDD2788232AF02197660F90
:10500000771F881FDAF720E030E040E85FEB9FE38E
:10501000883920F0803E38F021968F770E94EB256A
:10502000E2EDF0E004C00E94EB25EFEFF0E00E941B
:105030002E298B01BE01EC01FB2E6F57710975956E
:10504000771F880B990B0E94D02628E132E741E3B5
:105050005FE30E944A28AF2D9801AE01FF900F91A7
:105060001F91CF91DF910E9402260C94A8270E94E5
:105070004A280C94A8270E949A2738F00E94A1275A
:1050800020F0952311F00C9483270C94972711247A
:105090000C94DC270E94B92770F3959FC1F3950FFC
:1050A00050E0551F629FF001729FBB27F00DB11DAC
:1050B000639FAA27F00DB11DAA1F649F6627B00D3C
:1050C000A11D661F829F2227B00DA11D621F739F25
:1050D000B00DA11D621F839FA00D611D221F749F33
:1050E0003327A00D611D231F849F600D211D822F7A
:1050F000762F6A2F11249F5750409AF0F1F08823A1
:105100004AF0EE0FFF1FBB1F661F771F881F9150CD
:105110005040A9F79E3F510580F00C9483270C94D2
:10512000DC275F3FE4F3983ED4F386957795679547
:10513000B795F795E7959F5FC1F7FE2B880F911DF7
:105140009695879597F90895FA01EE0FFF1F30960F
:1051500021053105A1F16115710561F48038BFE3C6
:105160009B0749F168949038810561F08038BFEF62
:105170009B0741F099234AF5FF3FE10531052105E1
:1051800019F1E8940894E795D901AA2329F4AB2FE3
:10519000BE2FF85FD0F310C0FF5F70F4A695E0F764
:1051A000F73950F019F0FF3A38F49F779F930DD0FC
:1051B0000F9007FC9058089546F00C94972760E0F4
:1051C00070E080E89FE308954FE79F775F934F93E8
:1051D0003F932F930E94EF272F913F914F915F9123
:1051E0000E9437280C94FC2829F416F00C9483278D
:1051F0000C94DB270C9497270E94C127A8F39638BC
:10520000A0F707F80F92E8942BE33AEA48EB5FE740
:105210000E944D280F920F920F924DB75EB70F92DA
:105220000E949729ECE2F1E00E942E294F915F91B4
:10523000EF91FF91E595EE1FFF1F49F0FE57E068E3
:105240004427EE0F441FFA95E1F74195550B0E9454
:1052500061290F9007FE0C9455290895DF93CF9391
:105260001F930F93FF92EF92DF927B018C01689462
:1052700006C0DA2EEF010E944A28FE01E894A591AB
:105280002591359145915591A6F3EF010E94022693
:10529000FE019701A801DA9469F7DF90EF90FF9083
:1052A0000F911F91CF91DF9108959B01AC0160E0B8
:1052B00070E080E89FE30C945C260C9483270C94A8
:1052C00089270E94C127D8F39923C9F3940F511D50
:1052D000A3F39150504094F059F0882332F0660FB8
:1052E000771F881F91505040C1F79E3F51052CF702
:1052F000880F911D9695879597F908955F3FACF0BB
:10530000983E9CF0BB27869577956795B79508F4EE
:10531000B1609395C1F7BB0F58F711F460FFE8CF68
:105320006F5F7F4F8F4F9F4FE3CF0C94DC27FA01C5
:10533000DC01AA0FBB1F9B01AC01BF5728F4222739
:1053400033274427507820C0B75190F4AB2F002466
:10535000469537952795011CA395D2F3002071F04F
:10536000220F331F441FB395DAF30ED00C94EA25B5
:1053700061307105A0E88A07B94630F49B01AC01A1
:105380006627772788279078309621F0208331830D
:1053900042835383089597FB072E16F4009407D099
:1053A00077FD09D00E94072A07FC05D03EF49095AE
:1053B00081959F4F0895709561957F4F0895A1E263
:1053C0001A2EAA1BBB1BFD010DC0AA1FBB1FEE1F7F
:1053D000FF1FA217B307E407F50720F0A21BB30BCA
:1053E000E40BF50B661F771F881F991F1A9469F746
:1053F00060957095809590959B01AC01BD01CF01A2
:105400000895EE0FFF1F0590F491E02D0994AA1B5B
:10541000BB1B51E107C0AA1FBB1FA617B70710F09F
:10542000A61BB70B881F991F5A95A9F780959095D1
:10543000BC01CD010895EF920F931F93CF93DF939B
:10544000E80147FD02C034E001C034E1042E000C45
:10545000550B57FF03C0519541955109E32E022F7B
:10546000242FAE010E94E92FCE01DF91CF911F9131
:105470000F91EF9008950F931F93CF93DF93823096
:10548000910510F482E090E0E091B204F091B30451
:1054900020E030E0A0E0B0E0309719F14081518188
:1054A0000281138148175907C8F08417950769F4DA
:1054B000109731F012960C93129713961C9327C0F5
:1054C0000093B2041093B30422C02115310519F0E2
:1054D0004217530718F49A01BD01EF01DF01F801EB
:1054E000DBCF21153105F9F0281B390B24303105AC
:1054F00080F48A819B816115710521F0FB01938302
:10550000828304C09093B3048093B204FE01329668
:1055100044C0FE01E20FF31F8193919322503109A1
:10552000398328833AC02091B0043091B104232BF1
:1055300041F420910201309103013093B104209392
:10554000B00420910001309101012115310541F491
:105550002DB73EB74091040150910501241B350B36
:10556000E091B004F091B104E217F307A0F42E1B10
:105570003F0B2817390778F0AC014E5F5F4F2417B7
:10558000350748F04E0F5F1F5093B1044093B004AD
:105590008193919302C0E0E0F0E0CF01DF91CF91E1
:1055A0001F910F910895CF93DF93009709F481C065
:1055B000FC01329713821282A091B204B091B3041D
:1055C000109781F420813181820F931F2091B004C4
:1055D0003091B1042817390751F5F093B104E093E5
:1055E000B00467C0ED0120E030E0CE17DF0740F4E3
:1055F0004A815B819E0141155105F1F0EA01F5CF29
:10560000D383C28340815181840F951FC817D90766
:1056100059F488819981840F951F02969183808324
:105620008A819B81938382832115310529F4F0932C
:10563000B304E093B2043DC0E901FB83EA834991DE
:105640005991C40FD51FEC17FD0761F4808191813A
:10565000840F951F0296E901998388838281938143
:105660009B838A83E0E0F0E012968D919C911397E2
:10567000009719F0FD01DC01F7CF8D919C911197F6
:105680009D012E5F3F4F820F931F2091B0043091F8
:10569000B1042817390769F4309729F41092B3043C
:1056A0001092B20402C013821282B093B104A0938C
:1056B000B004DF91CF910895A0E0B0E0E2E6FBE214
:1056C0000C943533EC016B016115710519F0FB0188
:1056D000918380837E01FFEFEF1AFF0A0881802FFC
:1056E00090E00E94C82C892B11F0E701F3CF0D3216
:1056F00039F47E0182E0E80EF11C098111E008C056
:105700000B3229F47E0192E0E90EF11C098110E0D0
:10571000E701219743E050E06CE571E0CE010E9483
:10572000EF2C892BC1F4239645E050E067E571E04A
:10573000CE010E94EF2C892B09F42596C114D104C7
:1057400019F0F601D183C0831111F6C060E070E05A
:1057500080E89FE7FAC043E050E064E571E0CE01E5
:105760000E94EF2C892B59F4C114D10409F4E9C02B
:10577000F2E0EF0EF11CF601F182E082E2C020E0DF
:1057800030E0A901C0E0D0E0F70180EDA82EA00E26
:1057900089E08A1530F1912F9260B92E812F88709F
:1057A00012FF04C0811124C0219622C081112197CB
:1057B000A5E0B0E00E942433DC01CB01880F991FE3
:1057C000AA1FBB1F9C01AD012A0D311D411D511D9A
:1057D000283989E93807480789E1580748F01660F1
:1057E00006C09EEFA9120AC013FD40C01860B12E7A
:1057F0008FEFE81AF80A00811B2DC6CF802F8F7D0E
:105800008534A1F580818D3211F4106106C08B3290
:1058100021F0319661E070E004C08181329662E04F
:1058200070E080538A3018F0E61BF70B1FC060E071
:1058300070E060389CE079075CF4DB01AA0FBB1FC5
:10584000AA0FBB1F6A0F7B1F660F771F680F711DA2
:105850003196DF0111978C9180538A3050F314FFF9
:1058600003C0719561957109C60FD71F11FF08C05C
:10587000C114D10429F0CF010197F60191838083EF
:10588000CA01B9010E94CE26212F2370233019F0BE
:105890004B015C0106C04B015C01B7FAB094B7F84C
:1058A000B09420E030E0A901C501B4010E94572660
:1058B000882309F43EC0D7FF06C0D195C195D10910
:1058C00003E711E002C00BE811E06801F8E1CF1A2C
:1058D000D10890E2E92EF12CCE15DF0574F0F80125
:1058E0002591359145915491C501B4010E94372805
:1058F0004B015C01CE19DF09EFCF04501109F5947B
:10590000E7940C151D0541F78A2D880F8B2D881FF4
:105910008F3F49F020E030E0A901C501B4010E94A9
:105920005726811106C082E290E09093B5048093DF
:10593000B404C501B40109C060E070E080E89FEFE5
:1059400004C060E070E080EC9FE7CDB7DEB7ECE02C
:105950000C945133FC0188279927E8942191203237
:10596000E9F3293010F02E30C8F32B3241F02D32FC
:1059700039F4689404C00E94C42D820F911D2191B6
:1059800020532A30C0F31EF4909581959F4F0895BF
:1059900091110C941B32803219F089508550C8F750
:1059A00008954EE951E00E94152D0895FB01DC0198
:1059B0008D91059080190110D9F3990B0895FB0181
:1059C000DC0105900D920020E1F70895FC0105909F
:1059D0000020E9F7809590958E0F9F1F0895FB0199
:1059E000DC014150504088F08D9181341CF08B35A2
:1059F0000CF4805E659161341CF06B350CF4605ED4
:105A0000861B611171F3990B0895881BFCCFFB0174
:105A1000DC014150504030F08D910590801919F40F
:105A20000020B9F7881B990B0895FA01A191B08164
:105A3000009719F41097E1F0CD01DC01CD010D9034
:105A4000002011F4C00113C0FB012591222319F09D
:105A50002015D9F7F3CFFB012591201519F41E92DB
:105A6000119606C02223C1F70D900020A1F7D001A6
:105A7000FA01A193B083089540EA51E00E94922D6B
:105A80000895FB01DC0102C001900D92415050408D
:105A9000D8F708956817790768F4FB01DC01E40F73
:105AA000F51FA40FB51F02C002900E924150504046
:105AB000D8F708950C94412DDC0101C06D9341503D
:105AC0005040E0F70895FB01DC0101900D920020A9
:105AD000E1F70895FB01DC014150504030F08D9119
